{"abi":[{"inputs":[{"internalType":"uint256","name":"minimumValue","type":"uint256"}],"name":"createCampaign","outputs":[],"stateMutability":"nonpayable","type":"function"},{"inputs":[{"internalType":"uint256","name":"","type":"uint256"}],"name":"deployedCampaign","outputs":[{"internalType":"address","name":"","type":"address"}],"stateMutability":"view","type":"function"},{"inputs":[],"name":"getDeployedCampaign","outputs":[{"internalType":"address[]","name":"","type":"address[]"}],"stateMutability":"view","type":"function"}],"devdoc":{"kind":"dev","methods":{},"version":1},"evm":{"assembly":"    /* \"Campaign.sol\":58:424  contract CampaignFactory{... */\n  mstore(0x40, 0x80)\n  callvalue\n  dup1\n  iszero\n  tag_1\n  jumpi\n  0x00\n  dup1\n  revert\ntag_1:\n  pop\n  dataSize(sub_0)\n  dup1\n  dataOffset(sub_0)\n  0x00\n  codecopy\n  0x00\n  return\nstop\n\nsub_0: assembly {\n        /* \"Campaign.sol\":58:424  contract CampaignFactory{... */\n      mstore(0x40, 0x80)\n      callvalue\n      dup1\n      iszero\n      tag_1\n      jumpi\n      0x00\n      dup1\n      revert\n    tag_1:\n      pop\n      jumpi(tag_2, lt(calldatasize, 0x04))\n      shr(0xe0, calldataload(0x00))\n      dup1\n      0x5eac0007\n      eq\n      tag_3\n      jumpi\n      dup1\n      0xa3303a75\n      eq\n      tag_4\n      jumpi\n      dup1\n      0xb7ccb9ab\n      eq\n      tag_5\n      jumpi\n    tag_2:\n      0x00\n      dup1\n      revert\n        /* \"Campaign.sol\":314:422  function getDeployedCampaign() public view returns(address[] memory){... */\n    tag_3:\n      tag_6\n      tag_7\n      jump\t// in\n    tag_6:\n      mload(0x40)\n      tag_8\n      swap2\n      swap1\n      tag_9\n      jump\t// in\n    tag_8:\n      mload(0x40)\n      dup1\n      swap2\n      sub\n      swap1\n      return\n        /* \"Campaign.sol\":128:308  function createCampaign(uint minimumValue) public {... */\n    tag_4:\n      tag_10\n      0x04\n      dup1\n      calldatasize\n      sub\n      dup2\n      add\n      swap1\n      tag_11\n      swap2\n      swap1\n      tag_12\n      jump\t// in\n    tag_11:\n      tag_13\n      jump\t// in\n    tag_10:\n      stop\n        /* \"Campaign.sol\":88:121  address[] public deployedCampaign */\n    tag_5:\n      tag_14\n      0x04\n      dup1\n      calldatasize\n      sub\n      dup2\n      add\n      swap1\n      tag_15\n      swap2\n      swap1\n      tag_12\n      jump\t// in\n    tag_15:\n      tag_16\n      jump\t// in\n    tag_14:\n      mload(0x40)\n      tag_17\n      swap2\n      swap1\n      tag_18\n      jump\t// in\n    tag_17:\n      mload(0x40)\n      dup1\n      swap2\n      sub\n      swap1\n      return\n        /* \"Campaign.sol\":314:422  function getDeployedCampaign() public view returns(address[] memory){... */\n    tag_7:\n        /* \"Campaign.sol\":365:381  address[] memory */\n      0x60\n        /* \"Campaign.sol\":399:415  deployedCampaign */\n      0x00\n        /* \"Campaign.sol\":392:415  return deployedCampaign */\n      dup1\n      sload\n      dup1\n      0x20\n      mul\n      0x20\n      add\n      mload(0x40)\n      swap1\n      dup2\n      add\n      0x40\n      mstore\n      dup1\n      swap3\n      swap2\n      swap1\n      dup2\n      dup2\n      mstore\n      0x20\n      add\n      dup3\n      dup1\n      sload\n      dup1\n      iszero\n      tag_20\n      jumpi\n      0x20\n      mul\n      dup3\n      add\n      swap2\n      swap1\n      0x00\n      mstore\n      keccak256(0x00, 0x20)\n      swap1\n    tag_21:\n      dup2\n      0x00\n      swap1\n      sload\n      swap1\n      0x0100\n      exp\n      swap1\n      div\n      0xffffffffffffffffffffffffffffffffffffffff\n      and\n      0xffffffffffffffffffffffffffffffffffffffff\n      and\n      dup2\n      mstore\n      0x20\n      add\n      swap1\n      0x01\n      add\n      swap1\n      dup1\n      dup4\n      gt\n      tag_21\n      jumpi\n    tag_20:\n      pop\n      pop\n      pop\n      pop\n      pop\n      swap1\n      pop\n        /* \"Campaign.sol\":314:422  function getDeployedCampaign() public view returns(address[] memory){... */\n      swap1\n      jump\t// out\n        /* \"Campaign.sol\":128:308  function createCampaign(uint minimumValue) public {... */\n    tag_13:\n        /* \"Campaign.sol\":188:207  address newCampaign */\n      0x00\n        /* \"Campaign.sol\":231:243  minimumValue */\n      dup2\n        /* \"Campaign.sol\":245:255  msg.sender */\n      caller\n        /* \"Campaign.sol\":218:256  new Campaign(minimumValue, msg.sender) */\n      mload(0x40)\n      tag_23\n      swap1\n      tag_24\n      jump\t// in\n    tag_23:\n      tag_25\n      swap3\n      swap2\n      swap1\n      tag_26\n      jump\t// in\n    tag_25:\n      mload(0x40)\n      dup1\n      swap2\n      sub\n      swap1\n      0x00\n      create\n      dup1\n      iszero\n      dup1\n      iszero\n      tag_27\n      jumpi\n      returndatasize\n      0x00\n      dup1\n      returndatacopy\n      revert(0x00, returndatasize)\n    tag_27:\n      pop\n        /* \"Campaign.sol\":188:257  address newCampaign = address(new Campaign(minimumValue, msg.sender)) */\n      swap1\n      pop\n        /* \"Campaign.sol\":267:283  deployedCampaign */\n      0x00\n        /* \"Campaign.sol\":289:300  newCampaign */\n      dup2\n        /* \"Campaign.sol\":267:301  deployedCampaign.push(newCampaign) */\n      swap1\n      dup1\n      0x01\n      dup2\n      sload\n      add\n      dup1\n      dup3\n      sstore\n      dup1\n      swap2\n      pop\n      pop\n      0x01\n      swap1\n      sub\n      swap1\n      0x00\n      mstore\n      keccak256(0x00, 0x20)\n      add\n      0x00\n      swap1\n      swap2\n      swap1\n      swap2\n      swap1\n      swap2\n      0x0100\n      exp\n      dup2\n      sload\n      dup2\n      0xffffffffffffffffffffffffffffffffffffffff\n      mul\n      not\n      and\n      swap1\n      dup4\n      0xffffffffffffffffffffffffffffffffffffffff\n      and\n      mul\n      or\n      swap1\n      sstore\n      pop\n        /* \"Campaign.sol\":178:308  {... */\n      pop\n        /* \"Campaign.sol\":128:308  function createCampaign(uint minimumValue) public {... */\n      pop\n      jump\t// out\n        /* \"Campaign.sol\":88:121  address[] public deployedCampaign */\n    tag_16:\n      0x00\n      dup2\n      dup2\n      sload\n      dup2\n      lt\n      tag_29\n      jumpi\n      0x00\n      dup1\n      revert\n    tag_29:\n      swap1\n      0x00\n      mstore\n      keccak256(0x00, 0x20)\n      add\n      0x00\n      swap2\n      pop\n      sload\n      swap1\n      0x0100\n      exp\n      swap1\n      div\n      0xffffffffffffffffffffffffffffffffffffffff\n      and\n      dup2\n      jump\t// out\n    tag_24:\n      dataSize(sub_0)\n      dup1\n      dataOffset(sub_0)\n      dup4\n      codecopy\n      add\n      swap1\n      jump\t// out\n        /* \"#utility.yul\":7:121   */\n    tag_31:\n        /* \"#utility.yul\":74:80   */\n      0x00\n        /* \"#utility.yul\":108:113   */\n      dup2\n        /* \"#utility.yul\":102:114   */\n      mload\n        /* \"#utility.yul\":92:114   */\n      swap1\n      pop\n        /* \"#utility.yul\":7:121   */\n      swap2\n      swap1\n      pop\n      jump\t// out\n        /* \"#utility.yul\":127:311   */\n    tag_32:\n        /* \"#utility.yul\":226:237   */\n      0x00\n        /* \"#utility.yul\":260:266   */\n      dup3\n        /* \"#utility.yul\":255:258   */\n      dup3\n        /* \"#utility.yul\":248:267   */\n      mstore\n        /* \"#utility.yul\":300:304   */\n      0x20\n        /* \"#utility.yul\":295:298   */\n      dup3\n        /* \"#utility.yul\":291:305   */\n      add\n        /* \"#utility.yul\":276:305   */\n      swap1\n      pop\n        /* \"#utility.yul\":127:311   */\n      swap3\n      swap2\n      pop\n      pop\n      jump\t// out\n        /* \"#utility.yul\":317:449   */\n    tag_33:\n        /* \"#utility.yul\":384:388   */\n      0x00\n        /* \"#utility.yul\":407:410   */\n      dup2\n        /* \"#utility.yul\":399:410   */\n      swap1\n      pop\n        /* \"#utility.yul\":437:441   */\n      0x20\n        /* \"#utility.yul\":432:435   */\n      dup3\n        /* \"#utility.yul\":428:442   */\n      add\n        /* \"#utility.yul\":420:442   */\n      swap1\n      pop\n        /* \"#utility.yul\":317:449   */\n      swap2\n      swap1\n      pop\n      jump\t// out\n        /* \"#utility.yul\":455:581   */\n    tag_34:\n        /* \"#utility.yul\":492:499   */\n      0x00\n        /* \"#utility.yul\":532:574   */\n      0xffffffffffffffffffffffffffffffffffffffff\n        /* \"#utility.yul\":525:530   */\n      dup3\n        /* \"#utility.yul\":521:575   */\n      and\n        /* \"#utility.yul\":510:575   */\n      swap1\n      pop\n        /* \"#utility.yul\":455:581   */\n      swap2\n      swap1\n      pop\n      jump\t// out\n        /* \"#utility.yul\":587:683   */\n    tag_35:\n        /* \"#utility.yul\":624:631   */\n      0x00\n        /* \"#utility.yul\":653:677   */\n      tag_54\n        /* \"#utility.yul\":671:676   */\n      dup3\n        /* \"#utility.yul\":653:677   */\n      tag_34\n      jump\t// in\n    tag_54:\n        /* \"#utility.yul\":642:677   */\n      swap1\n      pop\n        /* \"#utility.yul\":587:683   */\n      swap2\n      swap1\n      pop\n      jump\t// out\n        /* \"#utility.yul\":689:797   */\n    tag_36:\n        /* \"#utility.yul\":766:790   */\n      tag_56\n        /* \"#utility.yul\":784:789   */\n      dup2\n        /* \"#utility.yul\":766:790   */\n      tag_35\n      jump\t// in\n    tag_56:\n        /* \"#utility.yul\":761:764   */\n      dup3\n        /* \"#utility.yul\":754:791   */\n      mstore\n        /* \"#utility.yul\":689:797   */\n      pop\n      pop\n      jump\t// out\n        /* \"#utility.yul\":803:982   */\n    tag_37:\n        /* \"#utility.yul\":872:882   */\n      0x00\n        /* \"#utility.yul\":893:939   */\n      tag_58\n        /* \"#utility.yul\":935:938   */\n      dup4\n        /* \"#utility.yul\":927:933   */\n      dup4\n        /* \"#utility.yul\":893:939   */\n      tag_36\n      jump\t// in\n    tag_58:\n        /* \"#utility.yul\":971:975   */\n      0x20\n        /* \"#utility.yul\":966:969   */\n      dup4\n        /* \"#utility.yul\":962:976   */\n      add\n        /* \"#utility.yul\":948:976   */\n      swap1\n      pop\n        /* \"#utility.yul\":803:982   */\n      swap3\n      swap2\n      pop\n      pop\n      jump\t// out\n        /* \"#utility.yul\":988:1101   */\n    tag_38:\n        /* \"#utility.yul\":1058:1062   */\n      0x00\n        /* \"#utility.yul\":1090:1094   */\n      0x20\n        /* \"#utility.yul\":1085:1088   */\n      dup3\n        /* \"#utility.yul\":1081:1095   */\n      add\n        /* \"#utility.yul\":1073:1095   */\n      swap1\n      pop\n        /* \"#utility.yul\":988:1101   */\n      swap2\n      swap1\n      pop\n      jump\t// out\n        /* \"#utility.yul\":1137:1869   */\n    tag_39:\n        /* \"#utility.yul\":1256:1259   */\n      0x00\n        /* \"#utility.yul\":1285:1339   */\n      tag_61\n        /* \"#utility.yul\":1333:1338   */\n      dup3\n        /* \"#utility.yul\":1285:1339   */\n      tag_31\n      jump\t// in\n    tag_61:\n        /* \"#utility.yul\":1355:1441   */\n      tag_62\n        /* \"#utility.yul\":1434:1440   */\n      dup2\n        /* \"#utility.yul\":1429:1432   */\n      dup6\n        /* \"#utility.yul\":1355:1441   */\n      tag_32\n      jump\t// in\n    tag_62:\n        /* \"#utility.yul\":1348:1441   */\n      swap4\n      pop\n        /* \"#utility.yul\":1465:1521   */\n      tag_63\n        /* \"#utility.yul\":1515:1520   */\n      dup4\n        /* \"#utility.yul\":1465:1521   */\n      tag_33\n      jump\t// in\n    tag_63:\n        /* \"#utility.yul\":1544:1551   */\n      dup1\n        /* \"#utility.yul\":1575:1576   */\n      0x00\n        /* \"#utility.yul\":1560:1844   */\n    tag_64:\n        /* \"#utility.yul\":1585:1591   */\n      dup4\n        /* \"#utility.yul\":1582:1583   */\n      dup2\n        /* \"#utility.yul\":1579:1592   */\n      lt\n        /* \"#utility.yul\":1560:1844   */\n      iszero\n      tag_66\n      jumpi\n        /* \"#utility.yul\":1661:1667   */\n      dup2\n        /* \"#utility.yul\":1655:1668   */\n      mload\n        /* \"#utility.yul\":1688:1751   */\n      tag_67\n        /* \"#utility.yul\":1747:1750   */\n      dup9\n        /* \"#utility.yul\":1732:1745   */\n      dup3\n        /* \"#utility.yul\":1688:1751   */\n      tag_37\n      jump\t// in\n    tag_67:\n        /* \"#utility.yul\":1681:1751   */\n      swap8\n      pop\n        /* \"#utility.yul\":1774:1834   */\n      tag_68\n        /* \"#utility.yul\":1827:1833   */\n      dup4\n        /* \"#utility.yul\":1774:1834   */\n      tag_38\n      jump\t// in\n    tag_68:\n        /* \"#utility.yul\":1764:1834   */\n      swap3\n      pop\n        /* \"#utility.yul\":1620:1844   */\n      pop\n        /* \"#utility.yul\":1607:1608   */\n      0x01\n        /* \"#utility.yul\":1604:1605   */\n      dup2\n        /* \"#utility.yul\":1600:1609   */\n      add\n        /* \"#utility.yul\":1595:1609   */\n      swap1\n      pop\n        /* \"#utility.yul\":1560:1844   */\n      jump(tag_64)\n    tag_66:\n        /* \"#utility.yul\":1564:1578   */\n      pop\n        /* \"#utility.yul\":1860:1863   */\n      dup6\n        /* \"#utility.yul\":1853:1863   */\n      swap4\n      pop\n        /* \"#utility.yul\":1261:1869   */\n      pop\n      pop\n      pop\n        /* \"#utility.yul\":1137:1869   */\n      swap3\n      swap2\n      pop\n      pop\n      jump\t// out\n        /* \"#utility.yul\":1875:2248   */\n    tag_9:\n        /* \"#utility.yul\":2018:2022   */\n      0x00\n        /* \"#utility.yul\":2056:2058   */\n      0x20\n        /* \"#utility.yul\":2045:2054   */\n      dup3\n        /* \"#utility.yul\":2041:2059   */\n      add\n        /* \"#utility.yul\":2033:2059   */\n      swap1\n      pop\n        /* \"#utility.yul\":2105:2114   */\n      dup2\n        /* \"#utility.yul\":2099:2103   */\n      dup2\n        /* \"#utility.yul\":2095:2115   */\n      sub\n        /* \"#utility.yul\":2091:2092   */\n      0x00\n        /* \"#utility.yul\":2080:2089   */\n      dup4\n        /* \"#utility.yul\":2076:2093   */\n      add\n        /* \"#utility.yul\":2069:2116   */\n      mstore\n        /* \"#utility.yul\":2133:2241   */\n      tag_70\n        /* \"#utility.yul\":2236:2240   */\n      dup2\n        /* \"#utility.yul\":2227:2233   */\n      dup5\n        /* \"#utility.yul\":2133:2241   */\n      tag_39\n      jump\t// in\n    tag_70:\n        /* \"#utility.yul\":2125:2241   */\n      swap1\n      pop\n        /* \"#utility.yul\":1875:2248   */\n      swap3\n      swap2\n      pop\n      pop\n      jump\t// out\n        /* \"#utility.yul\":2335:2452   */\n    tag_41:\n        /* \"#utility.yul\":2444:2445   */\n      0x00\n        /* \"#utility.yul\":2441:2442   */\n      dup1\n        /* \"#utility.yul\":2434:2446   */\n      revert\n        /* \"#utility.yul\":2581:2658   */\n    tag_43:\n        /* \"#utility.yul\":2618:2625   */\n      0x00\n        /* \"#utility.yul\":2647:2652   */\n      dup2\n        /* \"#utility.yul\":2636:2652   */\n      swap1\n      pop\n        /* \"#utility.yul\":2581:2658   */\n      swap2\n      swap1\n      pop\n      jump\t// out\n        /* \"#utility.yul\":2664:2786   */\n    tag_44:\n        /* \"#utility.yul\":2737:2761   */\n      tag_76\n        /* \"#utility.yul\":2755:2760   */\n      dup2\n        /* \"#utility.yul\":2737:2761   */\n      tag_43\n      jump\t// in\n    tag_76:\n        /* \"#utility.yul\":2730:2735   */\n      dup2\n        /* \"#utility.yul\":2727:2762   */\n      eq\n        /* \"#utility.yul\":2717:2780   */\n      tag_77\n      jumpi\n        /* \"#utility.yul\":2776:2777   */\n      0x00\n        /* \"#utility.yul\":2773:2774   */\n      dup1\n        /* \"#utility.yul\":2766:2778   */\n      revert\n        /* \"#utility.yul\":2717:2780   */\n    tag_77:\n        /* \"#utility.yul\":2664:2786   */\n      pop\n      jump\t// out\n        /* \"#utility.yul\":2792:2931   */\n    tag_45:\n        /* \"#utility.yul\":2838:2843   */\n      0x00\n        /* \"#utility.yul\":2876:2882   */\n      dup2\n        /* \"#utility.yul\":2863:2883   */\n      calldataload\n        /* \"#utility.yul\":2854:2883   */\n      swap1\n      pop\n        /* \"#utility.yul\":2892:2925   */\n      tag_79\n        /* \"#utility.yul\":2919:2924   */\n      dup2\n        /* \"#utility.yul\":2892:2925   */\n      tag_44\n      jump\t// in\n    tag_79:\n        /* \"#utility.yul\":2792:2931   */\n      swap3\n      swap2\n      pop\n      pop\n      jump\t// out\n        /* \"#utility.yul\":2937:3266   */\n    tag_12:\n        /* \"#utility.yul\":2996:3002   */\n      0x00\n        /* \"#utility.yul\":3045:3047   */\n      0x20\n        /* \"#utility.yul\":3033:3042   */\n      dup3\n        /* \"#utility.yul\":3024:3031   */\n      dup5\n        /* \"#utility.yul\":3020:3043   */\n      sub\n        /* \"#utility.yul\":3016:3048   */\n      slt\n        /* \"#utility.yul\":3013:3132   */\n      iszero\n      tag_81\n      jumpi\n        /* \"#utility.yul\":3051:3130   */\n      tag_82\n      tag_41\n      jump\t// in\n    tag_82:\n        /* \"#utility.yul\":3013:3132   */\n    tag_81:\n        /* \"#utility.yul\":3171:3172   */\n      0x00\n        /* \"#utility.yul\":3196:3249   */\n      tag_83\n        /* \"#utility.yul\":3241:3248   */\n      dup5\n        /* \"#utility.yul\":3232:3238   */\n      dup3\n        /* \"#utility.yul\":3221:3230   */\n      dup6\n        /* \"#utility.yul\":3217:3239   */\n      add\n        /* \"#utility.yul\":3196:3249   */\n      tag_45\n      jump\t// in\n    tag_83:\n        /* \"#utility.yul\":3186:3249   */\n      swap2\n      pop\n        /* \"#utility.yul\":3142:3259   */\n      pop\n        /* \"#utility.yul\":2937:3266   */\n      swap3\n      swap2\n      pop\n      pop\n      jump\t// out\n        /* \"#utility.yul\":3272:3390   */\n    tag_46:\n        /* \"#utility.yul\":3359:3383   */\n      tag_85\n        /* \"#utility.yul\":3377:3382   */\n      dup2\n        /* \"#utility.yul\":3359:3383   */\n      tag_35\n      jump\t// in\n    tag_85:\n        /* \"#utility.yul\":3354:3357   */\n      dup3\n        /* \"#utility.yul\":3347:3384   */\n      mstore\n        /* \"#utility.yul\":3272:3390   */\n      pop\n      pop\n      jump\t// out\n        /* \"#utility.yul\":3396:3618   */\n    tag_18:\n        /* \"#utility.yul\":3489:3493   */\n      0x00\n        /* \"#utility.yul\":3527:3529   */\n      0x20\n        /* \"#utility.yul\":3516:3525   */\n      dup3\n        /* \"#utility.yul\":3512:3530   */\n      add\n        /* \"#utility.yul\":3504:3530   */\n      swap1\n      pop\n        /* \"#utility.yul\":3540:3611   */\n      tag_87\n        /* \"#utility.yul\":3608:3609   */\n      0x00\n        /* \"#utility.yul\":3597:3606   */\n      dup4\n        /* \"#utility.yul\":3593:3610   */\n      add\n        /* \"#utility.yul\":3584:3590   */\n      dup5\n        /* \"#utility.yul\":3540:3611   */\n      tag_46\n      jump\t// in\n    tag_87:\n        /* \"#utility.yul\":3396:3618   */\n      swap3\n      swap2\n      pop\n      pop\n      jump\t// out\n        /* \"#utility.yul\":3624:3742   */\n    tag_47:\n        /* \"#utility.yul\":3711:3735   */\n      tag_89\n        /* \"#utility.yul\":3729:3734   */\n      dup2\n        /* \"#utility.yul\":3711:3735   */\n      tag_43\n      jump\t// in\n    tag_89:\n        /* \"#utility.yul\":3706:3709   */\n      dup3\n        /* \"#utility.yul\":3699:3736   */\n      mstore\n        /* \"#utility.yul\":3624:3742   */\n      pop\n      pop\n      jump\t// out\n        /* \"#utility.yul\":3748:4080   */\n    tag_26:\n        /* \"#utility.yul\":3869:3873   */\n      0x00\n        /* \"#utility.yul\":3907:3909   */\n      0x40\n        /* \"#utility.yul\":3896:3905   */\n      dup3\n        /* \"#utility.yul\":3892:3910   */\n      add\n        /* \"#utility.yul\":3884:3910   */\n      swap1\n      pop\n        /* \"#utility.yul\":3920:3991   */\n      tag_91\n        /* \"#utility.yul\":3988:3989   */\n      0x00\n        /* \"#utility.yul\":3977:3986   */\n      dup4\n        /* \"#utility.yul\":3973:3990   */\n      add\n        /* \"#utility.yul\":3964:3970   */\n      dup6\n        /* \"#utility.yul\":3920:3991   */\n      tag_47\n      jump\t// in\n    tag_91:\n        /* \"#utility.yul\":4001:4073   */\n      tag_92\n        /* \"#utility.yul\":4069:4071   */\n      0x20\n        /* \"#utility.yul\":4058:4067   */\n      dup4\n        /* \"#utility.yul\":4054:4072   */\n      add\n        /* \"#utility.yul\":4045:4051   */\n      dup5\n        /* \"#utility.yul\":4001:4073   */\n      tag_46\n      jump\t// in\n    tag_92:\n        /* \"#utility.yul\":3748:4080   */\n      swap4\n      swap3\n      pop\n      pop\n      pop\n      jump\t// out\n    stop\n\n    sub_0: assembly {\n            /* \"Campaign.sol\":426:2186  contract Campaign{... */\n          mstore(0x40, 0x80)\n            /* \"Campaign.sol\":957:1080  constructor(uint minimumValue, address sender){... */\n          callvalue\n          dup1\n          iszero\n          tag_1\n          jumpi\n          0x00\n          dup1\n          revert\n        tag_1:\n          pop\n          mload(0x40)\n          sub(codesize, bytecodeSize)\n          dup1\n          bytecodeSize\n          dup4\n          codecopy\n          dup2\n          dup2\n          add\n          0x40\n          mstore\n          dup2\n          add\n          swap1\n          tag_2\n          swap2\n          swap1\n          tag_3\n          jump\t// in\n        tag_2:\n            /* \"Campaign.sol\":1035:1047  minimumValue */\n          dup2\n            /* \"Campaign.sol\":1013:1032  minimumContribution */\n          0x00\n            /* \"Campaign.sol\":1013:1047  minimumContribution = minimumValue */\n          dup2\n          swap1\n          sstore\n          pop\n            /* \"Campaign.sol\":1067:1073  sender */\n          dup1\n            /* \"Campaign.sol\":1057:1064  manager */\n          0x02\n          0x00\n            /* \"Campaign.sol\":1057:1073  manager = sender */\n          0x0100\n          exp\n          dup2\n          sload\n          dup2\n          0xffffffffffffffffffffffffffffffffffffffff\n          mul\n          not\n          and\n          swap1\n          dup4\n          0xffffffffffffffffffffffffffffffffffffffff\n          and\n          mul\n          or\n          swap1\n          sstore\n          pop\n            /* \"Campaign.sol\":957:1080  constructor(uint minimumValue, address sender){... */\n          pop\n          pop\n            /* \"Campaign.sol\":426:2186  contract Campaign{... */\n          jump(tag_6)\n            /* \"#utility.yul\":88:205   */\n        tag_8:\n            /* \"#utility.yul\":197:198   */\n          0x00\n            /* \"#utility.yul\":194:195   */\n          dup1\n            /* \"#utility.yul\":187:199   */\n          revert\n            /* \"#utility.yul\":334:411   */\n        tag_10:\n            /* \"#utility.yul\":371:378   */\n          0x00\n            /* \"#utility.yul\":400:405   */\n          dup2\n            /* \"#utility.yul\":389:405   */\n          swap1\n          pop\n            /* \"#utility.yul\":334:411   */\n          swap2\n          swap1\n          pop\n          jump\t// out\n            /* \"#utility.yul\":417:539   */\n        tag_11:\n            /* \"#utility.yul\":490:514   */\n          tag_23\n            /* \"#utility.yul\":508:513   */\n          dup2\n            /* \"#utility.yul\":490:514   */\n          tag_10\n          jump\t// in\n        tag_23:\n            /* \"#utility.yul\":483:488   */\n          dup2\n            /* \"#utility.yul\":480:515   */\n          eq\n            /* \"#utility.yul\":470:533   */\n          tag_24\n          jumpi\n            /* \"#utility.yul\":529:530   */\n          0x00\n            /* \"#utility.yul\":526:527   */\n          dup1\n            /* \"#utility.yul\":519:531   */\n          revert\n            /* \"#utility.yul\":470:533   */\n        tag_24:\n            /* \"#utility.yul\":417:539   */\n          pop\n          jump\t// out\n            /* \"#utility.yul\":545:688   */\n        tag_12:\n            /* \"#utility.yul\":602:607   */\n          0x00\n            /* \"#utility.yul\":633:639   */\n          dup2\n            /* \"#utility.yul\":627:640   */\n          mload\n            /* \"#utility.yul\":618:640   */\n          swap1\n          pop\n            /* \"#utility.yul\":649:682   */\n          tag_26\n            /* \"#utility.yul\":676:681   */\n          dup2\n            /* \"#utility.yul\":649:682   */\n          tag_11\n          jump\t// in\n        tag_26:\n            /* \"#utility.yul\":545:688   */\n          swap3\n          swap2\n          pop\n          pop\n          jump\t// out\n            /* \"#utility.yul\":694:820   */\n        tag_13:\n            /* \"#utility.yul\":731:738   */\n          0x00\n            /* \"#utility.yul\":771:813   */\n          0xffffffffffffffffffffffffffffffffffffffff\n            /* \"#utility.yul\":764:769   */\n          dup3\n            /* \"#utility.yul\":760:814   */\n          and\n            /* \"#utility.yul\":749:814   */\n          swap1\n          pop\n            /* \"#utility.yul\":694:820   */\n          swap2\n          swap1\n          pop\n          jump\t// out\n            /* \"#utility.yul\":826:922   */\n        tag_14:\n            /* \"#utility.yul\":863:870   */\n          0x00\n            /* \"#utility.yul\":892:916   */\n          tag_29\n            /* \"#utility.yul\":910:915   */\n          dup3\n            /* \"#utility.yul\":892:916   */\n          tag_13\n          jump\t// in\n        tag_29:\n            /* \"#utility.yul\":881:916   */\n          swap1\n          pop\n            /* \"#utility.yul\":826:922   */\n          swap2\n          swap1\n          pop\n          jump\t// out\n            /* \"#utility.yul\":928:1050   */\n        tag_15:\n            /* \"#utility.yul\":1001:1025   */\n          tag_31\n            /* \"#utility.yul\":1019:1024   */\n          dup2\n            /* \"#utility.yul\":1001:1025   */\n          tag_14\n          jump\t// in\n        tag_31:\n            /* \"#utility.yul\":994:999   */\n          dup2\n            /* \"#utility.yul\":991:1026   */\n          eq\n            /* \"#utility.yul\":981:1044   */\n          tag_32\n          jumpi\n            /* \"#utility.yul\":1040:1041   */\n          0x00\n            /* \"#utility.yul\":1037:1038   */\n          dup1\n            /* \"#utility.yul\":1030:1042   */\n          revert\n            /* \"#utility.yul\":981:1044   */\n        tag_32:\n            /* \"#utility.yul\":928:1050   */\n          pop\n          jump\t// out\n            /* \"#utility.yul\":1056:1199   */\n        tag_16:\n            /* \"#utility.yul\":1113:1118   */\n          0x00\n            /* \"#utility.yul\":1144:1150   */\n          dup2\n            /* \"#utility.yul\":1138:1151   */\n          mload\n            /* \"#utility.yul\":1129:1151   */\n          swap1\n          pop\n            /* \"#utility.yul\":1160:1193   */\n          tag_34\n            /* \"#utility.yul\":1187:1192   */\n          dup2\n            /* \"#utility.yul\":1160:1193   */\n          tag_15\n          jump\t// in\n        tag_34:\n            /* \"#utility.yul\":1056:1199   */\n          swap3\n          swap2\n          pop\n          pop\n          jump\t// out\n            /* \"#utility.yul\":1205:1712   */\n        tag_3:\n            /* \"#utility.yul\":1284:1290   */\n          0x00\n            /* \"#utility.yul\":1292:1298   */\n          dup1\n            /* \"#utility.yul\":1341:1343   */\n          0x40\n            /* \"#utility.yul\":1329:1338   */\n          dup4\n            /* \"#utility.yul\":1320:1327   */\n          dup6\n            /* \"#utility.yul\":1316:1339   */\n          sub\n            /* \"#utility.yul\":1312:1344   */\n          slt\n            /* \"#utility.yul\":1309:1428   */\n          iszero\n          tag_36\n          jumpi\n            /* \"#utility.yul\":1347:1426   */\n          tag_37\n          tag_8\n          jump\t// in\n        tag_37:\n            /* \"#utility.yul\":1309:1428   */\n        tag_36:\n            /* \"#utility.yul\":1467:1468   */\n          0x00\n            /* \"#utility.yul\":1492:1556   */\n          tag_38\n            /* \"#utility.yul\":1548:1555   */\n          dup6\n            /* \"#utility.yul\":1539:1545   */\n          dup3\n            /* \"#utility.yul\":1528:1537   */\n          dup7\n            /* \"#utility.yul\":1524:1546   */\n          add\n            /* \"#utility.yul\":1492:1556   */\n          tag_12\n          jump\t// in\n        tag_38:\n            /* \"#utility.yul\":1482:1556   */\n          swap3\n          pop\n            /* \"#utility.yul\":1438:1566   */\n          pop\n            /* \"#utility.yul\":1605:1607   */\n          0x20\n            /* \"#utility.yul\":1631:1695   */\n          tag_39\n            /* \"#utility.yul\":1687:1694   */\n          dup6\n            /* \"#utility.yul\":1678:1684   */\n          dup3\n            /* \"#utility.yul\":1667:1676   */\n          dup7\n            /* \"#utility.yul\":1663:1685   */\n          add\n            /* \"#utility.yul\":1631:1695   */\n          tag_16\n          jump\t// in\n        tag_39:\n            /* \"#utility.yul\":1621:1695   */\n          swap2\n          pop\n            /* \"#utility.yul\":1576:1705   */\n          pop\n            /* \"#utility.yul\":1205:1712   */\n          swap3\n          pop\n          swap3\n          swap1\n          pop\n          jump\t// out\n            /* \"Campaign.sol\":426:2186  contract Campaign{... */\n        tag_6:\n          dataSize(sub_0)\n          dup1\n          dataOffset(sub_0)\n          0x00\n          codecopy\n          0x00\n          return\n        stop\n\n        sub_0: assembly {\n                /* \"Campaign.sol\":426:2186  contract Campaign{... */\n              mstore(0x40, 0x80)\n              jumpi(tag_1, lt(calldatasize, 0x04))\n              shr(0xe0, calldataload(0x00))\n              dup1\n              0x8a9cfd55\n              gt\n              tag_11\n              jumpi\n              dup1\n              0x8a9cfd55\n              eq\n              tag_6\n              jumpi\n              dup1\n              0x937e09b1\n              eq\n              tag_7\n              jumpi\n              dup1\n              0xd7bb99ba\n              eq\n              tag_8\n              jumpi\n              dup1\n              0xd7d1bbdb\n              eq\n              tag_9\n              jumpi\n              dup1\n              0xe7b668b4\n              eq\n              tag_10\n              jumpi\n              jump(tag_1)\n            tag_11:\n              dup1\n              0x0a144391\n              eq\n              tag_2\n              jumpi\n              dup1\n              0x481c6a75\n              eq\n              tag_3\n              jumpi\n              dup1\n              0x81d12c58\n              eq\n              tag_4\n              jumpi\n              dup1\n              0x82fde093\n              eq\n              tag_5\n              jumpi\n            tag_1:\n              0x00\n              dup1\n              revert\n                /* \"Campaign.sol\":736:777  mapping(address => bool) public approvers */\n            tag_2:\n              callvalue\n              dup1\n              iszero\n              tag_12\n              jumpi\n              0x00\n              dup1\n              revert\n            tag_12:\n              pop\n              tag_13\n              0x04\n              dup1\n              calldatasize\n              sub\n              dup2\n              add\n              swap1\n              tag_14\n              swap2\n              swap1\n              tag_15\n              jump\t// in\n            tag_14:\n              tag_16\n              jump\t// in\n            tag_13:\n              mload(0x40)\n              tag_17\n              swap2\n              swap1\n              tag_18\n              jump\t// in\n            tag_17:\n              mload(0x40)\n              dup1\n              swap2\n              sub\n              swap1\n              return\n                /* \"Campaign.sol\":708:730  address public manager */\n            tag_3:\n              callvalue\n              dup1\n              iszero\n              tag_19\n              jumpi\n              0x00\n              dup1\n              revert\n            tag_19:\n              pop\n              tag_20\n              tag_21\n              jump\t// in\n            tag_20:\n              mload(0x40)\n              tag_22\n              swap2\n              swap1\n              tag_23\n              jump\t// in\n            tag_22:\n              mload(0x40)\n              dup1\n              swap2\n              sub\n              swap1\n              return\n                /* \"Campaign.sol\":815:855  mapping(uint => Request) public requests */\n            tag_4:\n              callvalue\n              dup1\n              iszero\n              tag_24\n              jumpi\n              0x00\n              dup1\n              revert\n            tag_24:\n              pop\n              tag_25\n              0x04\n              dup1\n              calldatasize\n              sub\n              dup2\n              add\n              swap1\n              tag_26\n              swap2\n              swap1\n              tag_27\n              jump\t// in\n            tag_26:\n              tag_28\n              jump\t// in\n            tag_25:\n              mload(0x40)\n              tag_29\n              swap6\n              swap5\n              swap4\n              swap3\n              swap2\n              swap1\n              tag_30\n              jump\t// in\n            tag_29:\n              mload(0x40)\n              dup1\n              swap2\n              sub\n              swap1\n              return\n                /* \"Campaign.sol\":783:809  uint public approversCount */\n            tag_5:\n              callvalue\n              dup1\n              iszero\n              tag_31\n              jumpi\n              0x00\n              dup1\n              revert\n            tag_31:\n              pop\n              tag_32\n              tag_33\n              jump\t// in\n            tag_32:\n              mload(0x40)\n              tag_34\n              swap2\n              swap1\n              tag_35\n              jump\t// in\n            tag_34:\n              mload(0x40)\n              dup1\n              swap2\n              sub\n              swap1\n              return\n                /* \"Campaign.sol\":1248:1587  function createRequest(string memory description, uint value, address recipient) public restricted {... */\n            tag_6:\n              callvalue\n              dup1\n              iszero\n              tag_36\n              jumpi\n              0x00\n              dup1\n              revert\n            tag_36:\n              pop\n              tag_37\n              0x04\n              dup1\n              calldatasize\n              sub\n              dup2\n              add\n              swap1\n              tag_38\n              swap2\n              swap1\n              tag_39\n              jump\t// in\n            tag_38:\n              tag_40\n              jump\t// in\n            tag_37:\n              stop\n                /* \"Campaign.sol\":650:681  uint public minimumContribution */\n            tag_7:\n              callvalue\n              dup1\n              iszero\n              tag_41\n              jumpi\n              0x00\n              dup1\n              revert\n            tag_41:\n              pop\n              tag_42\n              tag_43\n              jump\t// in\n            tag_42:\n              mload(0x40)\n              tag_44\n              swap2\n              swap1\n              tag_35\n              jump\t// in\n            tag_44:\n              mload(0x40)\n              dup1\n              swap2\n              sub\n              swap1\n              return\n                /* \"Campaign.sol\":1086:1242  function contribute() public payable {... */\n            tag_8:\n              tag_45\n              tag_46\n              jump\t// in\n            tag_45:\n              stop\n                /* \"Campaign.sol\":1593:1860  function approveRequest(uint index)public {... */\n            tag_9:\n              callvalue\n              dup1\n              iszero\n              tag_47\n              jumpi\n              0x00\n              dup1\n              revert\n            tag_47:\n              pop\n              tag_48\n              0x04\n              dup1\n              calldatasize\n              sub\n              dup2\n              add\n              swap1\n              tag_49\n              swap2\n              swap1\n              tag_27\n              jump\t// in\n            tag_49:\n              tag_50\n              jump\t// in\n            tag_48:\n              stop\n                /* \"Campaign.sol\":1866:2184  function finaliseRequest(uint index)public  restricted{... */\n            tag_10:\n              callvalue\n              dup1\n              iszero\n              tag_51\n              jumpi\n              0x00\n              dup1\n              revert\n            tag_51:\n              pop\n              tag_52\n              0x04\n              dup1\n              calldatasize\n              sub\n              dup2\n              add\n              swap1\n              tag_53\n              swap2\n              swap1\n              tag_27\n              jump\t// in\n            tag_53:\n              tag_54\n              jump\t// in\n            tag_52:\n              stop\n                /* \"Campaign.sol\":736:777  mapping(address => bool) public approvers */\n            tag_16:\n              mstore(0x20, 0x03)\n              dup1\n              0x00\n              mstore\n              keccak256(0x00, 0x40)\n              0x00\n              swap2\n              pop\n              sload\n              swap1\n              0x0100\n              exp\n              swap1\n              div\n              0xff\n              and\n              dup2\n              jump\t// out\n                /* \"Campaign.sol\":708:730  address public manager */\n            tag_21:\n              0x02\n              0x00\n              swap1\n              sload\n              swap1\n              0x0100\n              exp\n              swap1\n              div\n              0xffffffffffffffffffffffffffffffffffffffff\n              and\n              dup2\n              jump\t// out\n                /* \"Campaign.sol\":815:855  mapping(uint => Request) public requests */\n            tag_28:\n              mstore(0x20, 0x05)\n              dup1\n              0x00\n              mstore\n              keccak256(0x00, 0x40)\n              0x00\n              swap2\n              pop\n              swap1\n              pop\n              dup1\n              0x00\n              add\n              dup1\n              sload\n              tag_55\n              swap1\n              tag_56\n              jump\t// in\n            tag_55:\n              dup1\n              0x1f\n              add\n              0x20\n              dup1\n              swap2\n              div\n              mul\n              0x20\n              add\n              mload(0x40)\n              swap1\n              dup2\n              add\n              0x40\n              mstore\n              dup1\n              swap3\n              swap2\n              swap1\n              dup2\n              dup2\n              mstore\n              0x20\n              add\n              dup3\n              dup1\n              sload\n              tag_57\n              swap1\n              tag_56\n              jump\t// in\n            tag_57:\n              dup1\n              iszero\n              tag_58\n              jumpi\n              dup1\n              0x1f\n              lt\n              tag_59\n              jumpi\n              0x0100\n              dup1\n              dup4\n              sload\n              div\n              mul\n              dup4\n              mstore\n              swap2\n              0x20\n              add\n              swap2\n              jump(tag_58)\n            tag_59:\n              dup3\n              add\n              swap2\n              swap1\n              0x00\n              mstore\n              keccak256(0x00, 0x20)\n              swap1\n            tag_60:\n              dup2\n              sload\n              dup2\n              mstore\n              swap1\n              0x01\n              add\n              swap1\n              0x20\n              add\n              dup1\n              dup4\n              gt\n              tag_60\n              jumpi\n              dup3\n              swap1\n              sub\n              0x1f\n              and\n              dup3\n              add\n              swap2\n            tag_58:\n              pop\n              pop\n              pop\n              pop\n              pop\n              swap1\n              dup1\n              0x01\n              add\n              sload\n              swap1\n              dup1\n              0x02\n              add\n              0x00\n              swap1\n              sload\n              swap1\n              0x0100\n              exp\n              swap1\n              div\n              0xffffffffffffffffffffffffffffffffffffffff\n              and\n              swap1\n              dup1\n              0x02\n              add\n              0x14\n              swap1\n              sload\n              swap1\n              0x0100\n              exp\n              swap1\n              div\n              0xff\n              and\n              swap1\n              dup1\n              0x03\n              add\n              sload\n              swap1\n              pop\n              dup6\n              jump\t// out\n                /* \"Campaign.sol\":783:809  uint public approversCount */\n            tag_33:\n              sload(0x04)\n              dup2\n              jump\t// out\n                /* \"Campaign.sol\":1248:1587  function createRequest(string memory description, uint value, address recipient) public restricted {... */\n            tag_40:\n                /* \"Campaign.sol\":925:932  manager */\n              0x02\n              0x00\n              swap1\n              sload\n              swap1\n              0x0100\n              exp\n              swap1\n              div\n              0xffffffffffffffffffffffffffffffffffffffff\n              and\n                /* \"Campaign.sol\":911:932  msg.sender == manager */\n              0xffffffffffffffffffffffffffffffffffffffff\n              and\n                /* \"Campaign.sol\":911:921  msg.sender */\n              caller\n                /* \"Campaign.sol\":911:932  msg.sender == manager */\n              0xffffffffffffffffffffffffffffffffffffffff\n              and\n              eq\n                /* \"Campaign.sol\":903:933  require(msg.sender == manager) */\n              tag_62\n              jumpi\n              0x00\n              dup1\n              revert\n            tag_62:\n                /* \"Campaign.sol\":1357:1380  Request storage request */\n              0x00\n                /* \"Campaign.sol\":1383:1391  requests */\n              0x05\n                /* \"Campaign.sol\":1383:1405  requests[numRequest++] */\n              0x00\n                /* \"Campaign.sol\":1392:1402  numRequest */\n              0x01\n              0x00\n                /* \"Campaign.sol\":1392:1404  numRequest++ */\n              dup2\n              sload\n              dup1\n              swap3\n              swap2\n              swap1\n              tag_64\n              swap1\n              tag_65\n              jump\t// in\n            tag_64:\n              swap2\n              swap1\n              pop\n              sstore\n                /* \"Campaign.sol\":1383:1405  requests[numRequest++] */\n              dup2\n              mstore\n              0x20\n              add\n              swap1\n              dup2\n              mstore\n              0x20\n              add\n              0x00\n              keccak256\n                /* \"Campaign.sol\":1357:1405  Request storage request = requests[numRequest++] */\n              swap1\n              pop\n                /* \"Campaign.sol\":1437:1448  description */\n              dup4\n                /* \"Campaign.sol\":1416:1423  request */\n              dup2\n                /* \"Campaign.sol\":1416:1435  request.description */\n              0x00\n              add\n                /* \"Campaign.sol\":1416:1448  request.description= description */\n              swap1\n              dup2\n              tag_66\n              swap2\n              swap1\n              tag_67\n              jump\t// in\n            tag_66:\n              pop\n                /* \"Campaign.sol\":1472:1477  value */\n              dup3\n                /* \"Campaign.sol\":1458:1465  request */\n              dup2\n                /* \"Campaign.sol\":1458:1471  request.value */\n              0x01\n              add\n                /* \"Campaign.sol\":1458:1477  request.value=value */\n              dup2\n              swap1\n              sstore\n              pop\n                /* \"Campaign.sol\":1505:1514  recipient */\n              dup2\n                /* \"Campaign.sol\":1487:1494  request */\n              dup2\n                /* \"Campaign.sol\":1487:1504  request.recipient */\n              0x02\n              add\n              0x00\n                /* \"Campaign.sol\":1487:1514  request.recipient=recipient */\n              0x0100\n              exp\n              dup2\n              sload\n              dup2\n              0xffffffffffffffffffffffffffffffffffffffff\n              mul\n              not\n              and\n              swap1\n              dup4\n              0xffffffffffffffffffffffffffffffffffffffff\n              and\n              mul\n              or\n              swap1\n              sstore\n              pop\n                /* \"Campaign.sol\":1541:1546  false */\n              0x00\n                /* \"Campaign.sol\":1524:1531  request */\n              dup2\n                /* \"Campaign.sol\":1524:1540  request.complete */\n              0x02\n              add\n              0x14\n                /* \"Campaign.sol\":1524:1546  request.complete=false */\n              0x0100\n              exp\n              dup2\n              sload\n              dup2\n              0xff\n              mul\n              not\n              and\n              swap1\n              dup4\n              iszero\n              iszero\n              mul\n              or\n              swap1\n              sstore\n              pop\n                /* \"Campaign.sol\":1578:1579  0 */\n              0x00\n                /* \"Campaign.sol\":1556:1563  request */\n              dup2\n                /* \"Campaign.sol\":1556:1577  request.approvalCount */\n              0x03\n              add\n                /* \"Campaign.sol\":1556:1579  request.approvalCount=0 */\n              dup2\n              swap1\n              sstore\n              pop\n                /* \"Campaign.sol\":1347:1587  {... */\n              pop\n                /* \"Campaign.sol\":1248:1587  function createRequest(string memory description, uint value, address recipient) public restricted {... */\n              pop\n              pop\n              pop\n              jump\t// out\n                /* \"Campaign.sol\":650:681  uint public minimumContribution */\n            tag_43:\n              sload(0x00)\n              dup2\n              jump\t// out\n                /* \"Campaign.sol\":1086:1242  function contribute() public payable {... */\n            tag_46:\n                /* \"Campaign.sol\":1153:1172  minimumContribution */\n              sload(0x00)\n                /* \"Campaign.sol\":1141:1150  msg.value */\n              callvalue\n                /* \"Campaign.sol\":1141:1172  msg.value > minimumContribution */\n              gt\n                /* \"Campaign.sol\":1133:1173  require(msg.value > minimumContribution) */\n              tag_69\n              jumpi\n              0x00\n              dup1\n              revert\n            tag_69:\n                /* \"Campaign.sol\":1205:1209  true */\n              0x01\n                /* \"Campaign.sol\":1183:1192  approvers */\n              0x03\n                /* \"Campaign.sol\":1183:1204  approvers[msg.sender] */\n              0x00\n                /* \"Campaign.sol\":1193:1203  msg.sender */\n              caller\n                /* \"Campaign.sol\":1183:1204  approvers[msg.sender] */\n              0xffffffffffffffffffffffffffffffffffffffff\n              and\n              0xffffffffffffffffffffffffffffffffffffffff\n              and\n              dup2\n              mstore\n              0x20\n              add\n              swap1\n              dup2\n              mstore\n              0x20\n              add\n              0x00\n              keccak256\n              0x00\n                /* \"Campaign.sol\":1183:1209  approvers[msg.sender]=true */\n              0x0100\n              exp\n              dup2\n              sload\n              dup2\n              0xff\n              mul\n              not\n              and\n              swap1\n              dup4\n              iszero\n              iszero\n              mul\n              or\n              swap1\n              sstore\n              pop\n                /* \"Campaign.sol\":1219:1233  approversCount */\n              0x04\n              0x00\n                /* \"Campaign.sol\":1219:1235  approversCount++ */\n              dup2\n              sload\n              dup1\n              swap3\n              swap2\n              swap1\n              tag_70\n              swap1\n              tag_65\n              jump\t// in\n            tag_70:\n              swap2\n              swap1\n              pop\n              sstore\n              pop\n                /* \"Campaign.sol\":1086:1242  function contribute() public payable {... */\n              jump\t// out\n                /* \"Campaign.sol\":1593:1860  function approveRequest(uint index)public {... */\n            tag_50:\n                /* \"Campaign.sol\":1645:1668  Request storage request */\n              0x00\n                /* \"Campaign.sol\":1671:1679  requests */\n              0x05\n                /* \"Campaign.sol\":1671:1686  requests[index] */\n              0x00\n                /* \"Campaign.sol\":1680:1685  index */\n              dup4\n                /* \"Campaign.sol\":1671:1686  requests[index] */\n              dup2\n              mstore\n              0x20\n              add\n              swap1\n              dup2\n              mstore\n              0x20\n              add\n              0x00\n              keccak256\n                /* \"Campaign.sol\":1645:1686  Request storage request = requests[index] */\n              swap1\n              pop\n                /* \"Campaign.sol\":1704:1713  approvers */\n              0x03\n                /* \"Campaign.sol\":1704:1725  approvers[msg.sender] */\n              0x00\n                /* \"Campaign.sol\":1714:1724  msg.sender */\n              caller\n                /* \"Campaign.sol\":1704:1725  approvers[msg.sender] */\n              0xffffffffffffffffffffffffffffffffffffffff\n              and\n              0xffffffffffffffffffffffffffffffffffffffff\n              and\n              dup2\n              mstore\n              0x20\n              add\n              swap1\n              dup2\n              mstore\n              0x20\n              add\n              0x00\n              keccak256\n              0x00\n              swap1\n              sload\n              swap1\n              0x0100\n              exp\n              swap1\n              div\n              0xff\n              and\n                /* \"Campaign.sol\":1696:1726  require(approvers[msg.sender]) */\n              tag_72\n              jumpi\n              0x00\n              dup1\n              revert\n            tag_72:\n                /* \"Campaign.sol\":1745:1752  request */\n              dup1\n                /* \"Campaign.sol\":1745:1762  request.approvals */\n              0x04\n              add\n                /* \"Campaign.sol\":1745:1774  request.approvals[msg.sender] */\n              0x00\n                /* \"Campaign.sol\":1763:1773  msg.sender */\n              caller\n                /* \"Campaign.sol\":1745:1774  request.approvals[msg.sender] */\n              0xffffffffffffffffffffffffffffffffffffffff\n              and\n              0xffffffffffffffffffffffffffffffffffffffff\n              and\n              dup2\n              mstore\n              0x20\n              add\n              swap1\n              dup2\n              mstore\n              0x20\n              add\n              0x00\n              keccak256\n              0x00\n              swap1\n              sload\n              swap1\n              0x0100\n              exp\n              swap1\n              div\n              0xff\n              and\n                /* \"Campaign.sol\":1744:1774  !request.approvals[msg.sender] */\n              iszero\n                /* \"Campaign.sol\":1736:1775  require(!request.approvals[msg.sender]) */\n              tag_73\n              jumpi\n              0x00\n              dup1\n              revert\n            tag_73:\n                /* \"Campaign.sol\":1816:1820  true */\n              0x01\n                /* \"Campaign.sol\":1786:1793  request */\n              dup2\n                /* \"Campaign.sol\":1786:1803  request.approvals */\n              0x04\n              add\n                /* \"Campaign.sol\":1786:1815  request.approvals[msg.sender] */\n              0x00\n                /* \"Campaign.sol\":1804:1814  msg.sender */\n              caller\n                /* \"Campaign.sol\":1786:1815  request.approvals[msg.sender] */\n              0xffffffffffffffffffffffffffffffffffffffff\n              and\n              0xffffffffffffffffffffffffffffffffffffffff\n              and\n              dup2\n              mstore\n              0x20\n              add\n              swap1\n              dup2\n              mstore\n              0x20\n              add\n              0x00\n              keccak256\n              0x00\n                /* \"Campaign.sol\":1786:1820  request.approvals[msg.sender]=true */\n              0x0100\n              exp\n              dup2\n              sload\n              dup2\n              0xff\n              mul\n              not\n              and\n              swap1\n              dup4\n              iszero\n              iszero\n              mul\n              or\n              swap1\n              sstore\n              pop\n                /* \"Campaign.sol\":1830:1837  request */\n              dup1\n                /* \"Campaign.sol\":1830:1851  request.approvalCount */\n              0x03\n              add\n              0x00\n                /* \"Campaign.sol\":1830:1853  request.approvalCount++ */\n              dup2\n              sload\n              dup1\n              swap3\n              swap2\n              swap1\n              tag_74\n              swap1\n              tag_65\n              jump\t// in\n            tag_74:\n              swap2\n              swap1\n              pop\n              sstore\n              pop\n                /* \"Campaign.sol\":1635:1860  {... */\n              pop\n                /* \"Campaign.sol\":1593:1860  function approveRequest(uint index)public {... */\n              pop\n              jump\t// out\n                /* \"Campaign.sol\":1866:2184  function finaliseRequest(uint index)public  restricted{... */\n            tag_54:\n                /* \"Campaign.sol\":925:932  manager */\n              0x02\n              0x00\n              swap1\n              sload\n              swap1\n              0x0100\n              exp\n              swap1\n              div\n              0xffffffffffffffffffffffffffffffffffffffff\n              and\n                /* \"Campaign.sol\":911:932  msg.sender == manager */\n              0xffffffffffffffffffffffffffffffffffffffff\n              and\n                /* \"Campaign.sol\":911:921  msg.sender */\n              caller\n                /* \"Campaign.sol\":911:932  msg.sender == manager */\n              0xffffffffffffffffffffffffffffffffffffffff\n              and\n              eq\n                /* \"Campaign.sol\":903:933  require(msg.sender == manager) */\n              tag_76\n              jumpi\n              0x00\n              dup1\n              revert\n            tag_76:\n                /* \"Campaign.sol\":1866:2184  function finaliseRequest(uint index)public  restricted{... */\n              pop\n              jump\t// out\n                /* \"#utility.yul\":7:82   */\n            tag_78:\n                /* \"#utility.yul\":40:46   */\n              0x00\n                /* \"#utility.yul\":73:75   */\n              0x40\n                /* \"#utility.yul\":67:76   */\n              mload\n                /* \"#utility.yul\":57:76   */\n              swap1\n              pop\n                /* \"#utility.yul\":7:82   */\n              swap1\n              jump\t// out\n                /* \"#utility.yul\":88:205   */\n            tag_79:\n                /* \"#utility.yul\":197:198   */\n              0x00\n                /* \"#utility.yul\":194:195   */\n              dup1\n                /* \"#utility.yul\":187:199   */\n              revert\n                /* \"#utility.yul\":211:328   */\n            tag_80:\n                /* \"#utility.yul\":320:321   */\n              0x00\n                /* \"#utility.yul\":317:318   */\n              dup1\n                /* \"#utility.yul\":310:322   */\n              revert\n                /* \"#utility.yul\":334:460   */\n            tag_81:\n                /* \"#utility.yul\":371:378   */\n              0x00\n                /* \"#utility.yul\":411:453   */\n              0xffffffffffffffffffffffffffffffffffffffff\n                /* \"#utility.yul\":404:409   */\n              dup3\n                /* \"#utility.yul\":400:454   */\n              and\n                /* \"#utility.yul\":389:454   */\n              swap1\n              pop\n                /* \"#utility.yul\":334:460   */\n              swap2\n              swap1\n              pop\n              jump\t// out\n                /* \"#utility.yul\":466:562   */\n            tag_82:\n                /* \"#utility.yul\":503:510   */\n              0x00\n                /* \"#utility.yul\":532:556   */\n              tag_129\n                /* \"#utility.yul\":550:555   */\n              dup3\n                /* \"#utility.yul\":532:556   */\n              tag_81\n              jump\t// in\n            tag_129:\n                /* \"#utility.yul\":521:556   */\n              swap1\n              pop\n                /* \"#utility.yul\":466:562   */\n              swap2\n              swap1\n              pop\n              jump\t// out\n                /* \"#utility.yul\":568:690   */\n            tag_83:\n                /* \"#utility.yul\":641:665   */\n              tag_131\n                /* \"#utility.yul\":659:664   */\n              dup2\n                /* \"#utility.yul\":641:665   */\n              tag_82\n              jump\t// in\n            tag_131:\n                /* \"#utility.yul\":634:639   */\n              dup2\n                /* \"#utility.yul\":631:666   */\n              eq\n                /* \"#utility.yul\":621:684   */\n              tag_132\n              jumpi\n                /* \"#utility.yul\":680:681   */\n              0x00\n                /* \"#utility.yul\":677:678   */\n              dup1\n                /* \"#utility.yul\":670:682   */\n              revert\n                /* \"#utility.yul\":621:684   */\n            tag_132:\n                /* \"#utility.yul\":568:690   */\n              pop\n              jump\t// out\n                /* \"#utility.yul\":696:835   */\n            tag_84:\n                /* \"#utility.yul\":742:747   */\n              0x00\n                /* \"#utility.yul\":780:786   */\n              dup2\n                /* \"#utility.yul\":767:787   */\n              calldataload\n                /* \"#utility.yul\":758:787   */\n              swap1\n              pop\n                /* \"#utility.yul\":796:829   */\n              tag_134\n                /* \"#utility.yul\":823:828   */\n              dup2\n                /* \"#utility.yul\":796:829   */\n              tag_83\n              jump\t// in\n            tag_134:\n                /* \"#utility.yul\":696:835   */\n              swap3\n              swap2\n              pop\n              pop\n              jump\t// out\n                /* \"#utility.yul\":841:1170   */\n            tag_15:\n                /* \"#utility.yul\":900:906   */\n              0x00\n                /* \"#utility.yul\":949:951   */\n              0x20\n                /* \"#utility.yul\":937:946   */\n              dup3\n                /* \"#utility.yul\":928:935   */\n              dup5\n                /* \"#utility.yul\":924:947   */\n              sub\n                /* \"#utility.yul\":920:952   */\n              slt\n                /* \"#utility.yul\":917:1036   */\n              iszero\n              tag_136\n              jumpi\n                /* \"#utility.yul\":955:1034   */\n              tag_137\n              tag_79\n              jump\t// in\n            tag_137:\n                /* \"#utility.yul\":917:1036   */\n            tag_136:\n                /* \"#utility.yul\":1075:1076   */\n              0x00\n                /* \"#utility.yul\":1100:1153   */\n              tag_138\n                /* \"#utility.yul\":1145:1152   */\n              dup5\n                /* \"#utility.yul\":1136:1142   */\n              dup3\n                /* \"#utility.yul\":1125:1134   */\n              dup6\n                /* \"#utility.yul\":1121:1143   */\n              add\n                /* \"#utility.yul\":1100:1153   */\n              tag_84\n              jump\t// in\n            tag_138:\n                /* \"#utility.yul\":1090:1153   */\n              swap2\n              pop\n                /* \"#utility.yul\":1046:1163   */\n              pop\n                /* \"#utility.yul\":841:1170   */\n              swap3\n              swap2\n              pop\n              pop\n              jump\t// out\n                /* \"#utility.yul\":1176:1266   */\n            tag_85:\n                /* \"#utility.yul\":1210:1217   */\n              0x00\n                /* \"#utility.yul\":1253:1258   */\n              dup2\n                /* \"#utility.yul\":1246:1259   */\n              iszero\n                /* \"#utility.yul\":1239:1260   */\n              iszero\n                /* \"#utility.yul\":1228:1260   */\n              swap1\n              pop\n                /* \"#utility.yul\":1176:1266   */\n              swap2\n              swap1\n              pop\n              jump\t// out\n                /* \"#utility.yul\":1272:1381   */\n            tag_86:\n                /* \"#utility.yul\":1353:1374   */\n              tag_141\n                /* \"#utility.yul\":1368:1373   */\n              dup2\n                /* \"#utility.yul\":1353:1374   */\n              tag_85\n              jump\t// in\n            tag_141:\n                /* \"#utility.yul\":1348:1351   */\n              dup3\n                /* \"#utility.yul\":1341:1375   */\n              mstore\n                /* \"#utility.yul\":1272:1381   */\n              pop\n              pop\n              jump\t// out\n                /* \"#utility.yul\":1387:1597   */\n            tag_18:\n                /* \"#utility.yul\":1474:1478   */\n              0x00\n                /* \"#utility.yul\":1512:1514   */\n              0x20\n                /* \"#utility.yul\":1501:1510   */\n              dup3\n                /* \"#utility.yul\":1497:1515   */\n              add\n                /* \"#utility.yul\":1489:1515   */\n              swap1\n              pop\n                /* \"#utility.yul\":1525:1590   */\n              tag_143\n                /* \"#utility.yul\":1587:1588   */\n              0x00\n                /* \"#utility.yul\":1576:1585   */\n              dup4\n                /* \"#utility.yul\":1572:1589   */\n              add\n                /* \"#utility.yul\":1563:1569   */\n              dup5\n                /* \"#utility.yul\":1525:1590   */\n              tag_86\n              jump\t// in\n            tag_143:\n                /* \"#utility.yul\":1387:1597   */\n              swap3\n              swap2\n              pop\n              pop\n              jump\t// out\n                /* \"#utility.yul\":1603:1721   */\n            tag_87:\n                /* \"#utility.yul\":1690:1714   */\n              tag_145\n                /* \"#utility.yul\":1708:1713   */\n              dup2\n                /* \"#utility.yul\":1690:1714   */\n              tag_82\n              jump\t// in\n            tag_145:\n                /* \"#utility.yul\":1685:1688   */\n              dup3\n                /* \"#utility.yul\":1678:1715   */\n              mstore\n                /* \"#utility.yul\":1603:1721   */\n              pop\n              pop\n              jump\t// out\n                /* \"#utility.yul\":1727:1949   */\n            tag_23:\n                /* \"#utility.yul\":1820:1824   */\n              0x00\n                /* \"#utility.yul\":1858:1860   */\n              0x20\n                /* \"#utility.yul\":1847:1856   */\n              dup3\n                /* \"#utility.yul\":1843:1861   */\n              add\n                /* \"#utility.yul\":1835:1861   */\n              swap1\n              pop\n                /* \"#utility.yul\":1871:1942   */\n              tag_147\n                /* \"#utility.yul\":1939:1940   */\n              0x00\n                /* \"#utility.yul\":1928:1937   */\n              dup4\n                /* \"#utility.yul\":1924:1941   */\n              add\n                /* \"#utility.yul\":1915:1921   */\n              dup5\n                /* \"#utility.yul\":1871:1942   */\n              tag_87\n              jump\t// in\n            tag_147:\n                /* \"#utility.yul\":1727:1949   */\n              swap3\n              swap2\n              pop\n              pop\n              jump\t// out\n                /* \"#utility.yul\":1955:2032   */\n            tag_88:\n                /* \"#utility.yul\":1992:1999   */\n              0x00\n                /* \"#utility.yul\":2021:2026   */\n              dup2\n                /* \"#utility.yul\":2010:2026   */\n              swap1\n              pop\n                /* \"#utility.yul\":1955:2032   */\n              swap2\n              swap1\n              pop\n              jump\t// out\n                /* \"#utility.yul\":2038:2160   */\n            tag_89:\n                /* \"#utility.yul\":2111:2135   */\n              tag_150\n                /* \"#utility.yul\":2129:2134   */\n              dup2\n                /* \"#utility.yul\":2111:2135   */\n              tag_88\n              jump\t// in\n            tag_150:\n                /* \"#utility.yul\":2104:2109   */\n              dup2\n                /* \"#utility.yul\":2101:2136   */\n              eq\n                /* \"#utility.yul\":2091:2154   */\n              tag_151\n              jumpi\n                /* \"#utility.yul\":2150:2151   */\n              0x00\n                /* \"#utility.yul\":2147:2148   */\n              dup1\n                /* \"#utility.yul\":2140:2152   */\n              revert\n                /* \"#utility.yul\":2091:2154   */\n            tag_151:\n                /* \"#utility.yul\":2038:2160   */\n              pop\n              jump\t// out\n                /* \"#utility.yul\":2166:2305   */\n            tag_90:\n                /* \"#utility.yul\":2212:2217   */\n              0x00\n                /* \"#utility.yul\":2250:2256   */\n              dup2\n                /* \"#utility.yul\":2237:2257   */\n              calldataload\n                /* \"#utility.yul\":2228:2257   */\n              swap1\n              pop\n                /* \"#utility.yul\":2266:2299   */\n              tag_153\n                /* \"#utility.yul\":2293:2298   */\n              dup2\n                /* \"#utility.yul\":2266:2299   */\n              tag_89\n              jump\t// in\n            tag_153:\n                /* \"#utility.yul\":2166:2305   */\n              swap3\n              swap2\n              pop\n              pop\n              jump\t// out\n                /* \"#utility.yul\":2311:2640   */\n            tag_27:\n                /* \"#utility.yul\":2370:2376   */\n              0x00\n                /* \"#utility.yul\":2419:2421   */\n              0x20\n                /* \"#utility.yul\":2407:2416   */\n              dup3\n                /* \"#utility.yul\":2398:2405   */\n              dup5\n                /* \"#utility.yul\":2394:2417   */\n              sub\n                /* \"#utility.yul\":2390:2422   */\n              slt\n                /* \"#utility.yul\":2387:2506   */\n              iszero\n              tag_155\n              jumpi\n                /* \"#utility.yul\":2425:2504   */\n              tag_156\n              tag_79\n              jump\t// in\n            tag_156:\n                /* \"#utility.yul\":2387:2506   */\n            tag_155:\n                /* \"#utility.yul\":2545:2546   */\n              0x00\n                /* \"#utility.yul\":2570:2623   */\n              tag_157\n                /* \"#utility.yul\":2615:2622   */\n              dup5\n                /* \"#utility.yul\":2606:2612   */\n              dup3\n                /* \"#utility.yul\":2595:2604   */\n              dup6\n                /* \"#utility.yul\":2591:2613   */\n              add\n                /* \"#utility.yul\":2570:2623   */\n              tag_90\n              jump\t// in\n            tag_157:\n                /* \"#utility.yul\":2560:2623   */\n              swap2\n              pop\n                /* \"#utility.yul\":2516:2633   */\n              pop\n                /* \"#utility.yul\":2311:2640   */\n              swap3\n              swap2\n              pop\n              pop\n              jump\t// out\n                /* \"#utility.yul\":2646:2745   */\n            tag_91:\n                /* \"#utility.yul\":2698:2704   */\n              0x00\n                /* \"#utility.yul\":2732:2737   */\n              dup2\n                /* \"#utility.yul\":2726:2738   */\n              mload\n                /* \"#utility.yul\":2716:2738   */\n              swap1\n              pop\n                /* \"#utility.yul\":2646:2745   */\n              swap2\n              swap1\n              pop\n              jump\t// out\n                /* \"#utility.yul\":2751:2920   */\n            tag_92:\n                /* \"#utility.yul\":2835:2846   */\n              0x00\n                /* \"#utility.yul\":2869:2875   */\n              dup3\n                /* \"#utility.yul\":2864:2867   */\n              dup3\n                /* \"#utility.yul\":2857:2876   */\n              mstore\n                /* \"#utility.yul\":2909:2913   */\n              0x20\n                /* \"#utility.yul\":2904:2907   */\n              dup3\n                /* \"#utility.yul\":2900:2914   */\n              add\n                /* \"#utility.yul\":2885:2914   */\n              swap1\n              pop\n                /* \"#utility.yul\":2751:2920   */\n              swap3\n              swap2\n              pop\n              pop\n              jump\t// out\n                /* \"#utility.yul\":2926:3172   */\n            tag_93:\n                /* \"#utility.yul\":3007:3008   */\n              0x00\n                /* \"#utility.yul\":3017:3130   */\n            tag_161:\n                /* \"#utility.yul\":3031:3037   */\n              dup4\n                /* \"#utility.yul\":3028:3029   */\n              dup2\n                /* \"#utility.yul\":3025:3038   */\n              lt\n                /* \"#utility.yul\":3017:3130   */\n              iszero\n              tag_163\n              jumpi\n                /* \"#utility.yul\":3116:3117   */\n              dup1\n                /* \"#utility.yul\":3111:3114   */\n              dup3\n                /* \"#utility.yul\":3107:3118   */\n              add\n                /* \"#utility.yul\":3101:3119   */\n              mload\n                /* \"#utility.yul\":3097:3098   */\n              dup2\n                /* \"#utility.yul\":3092:3095   */\n              dup5\n                /* \"#utility.yul\":3088:3099   */\n              add\n                /* \"#utility.yul\":3081:3120   */\n              mstore\n                /* \"#utility.yul\":3053:3055   */\n              0x20\n                /* \"#utility.yul\":3050:3051   */\n              dup2\n                /* \"#utility.yul\":3046:3056   */\n              add\n                /* \"#utility.yul\":3041:3056   */\n              swap1\n              pop\n                /* \"#utility.yul\":3017:3130   */\n              jump(tag_161)\n            tag_163:\n                /* \"#utility.yul\":3164:3165   */\n              0x00\n                /* \"#utility.yul\":3155:3161   */\n              dup5\n                /* \"#utility.yul\":3150:3153   */\n              dup5\n                /* \"#utility.yul\":3146:3162   */\n              add\n                /* \"#utility.yul\":3139:3166   */\n              mstore\n                /* \"#utility.yul\":2988:3172   */\n              pop\n                /* \"#utility.yul\":2926:3172   */\n              pop\n              pop\n              pop\n              jump\t// out\n                /* \"#utility.yul\":3178:3280   */\n            tag_94:\n                /* \"#utility.yul\":3219:3225   */\n              0x00\n                /* \"#utility.yul\":3270:3272   */\n              0x1f\n                /* \"#utility.yul\":3266:3273   */\n              not\n                /* \"#utility.yul\":3261:3263   */\n              0x1f\n                /* \"#utility.yul\":3254:3259   */\n              dup4\n                /* \"#utility.yul\":3250:3264   */\n              add\n                /* \"#utility.yul\":3246:3274   */\n              and\n                /* \"#utility.yul\":3236:3274   */\n              swap1\n              pop\n                /* \"#utility.yul\":3178:3280   */\n              swap2\n              swap1\n              pop\n              jump\t// out\n                /* \"#utility.yul\":3286:3663   */\n            tag_95:\n                /* \"#utility.yul\":3374:3377   */\n              0x00\n                /* \"#utility.yul\":3402:3441   */\n              tag_166\n                /* \"#utility.yul\":3435:3440   */\n              dup3\n                /* \"#utility.yul\":3402:3441   */\n              tag_91\n              jump\t// in\n            tag_166:\n                /* \"#utility.yul\":3457:3528   */\n              tag_167\n                /* \"#utility.yul\":3521:3527   */\n              dup2\n                /* \"#utility.yul\":3516:3519   */\n              dup6\n                /* \"#utility.yul\":3457:3528   */\n              tag_92\n              jump\t// in\n            tag_167:\n                /* \"#utility.yul\":3450:3528   */\n              swap4\n              pop\n                /* \"#utility.yul\":3537:3602   */\n              tag_168\n                /* \"#utility.yul\":3595:3601   */\n              dup2\n                /* \"#utility.yul\":3590:3593   */\n              dup6\n                /* \"#utility.yul\":3583:3587   */\n              0x20\n                /* \"#utility.yul\":3576:3581   */\n              dup7\n                /* \"#utility.yul\":3572:3588   */\n              add\n                /* \"#utility.yul\":3537:3602   */\n              tag_93\n              jump\t// in\n            tag_168:\n                /* \"#utility.yul\":3627:3656   */\n              tag_169\n                /* \"#utility.yul\":3649:3655   */\n              dup2\n                /* \"#utility.yul\":3627:3656   */\n              tag_94\n              jump\t// in\n            tag_169:\n                /* \"#utility.yul\":3622:3625   */\n              dup5\n                /* \"#utility.yul\":3618:3657   */\n              add\n                /* \"#utility.yul\":3611:3657   */\n              swap2\n              pop\n                /* \"#utility.yul\":3378:3663   */\n              pop\n                /* \"#utility.yul\":3286:3663   */\n              swap3\n              swap2\n              pop\n              pop\n              jump\t// out\n                /* \"#utility.yul\":3669:3787   */\n            tag_96:\n                /* \"#utility.yul\":3756:3780   */\n              tag_171\n                /* \"#utility.yul\":3774:3779   */\n              dup2\n                /* \"#utility.yul\":3756:3780   */\n              tag_88\n              jump\t// in\n            tag_171:\n                /* \"#utility.yul\":3751:3754   */\n              dup3\n                /* \"#utility.yul\":3744:3781   */\n              mstore\n                /* \"#utility.yul\":3669:3787   */\n              pop\n              pop\n              jump\t// out\n                /* \"#utility.yul\":3793:4536   */\n            tag_30:\n                /* \"#utility.yul\":4012:4016   */\n              0x00\n                /* \"#utility.yul\":4050:4053   */\n              0xa0\n                /* \"#utility.yul\":4039:4048   */\n              dup3\n                /* \"#utility.yul\":4035:4054   */\n              add\n                /* \"#utility.yul\":4027:4054   */\n              swap1\n              pop\n                /* \"#utility.yul\":4100:4109   */\n              dup2\n                /* \"#utility.yul\":4094:4098   */\n              dup2\n                /* \"#utility.yul\":4090:4110   */\n              sub\n                /* \"#utility.yul\":4086:4087   */\n              0x00\n                /* \"#utility.yul\":4075:4084   */\n              dup4\n                /* \"#utility.yul\":4071:4088   */\n              add\n                /* \"#utility.yul\":4064:4111   */\n              mstore\n                /* \"#utility.yul\":4128:4206   */\n              tag_173\n                /* \"#utility.yul\":4201:4205   */\n              dup2\n                /* \"#utility.yul\":4192:4198   */\n              dup9\n                /* \"#utility.yul\":4128:4206   */\n              tag_95\n              jump\t// in\n            tag_173:\n                /* \"#utility.yul\":4120:4206   */\n              swap1\n              pop\n                /* \"#utility.yul\":4216:4288   */\n              tag_174\n                /* \"#utility.yul\":4284:4286   */\n              0x20\n                /* \"#utility.yul\":4273:4282   */\n              dup4\n                /* \"#utility.yul\":4269:4287   */\n              add\n                /* \"#utility.yul\":4260:4266   */\n              dup8\n                /* \"#utility.yul\":4216:4288   */\n              tag_96\n              jump\t// in\n            tag_174:\n                /* \"#utility.yul\":4298:4370   */\n              tag_175\n                /* \"#utility.yul\":4366:4368   */\n              0x40\n                /* \"#utility.yul\":4355:4364   */\n              dup4\n                /* \"#utility.yul\":4351:4369   */\n              add\n                /* \"#utility.yul\":4342:4348   */\n              dup7\n                /* \"#utility.yul\":4298:4370   */\n              tag_87\n              jump\t// in\n            tag_175:\n                /* \"#utility.yul\":4380:4446   */\n              tag_176\n                /* \"#utility.yul\":4442:4444   */\n              0x60\n                /* \"#utility.yul\":4431:4440   */\n              dup4\n                /* \"#utility.yul\":4427:4445   */\n              add\n                /* \"#utility.yul\":4418:4424   */\n              dup6\n                /* \"#utility.yul\":4380:4446   */\n              tag_86\n              jump\t// in\n            tag_176:\n                /* \"#utility.yul\":4456:4529   */\n              tag_177\n                /* \"#utility.yul\":4524:4527   */\n              0x80\n                /* \"#utility.yul\":4513:4522   */\n              dup4\n                /* \"#utility.yul\":4509:4528   */\n              add\n                /* \"#utility.yul\":4500:4506   */\n              dup5\n                /* \"#utility.yul\":4456:4529   */\n              tag_96\n              jump\t// in\n            tag_177:\n                /* \"#utility.yul\":3793:4536   */\n              swap7\n              swap6\n              pop\n              pop\n              pop\n              pop\n              pop\n              pop\n              jump\t// out\n                /* \"#utility.yul\":4542:4764   */\n            tag_35:\n                /* \"#utility.yul\":4635:4639   */\n              0x00\n                /* \"#utility.yul\":4673:4675   */\n              0x20\n                /* \"#utility.yul\":4662:4671   */\n              dup3\n                /* \"#utility.yul\":4658:4676   */\n              add\n                /* \"#utility.yul\":4650:4676   */\n              swap1\n              pop\n                /* \"#utility.yul\":4686:4757   */\n              tag_179\n                /* \"#utility.yul\":4754:4755   */\n              0x00\n                /* \"#utility.yul\":4743:4752   */\n              dup4\n                /* \"#utility.yul\":4739:4756   */\n              add\n                /* \"#utility.yul\":4730:4736   */\n              dup5\n                /* \"#utility.yul\":4686:4757   */\n              tag_96\n              jump\t// in\n            tag_179:\n                /* \"#utility.yul\":4542:4764   */\n              swap3\n              swap2\n              pop\n              pop\n              jump\t// out\n                /* \"#utility.yul\":4770:4887   */\n            tag_97:\n                /* \"#utility.yul\":4879:4880   */\n              0x00\n                /* \"#utility.yul\":4876:4877   */\n              dup1\n                /* \"#utility.yul\":4869:4881   */\n              revert\n                /* \"#utility.yul\":4893:5010   */\n            tag_98:\n                /* \"#utility.yul\":5002:5003   */\n              0x00\n                /* \"#utility.yul\":4999:5000   */\n              dup1\n                /* \"#utility.yul\":4992:5004   */\n              revert\n                /* \"#utility.yul\":5016:5196   */\n            tag_99:\n                /* \"#utility.yul\":5064:5141   */\n              0x4e487b7100000000000000000000000000000000000000000000000000000000\n                /* \"#utility.yul\":5061:5062   */\n              0x00\n                /* \"#utility.yul\":5054:5142   */\n              mstore\n                /* \"#utility.yul\":5161:5165   */\n              0x41\n                /* \"#utility.yul\":5158:5159   */\n              0x04\n                /* \"#utility.yul\":5151:5166   */\n              mstore\n                /* \"#utility.yul\":5185:5189   */\n              0x24\n                /* \"#utility.yul\":5182:5183   */\n              0x00\n                /* \"#utility.yul\":5175:5190   */\n              revert\n                /* \"#utility.yul\":5202:5483   */\n            tag_100:\n                /* \"#utility.yul\":5285:5312   */\n              tag_184\n                /* \"#utility.yul\":5307:5311   */\n              dup3\n                /* \"#utility.yul\":5285:5312   */\n              tag_94\n              jump\t// in\n            tag_184:\n                /* \"#utility.yul\":5277:5283   */\n              dup2\n                /* \"#utility.yul\":5273:5313   */\n              add\n                /* \"#utility.yul\":5415:5421   */\n              dup2\n                /* \"#utility.yul\":5403:5413   */\n              dup2\n                /* \"#utility.yul\":5400:5422   */\n              lt\n                /* \"#utility.yul\":5379:5397   */\n              0xffffffffffffffff\n                /* \"#utility.yul\":5367:5377   */\n              dup3\n                /* \"#utility.yul\":5364:5398   */\n              gt\n                /* \"#utility.yul\":5361:5423   */\n              or\n                /* \"#utility.yul\":5358:5446   */\n              iszero\n              tag_185\n              jumpi\n                /* \"#utility.yul\":5426:5444   */\n              tag_186\n              tag_99\n              jump\t// in\n            tag_186:\n                /* \"#utility.yul\":5358:5446   */\n            tag_185:\n                /* \"#utility.yul\":5466:5476   */\n              dup1\n                /* \"#utility.yul\":5462:5464   */\n              0x40\n                /* \"#utility.yul\":5455:5477   */\n              mstore\n                /* \"#utility.yul\":5245:5483   */\n              pop\n                /* \"#utility.yul\":5202:5483   */\n              pop\n              pop\n              jump\t// out\n                /* \"#utility.yul\":5489:5618   */\n            tag_101:\n                /* \"#utility.yul\":5523:5529   */\n              0x00\n                /* \"#utility.yul\":5550:5570   */\n              tag_188\n              tag_78\n              jump\t// in\n            tag_188:\n                /* \"#utility.yul\":5540:5570   */\n              swap1\n              pop\n                /* \"#utility.yul\":5579:5612   */\n              tag_189\n                /* \"#utility.yul\":5607:5611   */\n              dup3\n                /* \"#utility.yul\":5599:5605   */\n              dup3\n                /* \"#utility.yul\":5579:5612   */\n              tag_100\n              jump\t// in\n            tag_189:\n                /* \"#utility.yul\":5489:5618   */\n              swap2\n              swap1\n              pop\n              jump\t// out\n                /* \"#utility.yul\":5624:5932   */\n            tag_102:\n                /* \"#utility.yul\":5686:5690   */\n              0x00\n                /* \"#utility.yul\":5776:5794   */\n              0xffffffffffffffff\n                /* \"#utility.yul\":5768:5774   */\n              dup3\n                /* \"#utility.yul\":5765:5795   */\n              gt\n                /* \"#utility.yul\":5762:5818   */\n              iszero\n              tag_191\n              jumpi\n                /* \"#utility.yul\":5798:5816   */\n              tag_192\n              tag_99\n              jump\t// in\n            tag_192:\n                /* \"#utility.yul\":5762:5818   */\n            tag_191:\n                /* \"#utility.yul\":5836:5865   */\n              tag_193\n                /* \"#utility.yul\":5858:5864   */\n              dup3\n                /* \"#utility.yul\":5836:5865   */\n              tag_94\n              jump\t// in\n            tag_193:\n                /* \"#utility.yul\":5828:5865   */\n              swap1\n              pop\n                /* \"#utility.yul\":5920:5924   */\n              0x20\n                /* \"#utility.yul\":5914:5918   */\n              dup2\n                /* \"#utility.yul\":5910:5925   */\n              add\n                /* \"#utility.yul\":5902:5925   */\n              swap1\n              pop\n                /* \"#utility.yul\":5624:5932   */\n              swap2\n              swap1\n              pop\n              jump\t// out\n                /* \"#utility.yul\":5938:6084   */\n            tag_103:\n                /* \"#utility.yul\":6035:6041   */\n              dup3\n                /* \"#utility.yul\":6030:6033   */\n              dup2\n                /* \"#utility.yul\":6025:6028   */\n              dup4\n                /* \"#utility.yul\":6012:6042   */\n              calldatacopy\n                /* \"#utility.yul\":6076:6077   */\n              0x00\n                /* \"#utility.yul\":6067:6073   */\n              dup4\n                /* \"#utility.yul\":6062:6065   */\n              dup4\n                /* \"#utility.yul\":6058:6074   */\n              add\n                /* \"#utility.yul\":6051:6078   */\n              mstore\n                /* \"#utility.yul\":5938:6084   */\n              pop\n              pop\n              pop\n              jump\t// out\n                /* \"#utility.yul\":6090:6515   */\n            tag_104:\n                /* \"#utility.yul\":6168:6173   */\n              0x00\n                /* \"#utility.yul\":6193:6259   */\n              tag_196\n                /* \"#utility.yul\":6209:6258   */\n              tag_197\n                /* \"#utility.yul\":6251:6257   */\n              dup5\n                /* \"#utility.yul\":6209:6258   */\n              tag_102\n              jump\t// in\n            tag_197:\n                /* \"#utility.yul\":6193:6259   */\n              tag_101\n              jump\t// in\n            tag_196:\n                /* \"#utility.yul\":6184:6259   */\n              swap1\n              pop\n                /* \"#utility.yul\":6282:6288   */\n              dup3\n                /* \"#utility.yul\":6275:6280   */\n              dup2\n                /* \"#utility.yul\":6268:6289   */\n              mstore\n                /* \"#utility.yul\":6320:6324   */\n              0x20\n                /* \"#utility.yul\":6313:6318   */\n              dup2\n                /* \"#utility.yul\":6309:6325   */\n              add\n                /* \"#utility.yul\":6358:6361   */\n              dup5\n                /* \"#utility.yul\":6349:6355   */\n              dup5\n                /* \"#utility.yul\":6344:6347   */\n              dup5\n                /* \"#utility.yul\":6340:6356   */\n              add\n                /* \"#utility.yul\":6337:6362   */\n              gt\n                /* \"#utility.yul\":6334:6446   */\n              iszero\n              tag_198\n              jumpi\n                /* \"#utility.yul\":6365:6444   */\n              tag_199\n              tag_98\n              jump\t// in\n            tag_199:\n                /* \"#utility.yul\":6334:6446   */\n            tag_198:\n                /* \"#utility.yul\":6455:6509   */\n              tag_200\n                /* \"#utility.yul\":6502:6508   */\n              dup5\n                /* \"#utility.yul\":6497:6500   */\n              dup3\n                /* \"#utility.yul\":6492:6495   */\n              dup6\n                /* \"#utility.yul\":6455:6509   */\n              tag_103\n              jump\t// in\n            tag_200:\n                /* \"#utility.yul\":6174:6515   */\n              pop\n                /* \"#utility.yul\":6090:6515   */\n              swap4\n              swap3\n              pop\n              pop\n              pop\n              jump\t// out\n                /* \"#utility.yul\":6535:6875   */\n            tag_105:\n                /* \"#utility.yul\":6591:6596   */\n              0x00\n                /* \"#utility.yul\":6640:6643   */\n              dup3\n                /* \"#utility.yul\":6633:6637   */\n              0x1f\n                /* \"#utility.yul\":6625:6631   */\n              dup4\n                /* \"#utility.yul\":6621:6638   */\n              add\n                /* \"#utility.yul\":6617:6644   */\n              slt\n                /* \"#utility.yul\":6607:6729   */\n              tag_202\n              jumpi\n                /* \"#utility.yul\":6648:6727   */\n              tag_203\n              tag_97\n              jump\t// in\n            tag_203:\n                /* \"#utility.yul\":6607:6729   */\n            tag_202:\n                /* \"#utility.yul\":6765:6771   */\n              dup2\n                /* \"#utility.yul\":6752:6772   */\n              calldataload\n                /* \"#utility.yul\":6790:6869   */\n              tag_204\n                /* \"#utility.yul\":6865:6868   */\n              dup5\n                /* \"#utility.yul\":6857:6863   */\n              dup3\n                /* \"#utility.yul\":6850:6854   */\n              0x20\n                /* \"#utility.yul\":6842:6848   */\n              dup7\n                /* \"#utility.yul\":6838:6855   */\n              add\n                /* \"#utility.yul\":6790:6869   */\n              tag_104\n              jump\t// in\n            tag_204:\n                /* \"#utility.yul\":6781:6869   */\n              swap2\n              pop\n                /* \"#utility.yul\":6597:6875   */\n              pop\n                /* \"#utility.yul\":6535:6875   */\n              swap3\n              swap2\n              pop\n              pop\n              jump\t// out\n                /* \"#utility.yul\":6881:7680   */\n            tag_39:\n                /* \"#utility.yul\":6968:6974   */\n              0x00\n                /* \"#utility.yul\":6976:6982   */\n              dup1\n                /* \"#utility.yul\":6984:6990   */\n              0x00\n                /* \"#utility.yul\":7033:7035   */\n              0x60\n                /* \"#utility.yul\":7021:7030   */\n              dup5\n                /* \"#utility.yul\":7012:7019   */\n              dup7\n                /* \"#utility.yul\":7008:7031   */\n              sub\n                /* \"#utility.yul\":7004:7036   */\n              slt\n                /* \"#utility.yul\":7001:7120   */\n              iszero\n              tag_206\n              jumpi\n                /* \"#utility.yul\":7039:7118   */\n              tag_207\n              tag_79\n              jump\t// in\n            tag_207:\n                /* \"#utility.yul\":7001:7120   */\n            tag_206:\n                /* \"#utility.yul\":7187:7188   */\n              0x00\n                /* \"#utility.yul\":7176:7185   */\n              dup5\n                /* \"#utility.yul\":7172:7189   */\n              add\n                /* \"#utility.yul\":7159:7190   */\n              calldataload\n                /* \"#utility.yul\":7217:7235   */\n              0xffffffffffffffff\n                /* \"#utility.yul\":7209:7215   */\n              dup2\n                /* \"#utility.yul\":7206:7236   */\n              gt\n                /* \"#utility.yul\":7203:7320   */\n              iszero\n              tag_208\n              jumpi\n                /* \"#utility.yul\":7239:7318   */\n              tag_209\n              tag_80\n              jump\t// in\n            tag_209:\n                /* \"#utility.yul\":7203:7320   */\n            tag_208:\n                /* \"#utility.yul\":7344:7407   */\n              tag_210\n                /* \"#utility.yul\":7399:7406   */\n              dup7\n                /* \"#utility.yul\":7390:7396   */\n              dup3\n                /* \"#utility.yul\":7379:7388   */\n              dup8\n                /* \"#utility.yul\":7375:7397   */\n              add\n                /* \"#utility.yul\":7344:7407   */\n              tag_105\n              jump\t// in\n            tag_210:\n                /* \"#utility.yul\":7334:7407   */\n              swap4\n              pop\n                /* \"#utility.yul\":7130:7417   */\n              pop\n                /* \"#utility.yul\":7456:7458   */\n              0x20\n                /* \"#utility.yul\":7482:7535   */\n              tag_211\n                /* \"#utility.yul\":7527:7534   */\n              dup7\n                /* \"#utility.yul\":7518:7524   */\n              dup3\n                /* \"#utility.yul\":7507:7516   */\n              dup8\n                /* \"#utility.yul\":7503:7525   */\n              add\n                /* \"#utility.yul\":7482:7535   */\n              tag_90\n              jump\t// in\n            tag_211:\n                /* \"#utility.yul\":7472:7535   */\n              swap3\n              pop\n                /* \"#utility.yul\":7427:7545   */\n              pop\n                /* \"#utility.yul\":7584:7586   */\n              0x40\n                /* \"#utility.yul\":7610:7663   */\n              tag_212\n                /* \"#utility.yul\":7655:7662   */\n              dup7\n                /* \"#utility.yul\":7646:7652   */\n              dup3\n                /* \"#utility.yul\":7635:7644   */\n              dup8\n                /* \"#utility.yul\":7631:7653   */\n              add\n                /* \"#utility.yul\":7610:7663   */\n              tag_84\n              jump\t// in\n            tag_212:\n                /* \"#utility.yul\":7600:7663   */\n              swap2\n              pop\n                /* \"#utility.yul\":7555:7673   */\n              pop\n                /* \"#utility.yul\":6881:7680   */\n              swap3\n              pop\n              swap3\n              pop\n              swap3\n              jump\t// out\n                /* \"#utility.yul\":7686:7866   */\n            tag_106:\n                /* \"#utility.yul\":7734:7811   */\n              0x4e487b7100000000000000000000000000000000000000000000000000000000\n                /* \"#utility.yul\":7731:7732   */\n              0x00\n                /* \"#utility.yul\":7724:7812   */\n              mstore\n                /* \"#utility.yul\":7831:7835   */\n              0x22\n                /* \"#utility.yul\":7828:7829   */\n              0x04\n                /* \"#utility.yul\":7821:7836   */\n              mstore\n                /* \"#utility.yul\":7855:7859   */\n              0x24\n                /* \"#utility.yul\":7852:7853   */\n              0x00\n                /* \"#utility.yul\":7845:7860   */\n              revert\n                /* \"#utility.yul\":7872:8192   */\n            tag_56:\n                /* \"#utility.yul\":7916:7922   */\n              0x00\n                /* \"#utility.yul\":7953:7954   */\n              0x02\n                /* \"#utility.yul\":7947:7951   */\n              dup3\n                /* \"#utility.yul\":7943:7955   */\n              div\n                /* \"#utility.yul\":7933:7955   */\n              swap1\n              pop\n                /* \"#utility.yul\":8000:8001   */\n              0x01\n                /* \"#utility.yul\":7994:7998   */\n              dup3\n                /* \"#utility.yul\":7990:8002   */\n              and\n                /* \"#utility.yul\":8021:8039   */\n              dup1\n                /* \"#utility.yul\":8011:8092   */\n              tag_215\n              jumpi\n                /* \"#utility.yul\":8077:8081   */\n              0x7f\n                /* \"#utility.yul\":8069:8075   */\n              dup3\n                /* \"#utility.yul\":8065:8082   */\n              and\n                /* \"#utility.yul\":8055:8082   */\n              swap2\n              pop\n                /* \"#utility.yul\":8011:8092   */\n            tag_215:\n                /* \"#utility.yul\":8139:8141   */\n              0x20\n                /* \"#utility.yul\":8131:8137   */\n              dup3\n                /* \"#utility.yul\":8128:8142   */\n              lt\n                /* \"#utility.yul\":8108:8126   */\n              dup2\n                /* \"#utility.yul\":8105:8143   */\n              sub\n                /* \"#utility.yul\":8102:8186   */\n              tag_216\n              jumpi\n                /* \"#utility.yul\":8158:8176   */\n              tag_217\n              tag_106\n              jump\t// in\n            tag_217:\n                /* \"#utility.yul\":8102:8186   */\n            tag_216:\n                /* \"#utility.yul\":7923:8192   */\n              pop\n                /* \"#utility.yul\":7872:8192   */\n              swap2\n              swap1\n              pop\n              jump\t// out\n                /* \"#utility.yul\":8198:8378   */\n            tag_107:\n                /* \"#utility.yul\":8246:8323   */\n              0x4e487b7100000000000000000000000000000000000000000000000000000000\n                /* \"#utility.yul\":8243:8244   */\n              0x00\n                /* \"#utility.yul\":8236:8324   */\n              mstore\n                /* \"#utility.yul\":8343:8347   */\n              0x11\n                /* \"#utility.yul\":8340:8341   */\n              0x04\n                /* \"#utility.yul\":8333:8348   */\n              mstore\n                /* \"#utility.yul\":8367:8371   */\n              0x24\n                /* \"#utility.yul\":8364:8365   */\n              0x00\n                /* \"#utility.yul\":8357:8372   */\n              revert\n                /* \"#utility.yul\":8384:8617   */\n            tag_65:\n                /* \"#utility.yul\":8423:8426   */\n              0x00\n                /* \"#utility.yul\":8446:8470   */\n              tag_220\n                /* \"#utility.yul\":8464:8469   */\n              dup3\n                /* \"#utility.yul\":8446:8470   */\n              tag_88\n              jump\t// in\n            tag_220:\n                /* \"#utility.yul\":8437:8470   */\n              swap2\n              pop\n                /* \"#utility.yul\":8492:8558   */\n              0xffffffffffffffffffffffffffffffffffffffffffffffffffffffffffffffff\n                /* \"#utility.yul\":8485:8490   */\n              dup3\n                /* \"#utility.yul\":8482:8559   */\n              sub\n                /* \"#utility.yul\":8479:8582   */\n              tag_221\n              jumpi\n                /* \"#utility.yul\":8562:8580   */\n              tag_222\n              tag_107\n              jump\t// in\n            tag_222:\n                /* \"#utility.yul\":8479:8582   */\n            tag_221:\n                /* \"#utility.yul\":8609:8610   */\n              0x01\n                /* \"#utility.yul\":8602:8607   */\n              dup3\n                /* \"#utility.yul\":8598:8611   */\n              add\n                /* \"#utility.yul\":8591:8611   */\n              swap1\n              pop\n                /* \"#utility.yul\":8384:8617   */\n              swap2\n              swap1\n              pop\n              jump\t// out\n                /* \"#utility.yul\":8623:8764   */\n            tag_108:\n                /* \"#utility.yul\":8672:8676   */\n              0x00\n                /* \"#utility.yul\":8695:8698   */\n              dup2\n                /* \"#utility.yul\":8687:8698   */\n              swap1\n              pop\n                /* \"#utility.yul\":8718:8721   */\n              dup2\n                /* \"#utility.yul\":8715:8716   */\n              0x00\n                /* \"#utility.yul\":8708:8722   */\n              mstore\n                /* \"#utility.yul\":8752:8756   */\n              0x20\n                /* \"#utility.yul\":8749:8750   */\n              0x00\n                /* \"#utility.yul\":8739:8757   */\n              keccak256\n                /* \"#utility.yul\":8731:8757   */\n              swap1\n              pop\n                /* \"#utility.yul\":8623:8764   */\n              swap2\n              swap1\n              pop\n              jump\t// out\n                /* \"#utility.yul\":8770:8863   */\n            tag_109:\n                /* \"#utility.yul\":8807:8813   */\n              0x00\n                /* \"#utility.yul\":8854:8856   */\n              0x20\n                /* \"#utility.yul\":8849:8851   */\n              0x1f\n                /* \"#utility.yul\":8842:8847   */\n              dup4\n                /* \"#utility.yul\":8838:8852   */\n              add\n                /* \"#utility.yul\":8834:8857   */\n              div\n                /* \"#utility.yul\":8824:8857   */\n              swap1\n              pop\n                /* \"#utility.yul\":8770:8863   */\n              swap2\n              swap1\n              pop\n              jump\t// out\n                /* \"#utility.yul\":8869:8976   */\n            tag_110:\n                /* \"#utility.yul\":8913:8921   */\n              0x00\n                /* \"#utility.yul\":8963:8968   */\n              dup3\n                /* \"#utility.yul\":8957:8961   */\n              dup3\n                /* \"#utility.yul\":8953:8969   */\n              shl\n                /* \"#utility.yul\":8932:8969   */\n              swap1\n              pop\n                /* \"#utility.yul\":8869:8976   */\n              swap3\n              swap2\n              pop\n              pop\n              jump\t// out\n                /* \"#utility.yul\":8982:9375   */\n            tag_111:\n                /* \"#utility.yul\":9051:9057   */\n              0x00\n                /* \"#utility.yul\":9101:9102   */\n              0x08\n                /* \"#utility.yul\":9089:9099   */\n              dup4\n                /* \"#utility.yul\":9085:9103   */\n              mul\n                /* \"#utility.yul\":9124:9221   */\n              tag_227\n                /* \"#utility.yul\":9154:9220   */\n              0xffffffffffffffffffffffffffffffffffffffffffffffffffffffffffffffff\n                /* \"#utility.yul\":9143:9152   */\n              dup3\n                /* \"#utility.yul\":9124:9221   */\n              tag_110\n              jump\t// in\n            tag_227:\n                /* \"#utility.yul\":9242:9281   */\n              tag_228\n                /* \"#utility.yul\":9272:9280   */\n              dup7\n                /* \"#utility.yul\":9261:9270   */\n              dup4\n                /* \"#utility.yul\":9242:9281   */\n              tag_110\n              jump\t// in\n            tag_228:\n                /* \"#utility.yul\":9230:9281   */\n              swap6\n              pop\n                /* \"#utility.yul\":9314:9318   */\n              dup1\n                /* \"#utility.yul\":9310:9319   */\n              not\n                /* \"#utility.yul\":9303:9308   */\n              dup5\n                /* \"#utility.yul\":9299:9320   */\n              and\n                /* \"#utility.yul\":9290:9320   */\n              swap4\n              pop\n                /* \"#utility.yul\":9363:9367   */\n              dup1\n                /* \"#utility.yul\":9353:9361   */\n              dup7\n                /* \"#utility.yul\":9349:9368   */\n              and\n                /* \"#utility.yul\":9342:9347   */\n              dup5\n                /* \"#utility.yul\":9339:9369   */\n              or\n                /* \"#utility.yul\":9329:9369   */\n              swap3\n              pop\n                /* \"#utility.yul\":9058:9375   */\n              pop\n              pop\n                /* \"#utility.yul\":8982:9375   */\n              swap4\n              swap3\n              pop\n              pop\n              pop\n              jump\t// out\n                /* \"#utility.yul\":9381:9441   */\n            tag_112:\n                /* \"#utility.yul\":9409:9412   */\n              0x00\n                /* \"#utility.yul\":9430:9435   */\n              dup2\n                /* \"#utility.yul\":9423:9435   */\n              swap1\n              pop\n                /* \"#utility.yul\":9381:9441   */\n              swap2\n              swap1\n              pop\n              jump\t// out\n                /* \"#utility.yul\":9447:9589   */\n            tag_113:\n                /* \"#utility.yul\":9497:9506   */\n              0x00\n                /* \"#utility.yul\":9530:9583   */\n              tag_231\n                /* \"#utility.yul\":9548:9582   */\n              tag_232\n                /* \"#utility.yul\":9557:9581   */\n              tag_233\n                /* \"#utility.yul\":9575:9580   */\n              dup5\n                /* \"#utility.yul\":9557:9581   */\n              tag_88\n              jump\t// in\n            tag_233:\n                /* \"#utility.yul\":9548:9582   */\n              tag_112\n              jump\t// in\n            tag_232:\n                /* \"#utility.yul\":9530:9583   */\n              tag_88\n              jump\t// in\n            tag_231:\n                /* \"#utility.yul\":9517:9583   */\n              swap1\n              pop\n                /* \"#utility.yul\":9447:9589   */\n              swap2\n              swap1\n              pop\n              jump\t// out\n                /* \"#utility.yul\":9595:9670   */\n            tag_114:\n                /* \"#utility.yul\":9638:9641   */\n              0x00\n                /* \"#utility.yul\":9659:9664   */\n              dup2\n                /* \"#utility.yul\":9652:9664   */\n              swap1\n              pop\n                /* \"#utility.yul\":9595:9670   */\n              swap2\n              swap1\n              pop\n              jump\t// out\n                /* \"#utility.yul\":9676:9945   */\n            tag_115:\n                /* \"#utility.yul\":9786:9825   */\n              tag_236\n                /* \"#utility.yul\":9817:9824   */\n              dup4\n                /* \"#utility.yul\":9786:9825   */\n              tag_113\n              jump\t// in\n            tag_236:\n                /* \"#utility.yul\":9847:9938   */\n              tag_237\n                /* \"#utility.yul\":9896:9937   */\n              tag_238\n                /* \"#utility.yul\":9920:9936   */\n              dup3\n                /* \"#utility.yul\":9896:9937   */\n              tag_114\n              jump\t// in\n            tag_238:\n                /* \"#utility.yul\":9888:9894   */\n              dup5\n                /* \"#utility.yul\":9881:9885   */\n              dup5\n                /* \"#utility.yul\":9875:9886   */\n              sload\n                /* \"#utility.yul\":9847:9938   */\n              tag_111\n              jump\t// in\n            tag_237:\n                /* \"#utility.yul\":9841:9845   */\n              dup3\n                /* \"#utility.yul\":9834:9939   */\n              sstore\n                /* \"#utility.yul\":9752:9945   */\n              pop\n                /* \"#utility.yul\":9676:9945   */\n              pop\n              pop\n              pop\n              jump\t// out\n                /* \"#utility.yul\":9951:10024   */\n            tag_116:\n                /* \"#utility.yul\":9996:9999   */\n              0x00\n                /* \"#utility.yul\":9951:10024   */\n              swap1\n              jump\t// out\n                /* \"#utility.yul\":10030:10219   */\n            tag_117:\n                /* \"#utility.yul\":10107:10139   */\n              tag_241\n              tag_116\n              jump\t// in\n            tag_241:\n                /* \"#utility.yul\":10148:10213   */\n              tag_242\n                /* \"#utility.yul\":10206:10212   */\n              dup2\n                /* \"#utility.yul\":10198:10204   */\n              dup5\n                /* \"#utility.yul\":10192:10196   */\n              dup5\n                /* \"#utility.yul\":10148:10213   */\n              tag_115\n              jump\t// in\n            tag_242:\n                /* \"#utility.yul\":10083:10219   */\n              pop\n                /* \"#utility.yul\":10030:10219   */\n              pop\n              pop\n              jump\t// out\n                /* \"#utility.yul\":10225:10411   */\n            tag_118:\n                /* \"#utility.yul\":10285:10405   */\n            tag_244:\n                /* \"#utility.yul\":10302:10305   */\n              dup2\n                /* \"#utility.yul\":10295:10300   */\n              dup2\n                /* \"#utility.yul\":10292:10306   */\n              lt\n                /* \"#utility.yul\":10285:10405   */\n              iszero\n              tag_246\n              jumpi\n                /* \"#utility.yul\":10356:10395   */\n              tag_247\n                /* \"#utility.yul\":10393:10394   */\n              0x00\n                /* \"#utility.yul\":10386:10391   */\n              dup3\n                /* \"#utility.yul\":10356:10395   */\n              tag_117\n              jump\t// in\n            tag_247:\n                /* \"#utility.yul\":10329:10330   */\n              0x01\n                /* \"#utility.yul\":10322:10327   */\n              dup2\n                /* \"#utility.yul\":10318:10331   */\n              add\n                /* \"#utility.yul\":10309:10331   */\n              swap1\n              pop\n                /* \"#utility.yul\":10285:10405   */\n              jump(tag_244)\n            tag_246:\n                /* \"#utility.yul\":10225:10411   */\n              pop\n              pop\n              jump\t// out\n                /* \"#utility.yul\":10417:10960   */\n            tag_119:\n                /* \"#utility.yul\":10518:10520   */\n              0x1f\n                /* \"#utility.yul\":10513:10516   */\n              dup3\n                /* \"#utility.yul\":10510:10521   */\n              gt\n                /* \"#utility.yul\":10507:10953   */\n              iszero\n              tag_249\n              jumpi\n                /* \"#utility.yul\":10552:10590   */\n              tag_250\n                /* \"#utility.yul\":10584:10589   */\n              dup2\n                /* \"#utility.yul\":10552:10590   */\n              tag_108\n              jump\t// in\n            tag_250:\n                /* \"#utility.yul\":10636:10665   */\n              tag_251\n                /* \"#utility.yul\":10654:10664   */\n              dup5\n                /* \"#utility.yul\":10636:10665   */\n              tag_109\n              jump\t// in\n            tag_251:\n                /* \"#utility.yul\":10626:10634   */\n              dup2\n                /* \"#utility.yul\":10622:10666   */\n              add\n                /* \"#utility.yul\":10819:10821   */\n              0x20\n                /* \"#utility.yul\":10807:10817   */\n              dup6\n                /* \"#utility.yul\":10804:10822   */\n              lt\n                /* \"#utility.yul\":10801:10850   */\n              iszero\n              tag_252\n              jumpi\n                /* \"#utility.yul\":10840:10848   */\n              dup2\n                /* \"#utility.yul\":10825:10848   */\n              swap1\n              pop\n                /* \"#utility.yul\":10801:10850   */\n            tag_252:\n                /* \"#utility.yul\":10863:10943   */\n              tag_253\n                /* \"#utility.yul\":10919:10941   */\n              tag_254\n                /* \"#utility.yul\":10937:10940   */\n              dup6\n                /* \"#utility.yul\":10919:10941   */\n              tag_109\n              jump\t// in\n            tag_254:\n                /* \"#utility.yul\":10909:10917   */\n              dup4\n                /* \"#utility.yul\":10905:10942   */\n              add\n                /* \"#utility.yul\":10892:10903   */\n              dup3\n                /* \"#utility.yul\":10863:10943   */\n              tag_118\n              jump\t// in\n            tag_253:\n                /* \"#utility.yul\":10522:10953   */\n              pop\n              pop\n                /* \"#utility.yul\":10507:10953   */\n            tag_249:\n                /* \"#utility.yul\":10417:10960   */\n              pop\n              pop\n              pop\n              jump\t// out\n                /* \"#utility.yul\":10966:11083   */\n            tag_120:\n                /* \"#utility.yul\":11020:11028   */\n              0x00\n                /* \"#utility.yul\":11070:11075   */\n              dup3\n                /* \"#utility.yul\":11064:11068   */\n              dup3\n                /* \"#utility.yul\":11060:11076   */\n              shr\n                /* \"#utility.yul\":11039:11076   */\n              swap1\n              pop\n                /* \"#utility.yul\":10966:11083   */\n              swap3\n              swap2\n              pop\n              pop\n              jump\t// out\n                /* \"#utility.yul\":11089:11258   */\n            tag_121:\n                /* \"#utility.yul\":11133:11139   */\n              0x00\n                /* \"#utility.yul\":11166:11217   */\n              tag_257\n                /* \"#utility.yul\":11214:11215   */\n              0x00\n                /* \"#utility.yul\":11210:11216   */\n              not\n                /* \"#utility.yul\":11202:11207   */\n              dup5\n                /* \"#utility.yul\":11199:11200   */\n              0x08\n                /* \"#utility.yul\":11195:11208   */\n              mul\n                /* \"#utility.yul\":11166:11217   */\n              tag_120\n              jump\t// in\n            tag_257:\n                /* \"#utility.yul\":11162:11218   */\n              not\n                /* \"#utility.yul\":11247:11251   */\n              dup1\n                /* \"#utility.yul\":11241:11245   */\n              dup4\n                /* \"#utility.yul\":11237:11252   */\n              and\n                /* \"#utility.yul\":11227:11252   */\n              swap2\n              pop\n                /* \"#utility.yul\":11140:11258   */\n              pop\n                /* \"#utility.yul\":11089:11258   */\n              swap3\n              swap2\n              pop\n              pop\n              jump\t// out\n                /* \"#utility.yul\":11263:11558   */\n            tag_122:\n                /* \"#utility.yul\":11339:11343   */\n              0x00\n                /* \"#utility.yul\":11485:11514   */\n              tag_259\n                /* \"#utility.yul\":11510:11513   */\n              dup4\n                /* \"#utility.yul\":11504:11508   */\n              dup4\n                /* \"#utility.yul\":11485:11514   */\n              tag_121\n              jump\t// in\n            tag_259:\n                /* \"#utility.yul\":11477:11514   */\n              swap2\n              pop\n                /* \"#utility.yul\":11547:11550   */\n              dup3\n                /* \"#utility.yul\":11544:11545   */\n              0x02\n                /* \"#utility.yul\":11540:11551   */\n              mul\n                /* \"#utility.yul\":11534:11538   */\n              dup3\n                /* \"#utility.yul\":11531:11552   */\n              or\n                /* \"#utility.yul\":11523:11552   */\n              swap1\n              pop\n                /* \"#utility.yul\":11263:11558   */\n              swap3\n              swap2\n              pop\n              pop\n              jump\t// out\n                /* \"#utility.yul\":11563:12958   */\n            tag_67:\n                /* \"#utility.yul\":11680:11717   */\n              tag_261\n                /* \"#utility.yul\":11713:11716   */\n              dup3\n                /* \"#utility.yul\":11680:11717   */\n              tag_91\n              jump\t// in\n            tag_261:\n                /* \"#utility.yul\":11782:11800   */\n              0xffffffffffffffff\n                /* \"#utility.yul\":11774:11780   */\n              dup2\n                /* \"#utility.yul\":11771:11801   */\n              gt\n                /* \"#utility.yul\":11768:11824   */\n              iszero\n              tag_262\n              jumpi\n                /* \"#utility.yul\":11804:11822   */\n              tag_263\n              tag_99\n              jump\t// in\n            tag_263:\n                /* \"#utility.yul\":11768:11824   */\n            tag_262:\n                /* \"#utility.yul\":11848:11886   */\n              tag_264\n                /* \"#utility.yul\":11880:11884   */\n              dup3\n                /* \"#utility.yul\":11874:11885   */\n              sload\n                /* \"#utility.yul\":11848:11886   */\n              tag_56\n              jump\t// in\n            tag_264:\n                /* \"#utility.yul\":11933:12000   */\n              tag_265\n                /* \"#utility.yul\":11993:11999   */\n              dup3\n                /* \"#utility.yul\":11985:11991   */\n              dup3\n                /* \"#utility.yul\":11979:11983   */\n              dup6\n                /* \"#utility.yul\":11933:12000   */\n              tag_119\n              jump\t// in\n            tag_265:\n                /* \"#utility.yul\":12027:12028   */\n              0x00\n                /* \"#utility.yul\":12051:12055   */\n              0x20\n                /* \"#utility.yul\":12038:12055   */\n              swap1\n              pop\n                /* \"#utility.yul\":12083:12085   */\n              0x1f\n                /* \"#utility.yul\":12075:12081   */\n              dup4\n                /* \"#utility.yul\":12072:12086   */\n              gt\n                /* \"#utility.yul\":12100:12101   */\n              0x01\n                /* \"#utility.yul\":12095:12713   */\n              dup2\n              eq\n              tag_267\n              jumpi\n                /* \"#utility.yul\":12757:12758   */\n              0x00\n                /* \"#utility.yul\":12774:12780   */\n              dup5\n                /* \"#utility.yul\":12771:12848   */\n              iszero\n              tag_268\n              jumpi\n                /* \"#utility.yul\":12823:12832   */\n              dup3\n                /* \"#utility.yul\":12818:12821   */\n              dup8\n                /* \"#utility.yul\":12814:12833   */\n              add\n                /* \"#utility.yul\":12808:12834   */\n              mload\n                /* \"#utility.yul\":12799:12834   */\n              swap1\n              pop\n                /* \"#utility.yul\":12771:12848   */\n            tag_268:\n                /* \"#utility.yul\":12874:12941   */\n              tag_269\n                /* \"#utility.yul\":12934:12940   */\n              dup6\n                /* \"#utility.yul\":12927:12932   */\n              dup3\n                /* \"#utility.yul\":12874:12941   */\n              tag_122\n              jump\t// in\n            tag_269:\n                /* \"#utility.yul\":12868:12872   */\n              dup7\n                /* \"#utility.yul\":12861:12942   */\n              sstore\n                /* \"#utility.yul\":12730:12952   */\n              pop\n                /* \"#utility.yul\":12065:12952   */\n              jump(tag_266)\n                /* \"#utility.yul\":12095:12713   */\n            tag_267:\n                /* \"#utility.yul\":12147:12151   */\n              0x1f\n                /* \"#utility.yul\":12143:12152   */\n              not\n                /* \"#utility.yul\":12135:12141   */\n              dup5\n                /* \"#utility.yul\":12131:12153   */\n              and\n                /* \"#utility.yul\":12181:12218   */\n              tag_270\n                /* \"#utility.yul\":12213:12217   */\n              dup7\n                /* \"#utility.yul\":12181:12218   */\n              tag_108\n              jump\t// in\n            tag_270:\n                /* \"#utility.yul\":12240:12241   */\n              0x00\n                /* \"#utility.yul\":12254:12462   */\n            tag_271:\n                /* \"#utility.yul\":12268:12275   */\n              dup3\n                /* \"#utility.yul\":12265:12266   */\n              dup2\n                /* \"#utility.yul\":12262:12276   */\n              lt\n                /* \"#utility.yul\":12254:12462   */\n              iszero\n              tag_273\n              jumpi\n                /* \"#utility.yul\":12347:12356   */\n              dup5\n                /* \"#utility.yul\":12342:12345   */\n              dup10\n                /* \"#utility.yul\":12338:12357   */\n              add\n                /* \"#utility.yul\":12332:12358   */\n              mload\n                /* \"#utility.yul\":12324:12330   */\n              dup3\n                /* \"#utility.yul\":12317:12359   */\n              sstore\n                /* \"#utility.yul\":12398:12399   */\n              0x01\n                /* \"#utility.yul\":12390:12396   */\n              dup3\n                /* \"#utility.yul\":12386:12400   */\n              add\n                /* \"#utility.yul\":12376:12400   */\n              swap2\n              pop\n                /* \"#utility.yul\":12445:12447   */\n              0x20\n                /* \"#utility.yul\":12434:12443   */\n              dup6\n                /* \"#utility.yul\":12430:12448   */\n              add\n                /* \"#utility.yul\":12417:12448   */\n              swap5\n              pop\n                /* \"#utility.yul\":12291:12295   */\n              0x20\n                /* \"#utility.yul\":12288:12289   */\n              dup2\n                /* \"#utility.yul\":12284:12296   */\n              add\n                /* \"#utility.yul\":12279:12296   */\n              swap1\n              pop\n                /* \"#utility.yul\":12254:12462   */\n              jump(tag_271)\n            tag_273:\n                /* \"#utility.yul\":12490:12496   */\n              dup7\n                /* \"#utility.yul\":12481:12488   */\n              dup4\n                /* \"#utility.yul\":12478:12497   */\n              lt\n                /* \"#utility.yul\":12475:12654   */\n              iszero\n              tag_274\n              jumpi\n                /* \"#utility.yul\":12548:12557   */\n              dup5\n                /* \"#utility.yul\":12543:12546   */\n              dup10\n                /* \"#utility.yul\":12539:12558   */\n              add\n                /* \"#utility.yul\":12533:12559   */\n              mload\n                /* \"#utility.yul\":12591:12639   */\n              tag_275\n                /* \"#utility.yul\":12633:12637   */\n              0x1f\n                /* \"#utility.yul\":12625:12631   */\n              dup10\n                /* \"#utility.yul\":12621:12638   */\n              and\n                /* \"#utility.yul\":12610:12619   */\n              dup3\n                /* \"#utility.yul\":12591:12639   */\n              tag_121\n              jump\t// in\n            tag_275:\n                /* \"#utility.yul\":12583:12589   */\n              dup4\n                /* \"#utility.yul\":12576:12640   */\n              sstore\n                /* \"#utility.yul\":12498:12654   */\n              pop\n                /* \"#utility.yul\":12475:12654   */\n            tag_274:\n                /* \"#utility.yul\":12700:12701   */\n              0x01\n                /* \"#utility.yul\":12696:12697   */\n              0x02\n                /* \"#utility.yul\":12688:12694   */\n              dup9\n                /* \"#utility.yul\":12684:12698   */\n              mul\n                /* \"#utility.yul\":12680:12702   */\n              add\n                /* \"#utility.yul\":12674:12678   */\n              dup9\n                /* \"#utility.yul\":12667:12703   */\n              sstore\n                /* \"#utility.yul\":12102:12713   */\n              pop\n              pop\n              pop\n                /* \"#utility.yul\":12065:12952   */\n            tag_266:\n              pop\n                /* \"#utility.yul\":11655:12958   */\n              pop\n              pop\n              pop\n                /* \"#utility.yul\":11563:12958   */\n              pop\n              pop\n              jump\t// out\n\n            auxdata: 0xa26469706673582212208a445060d69db99ff833927958466627fcad7b5cce8d6034bfe4af96bdd2e2a064736f6c63430008130033\n        }\n    }\n\n    auxdata: 0xa26469706673582212208e93a2515290cc1b234d4650828631e21c60d20cc498ec5d666c72d9cfd731b164736f6c63430008130033\n}\n","bytecode":{"linkReferences":{},"object":"608060405234801561001057600080fd5b506113de806100206000396000f3fe608060405234801561001057600080fd5b50600436106100415760003560e01c80635eac000714610046578063a3303a7514610064578063b7ccb9ab14610080575b600080fd5b61004e6100b0565b60405161005b919061031b565b60405180910390f35b61007e60048036038101906100799190610378565b61013e565b005b61009a60048036038101906100959190610378565b6101df565b6040516100a791906103b4565b60405180910390f35b6060600080548060200260200160405190810160405280929190818152602001828054801561013457602002820191906000526020600020905b8160009054906101000a900473ffffffffffffffffffffffffffffffffffffffff1673ffffffffffffffffffffffffffffffffffffffff16815260200190600101908083116100ea575b5050505050905090565b6000813360405161014e9061021e565b6101599291906103de565b604051809103906000f080158015610175573d6000803e3d6000fd5b5090506000819080600181540180825580915050600190039060005260206000200160009091909190916101000a81548173ffffffffffffffffffffffffffffffffffffffff021916908373ffffffffffffffffffffffffffffffffffffffff1602179055505050565b600081815481106101ef57600080fd5b906000526020600020016000915054906101000a900473ffffffffffffffffffffffffffffffffffffffff1681565b610fa18061040883390190565b600081519050919050565b600082825260208201905092915050565b6000819050602082019050919050565b600073ffffffffffffffffffffffffffffffffffffffff82169050919050565b600061028282610257565b9050919050565b61029281610277565b82525050565b60006102a48383610289565b60208301905092915050565b6000602082019050919050565b60006102c88261022b565b6102d28185610236565b93506102dd83610247565b8060005b8381101561030e5781516102f58882610298565b9750610300836102b0565b9250506001810190506102e1565b5085935050505092915050565b6000602082019050818103600083015261033581846102bd565b905092915050565b600080fd5b6000819050919050565b61035581610342565b811461036057600080fd5b50565b6000813590506103728161034c565b92915050565b60006020828403121561038e5761038d61033d565b5b600061039c84828501610363565b91505092915050565b6103ae81610277565b82525050565b60006020820190506103c960008301846103a5565b92915050565b6103d881610342565b82525050565b60006040820190506103f360008301856103cf565b61040060208301846103a5565b939250505056fe60806040523480156200001157600080fd5b5060405162000fa138038062000fa183398181016040528101906200003791906200012c565b8160008190555080600260006101000a81548173ffffffffffffffffffffffffffffffffffffffff021916908373ffffffffffffffffffffffffffffffffffffffff160217905550505062000173565b600080fd5b6000819050919050565b620000a1816200008c565b8114620000ad57600080fd5b50565b600081519050620000c18162000096565b92915050565b600073ffffffffffffffffffffffffffffffffffffffff82169050919050565b6000620000f482620000c7565b9050919050565b6200010681620000e7565b81146200011257600080fd5b50565b6000815190506200012681620000fb565b92915050565b6000806040838503121562000146576200014562000087565b5b60006200015685828601620000b0565b9250506020620001698582860162000115565b9150509250929050565b610e1e80620001836000396000f3fe6080604052600436106100865760003560e01c80638a9cfd55116100595780638a9cfd551461015f578063937e09b114610188578063d7bb99ba146101b3578063d7d1bbdb146101bd578063e7b668b4146101e657610086565b80630a1443911461008b578063481c6a75146100c857806381d12c58146100f357806382fde09314610134575b600080fd5b34801561009757600080fd5b506100b260048036038101906100ad91906106eb565b61020f565b6040516100bf9190610733565b60405180910390f35b3480156100d457600080fd5b506100dd61022f565b6040516100ea919061075d565b60405180910390f35b3480156100ff57600080fd5b5061011a600480360381019061011591906107ae565b610255565b60405161012b95949392919061087a565b60405180910390f35b34801561014057600080fd5b50610149610340565b60405161015691906108d4565b60405180910390f35b34801561016b57600080fd5b5061018660048036038101906101819190610a24565b610346565b005b34801561019457600080fd5b5061019d610458565b6040516101aa91906108d4565b60405180910390f35b6101bb61045e565b005b3480156101c957600080fd5b506101e460048036038101906101df91906107ae565b6104de565b005b3480156101f257600080fd5b5061020d600480360381019061020891906107ae565b61061c565b005b60036020528060005260406000206000915054906101000a900460ff1681565b600260009054906101000a900473ffffffffffffffffffffffffffffffffffffffff1681565b600560205280600052604060002060009150905080600001805461027890610ac2565b80601f01602080910402602001604051908101604052809291908181526020018280546102a490610ac2565b80156102f15780601f106102c6576101008083540402835291602001916102f1565b820191906000526020600020905b8154815290600101906020018083116102d457829003601f168201915b5050505050908060010154908060020160009054906101000a900473ffffffffffffffffffffffffffffffffffffffff16908060020160149054906101000a900460ff16908060030154905085565b60045481565b600260009054906101000a900473ffffffffffffffffffffffffffffffffffffffff1673ffffffffffffffffffffffffffffffffffffffff163373ffffffffffffffffffffffffffffffffffffffff16146103a057600080fd5b600060056000600160008154809291906103b990610b22565b9190505581526020019081526020016000209050838160000190816103de9190610d16565b50828160010181905550818160020160006101000a81548173ffffffffffffffffffffffffffffffffffffffff021916908373ffffffffffffffffffffffffffffffffffffffff16021790555060008160020160146101000a81548160ff0219169083151502179055506000816003018190555050505050565b60005481565b600054341161046c57600080fd5b6001600360003373ffffffffffffffffffffffffffffffffffffffff1673ffffffffffffffffffffffffffffffffffffffff16815260200190815260200160002060006101000a81548160ff021916908315150217905550600460008154809291906104d790610b22565b9190505550565b6000600560008381526020019081526020016000209050600360003373ffffffffffffffffffffffffffffffffffffffff1673ffffffffffffffffffffffffffffffffffffffff16815260200190815260200160002060009054906101000a900460ff1661054b57600080fd5b8060040160003373ffffffffffffffffffffffffffffffffffffffff1673ffffffffffffffffffffffffffffffffffffffff16815260200190815260200160002060009054906101000a900460ff16156105a457600080fd5b60018160040160003373ffffffffffffffffffffffffffffffffffffffff1673ffffffffffffffffffffffffffffffffffffffff16815260200190815260200160002060006101000a81548160ff02191690831515021790555080600301600081548092919061061390610b22565b91905055505050565b600260009054906101000a900473ffffffffffffffffffffffffffffffffffffffff1673ffffffffffffffffffffffffffffffffffffffff163373ffffffffffffffffffffffffffffffffffffffff161461067657600080fd5b50565b6000604051905090565b600080fd5b600080fd5b600073ffffffffffffffffffffffffffffffffffffffff82169050919050565b60006106b88261068d565b9050919050565b6106c8816106ad565b81146106d357600080fd5b50565b6000813590506106e5816106bf565b92915050565b60006020828403121561070157610700610683565b5b600061070f848285016106d6565b91505092915050565b60008115159050919050565b61072d81610718565b82525050565b60006020820190506107486000830184610724565b92915050565b610757816106ad565b82525050565b6000602082019050610772600083018461074e565b92915050565b6000819050919050565b61078b81610778565b811461079657600080fd5b50565b6000813590506107a881610782565b92915050565b6000602082840312156107c4576107c3610683565b5b60006107d284828501610799565b91505092915050565b600081519050919050565b600082825260208201905092915050565b60005b838110156108155780820151818401526020810190506107fa565b60008484015250505050565b6000601f19601f8301169050919050565b600061083d826107db565b61084781856107e6565b93506108578185602086016107f7565b61086081610821565b840191505092915050565b61087481610778565b82525050565b600060a08201905081810360008301526108948188610832565b90506108a3602083018761086b565b6108b0604083018661074e565b6108bd6060830185610724565b6108ca608083018461086b565b9695505050505050565b60006020820190506108e9600083018461086b565b92915050565b600080fd5b600080fd5b7f4e487b7100000000000000000000000000000000000000000000000000000000600052604160045260246000fd5b61093182610821565b810181811067ffffffffffffffff821117156109505761094f6108f9565b5b80604052505050565b6000610963610679565b905061096f8282610928565b919050565b600067ffffffffffffffff82111561098f5761098e6108f9565b5b61099882610821565b9050602081019050919050565b82818337600083830152505050565b60006109c76109c284610974565b610959565b9050828152602081018484840111156109e3576109e26108f4565b5b6109ee8482856109a5565b509392505050565b600082601f830112610a0b57610a0a6108ef565b5b8135610a1b8482602086016109b4565b91505092915050565b600080600060608486031215610a3d57610a3c610683565b5b600084013567ffffffffffffffff811115610a5b57610a5a610688565b5b610a67868287016109f6565b9350506020610a7886828701610799565b9250506040610a89868287016106d6565b9150509250925092565b7f4e487b7100000000000000000000000000000000000000000000000000000000600052602260045260246000fd5b60006002820490506001821680610ada57607f821691505b602082108103610aed57610aec610a93565b5b50919050565b7f4e487b7100000000000000000000000000000000000000000000000000000000600052601160045260246000fd5b6000610b2d82610778565b91507fffffffffffffffffffffffffffffffffffffffffffffffffffffffffffffffff8203610b5f57610b5e610af3565b5b600182019050919050565b60008190508160005260206000209050919050565b60006020601f8301049050919050565b600082821b905092915050565b600060088302610bcc7fffffffffffffffffffffffffffffffffffffffffffffffffffffffffffffffff82610b8f565b610bd68683610b8f565b95508019841693508086168417925050509392505050565b6000819050919050565b6000610c13610c0e610c0984610778565b610bee565b610778565b9050919050565b6000819050919050565b610c2d83610bf8565b610c41610c3982610c1a565b848454610b9c565b825550505050565b600090565b610c56610c49565b610c61818484610c24565b505050565b5b81811015610c8557610c7a600082610c4e565b600181019050610c67565b5050565b601f821115610cca57610c9b81610b6a565b610ca484610b7f565b81016020851015610cb3578190505b610cc7610cbf85610b7f565b830182610c66565b50505b505050565b600082821c905092915050565b6000610ced60001984600802610ccf565b1980831691505092915050565b6000610d068383610cdc565b9150826002028217905092915050565b610d1f826107db565b67ffffffffffffffff811115610d3857610d376108f9565b5b610d428254610ac2565b610d4d828285610c89565b600060209050601f831160018114610d805760008415610d6e578287015190505b610d788582610cfa565b865550610de0565b601f198416610d8e86610b6a565b60005b82811015610db657848901518255600182019150602085019450602081019050610d91565b86831015610dd35784890151610dcf601f891682610cdc565b8355505b6001600288020188555050505b50505050505056fea26469706673582212208a445060d69db99ff833927958466627fcad7b5cce8d6034bfe4af96bdd2e2a064736f6c63430008130033a26469706673582212208e93a2515290cc1b234d4650828631e21c60d20cc498ec5d666c72d9cfd731b164736f6c63430008130033","opcodes":"PUSH1 0x80 PUSH1 0x40 MSTORE CALLVALUE DUP1 ISZERO PUSH2 0x10 JUMPI PUSH1 0x0 DUP1 REVERT JUMPDEST POP PUSH2 0x13DE DUP1 PUSH2 0x20 PUSH1 0x0 CODECOPY PUSH1 0x0 RETURN INVALID PUSH1 0x80 PUSH1 0x40 MSTORE CALLVALUE DUP1 ISZERO PUSH2 0x10 JUMPI PUSH1 0x0 DUP1 REVERT JUMPDEST POP PUSH1 0x4 CALLDATASIZE LT PUSH2 0x41 JUMPI PUSH1 0x0 CALLDATALOAD PUSH1 0xE0 SHR DUP1 PUSH4 0x5EAC0007 EQ PUSH2 0x46 JUMPI DUP1 PUSH4 0xA3303A75 EQ PUSH2 0x64 JUMPI DUP1 PUSH4 0xB7CCB9AB EQ PUSH2 0x80 JUMPI JUMPDEST PUSH1 0x0 DUP1 REVERT JUMPDEST PUSH2 0x4E PUSH2 0xB0 JUMP JUMPDEST PUSH1 0x40 MLOAD PUSH2 0x5B SWAP2 SWAP1 PUSH2 0x31B JUMP JUMPDEST PUSH1 0x40 MLOAD DUP1 SWAP2 SUB SWAP1 RETURN JUMPDEST PUSH2 0x7E PUSH1 0x4 DUP1 CALLDATASIZE SUB DUP2 ADD SWAP1 PUSH2 0x79 SWAP2 SWAP1 PUSH2 0x378 JUMP JUMPDEST PUSH2 0x13E JUMP JUMPDEST STOP JUMPDEST PUSH2 0x9A PUSH1 0x4 DUP1 CALLDATASIZE SUB DUP2 ADD SWAP1 PUSH2 0x95 SWAP2 SWAP1 PUSH2 0x378 JUMP JUMPDEST PUSH2 0x1DF JUMP JUMPDEST PUSH1 0x40 MLOAD PUSH2 0xA7 SWAP2 SWAP1 PUSH2 0x3B4 JUMP JUMPDEST PUSH1 0x40 MLOAD DUP1 SWAP2 SUB SWAP1 RETURN JUMPDEST PUSH1 0x60 PUSH1 0x0 DUP1 SLOAD DUP1 PUSH1 0x20 MUL PUSH1 0x20 ADD PUSH1 0x40 MLOAD SWAP1 DUP2 ADD PUSH1 0x40 MSTORE DUP1 SWAP3 SWAP2 SWAP1 DUP2 DUP2 MSTORE PUSH1 0x20 ADD DUP3 DUP1 SLOAD DUP1 ISZERO PUSH2 0x134 JUMPI PUSH1 0x20 MUL DUP3 ADD SWAP2 SWAP1 PUSH1 0x0 MSTORE PUSH1 0x20 PUSH1 0x0 KECCAK256 SWAP1 JUMPDEST DUP2 PUSH1 0x0 SWAP1 SLOAD SWAP1 PUSH2 0x100 EXP SWAP1 DIV PUSH20 0xFFFFFFFFFFFFFFFFFFFFFFFFFFFFFFFFFFFFFFFF AND PUSH20 0xFFFFFFFFFFFFFFFFFFFFFFFFFFFFFFFFFFFFFFFF AND DUP2 MSTORE PUSH1 0x20 ADD SWAP1 PUSH1 0x1 ADD SWAP1 DUP1 DUP4 GT PUSH2 0xEA JUMPI JUMPDEST POP POP POP POP POP SWAP1 POP SWAP1 JUMP JUMPDEST PUSH1 0x0 DUP2 CALLER PUSH1 0x40 MLOAD PUSH2 0x14E SWAP1 PUSH2 0x21E JUMP JUMPDEST PUSH2 0x159 SWAP3 SWAP2 SWAP1 PUSH2 0x3DE JUMP JUMPDEST PUSH1 0x40 MLOAD DUP1 SWAP2 SUB SWAP1 PUSH1 0x0 CREATE DUP1 ISZERO DUP1 ISZERO PUSH2 0x175 JUMPI RETURNDATASIZE PUSH1 0x0 DUP1 RETURNDATACOPY RETURNDATASIZE PUSH1 0x0 REVERT JUMPDEST POP SWAP1 POP PUSH1 0x0 DUP2 SWAP1 DUP1 PUSH1 0x1 DUP2 SLOAD ADD DUP1 DUP3 SSTORE DUP1 SWAP2 POP POP PUSH1 0x1 SWAP1 SUB SWAP1 PUSH1 0x0 MSTORE PUSH1 0x20 PUSH1 0x0 KECCAK256 ADD PUSH1 0x0 SWAP1 SWAP2 SWAP1 SWAP2 SWAP1 SWAP2 PUSH2 0x100 EXP DUP2 SLOAD DUP2 PUSH20 0xFFFFFFFFFFFFFFFFFFFFFFFFFFFFFFFFFFFFFFFF MUL NOT AND SWAP1 DUP4 PUSH20 0xFFFFFFFFFFFFFFFFFFFFFFFFFFFFFFFFFFFFFFFF AND MUL OR SWAP1 SSTORE POP POP POP JUMP JUMPDEST PUSH1 0x0 DUP2 DUP2 SLOAD DUP2 LT PUSH2 0x1EF JUMPI PUSH1 0x0 DUP1 REVERT JUMPDEST SWAP1 PUSH1 0x0 MSTORE PUSH1 0x20 PUSH1 0x0 KECCAK256 ADD PUSH1 0x0 SWAP2 POP SLOAD SWAP1 PUSH2 0x100 EXP SWAP1 DIV PUSH20 0xFFFFFFFFFFFFFFFFFFFFFFFFFFFFFFFFFFFFFFFF AND DUP2 JUMP JUMPDEST PUSH2 0xFA1 DUP1 PUSH2 0x408 DUP4 CODECOPY ADD SWAP1 JUMP JUMPDEST PUSH1 0x0 DUP2 MLOAD SWAP1 POP SWAP2 SWAP1 POP JUMP JUMPDEST PUSH1 0x0 DUP3 DUP3 MSTORE PUSH1 0x20 DUP3 ADD SWAP1 POP SWAP3 SWAP2 POP POP JUMP JUMPDEST PUSH1 0x0 DUP2 SWAP1 POP PUSH1 0x20 DUP3 ADD SWAP1 POP SWAP2 SWAP1 POP JUMP JUMPDEST PUSH1 0x0 PUSH20 0xFFFFFFFFFFFFFFFFFFFFFFFFFFFFFFFFFFFFFFFF DUP3 AND SWAP1 POP SWAP2 SWAP1 POP JUMP JUMPDEST PUSH1 0x0 PUSH2 0x282 DUP3 PUSH2 0x257 JUMP JUMPDEST SWAP1 POP SWAP2 SWAP1 POP JUMP JUMPDEST PUSH2 0x292 DUP2 PUSH2 0x277 JUMP JUMPDEST DUP3 MSTORE POP POP JUMP JUMPDEST PUSH1 0x0 PUSH2 0x2A4 DUP4 DUP4 PUSH2 0x289 JUMP JUMPDEST PUSH1 0x20 DUP4 ADD SWAP1 POP SWAP3 SWAP2 POP POP JUMP JUMPDEST PUSH1 0x0 PUSH1 0x20 DUP3 ADD SWAP1 POP SWAP2 SWAP1 POP JUMP JUMPDEST PUSH1 0x0 PUSH2 0x2C8 DUP3 PUSH2 0x22B JUMP JUMPDEST PUSH2 0x2D2 DUP2 DUP6 PUSH2 0x236 JUMP JUMPDEST SWAP4 POP PUSH2 0x2DD DUP4 PUSH2 0x247 JUMP JUMPDEST DUP1 PUSH1 0x0 JUMPDEST DUP4 DUP2 LT ISZERO PUSH2 0x30E JUMPI DUP2 MLOAD PUSH2 0x2F5 DUP9 DUP3 PUSH2 0x298 JUMP JUMPDEST SWAP8 POP PUSH2 0x300 DUP4 PUSH2 0x2B0 JUMP JUMPDEST SWAP3 POP POP PUSH1 0x1 DUP2 ADD SWAP1 POP PUSH2 0x2E1 JUMP JUMPDEST POP DUP6 SWAP4 POP POP POP POP SWAP3 SWAP2 POP POP JUMP JUMPDEST PUSH1 0x0 PUSH1 0x20 DUP3 ADD SWAP1 POP DUP2 DUP2 SUB PUSH1 0x0 DUP4 ADD MSTORE PUSH2 0x335 DUP2 DUP5 PUSH2 0x2BD JUMP JUMPDEST SWAP1 POP SWAP3 SWAP2 POP POP JUMP JUMPDEST PUSH1 0x0 DUP1 REVERT JUMPDEST PUSH1 0x0 DUP2 SWAP1 POP SWAP2 SWAP1 POP JUMP JUMPDEST PUSH2 0x355 DUP2 PUSH2 0x342 JUMP JUMPDEST DUP2 EQ PUSH2 0x360 JUMPI PUSH1 0x0 DUP1 REVERT JUMPDEST POP JUMP JUMPDEST PUSH1 0x0 DUP2 CALLDATALOAD SWAP1 POP PUSH2 0x372 DUP2 PUSH2 0x34C JUMP JUMPDEST SWAP3 SWAP2 POP POP JUMP JUMPDEST PUSH1 0x0 PUSH1 0x20 DUP3 DUP5 SUB SLT ISZERO PUSH2 0x38E JUMPI PUSH2 0x38D PUSH2 0x33D JUMP JUMPDEST JUMPDEST PUSH1 0x0 PUSH2 0x39C DUP5 DUP3 DUP6 ADD PUSH2 0x363 JUMP JUMPDEST SWAP2 POP POP SWAP3 SWAP2 POP POP JUMP JUMPDEST PUSH2 0x3AE DUP2 PUSH2 0x277 JUMP JUMPDEST DUP3 MSTORE POP POP JUMP JUMPDEST PUSH1 0x0 PUSH1 0x20 DUP3 ADD SWAP1 POP PUSH2 0x3C9 PUSH1 0x0 DUP4 ADD DUP5 PUSH2 0x3A5 JUMP JUMPDEST SWAP3 SWAP2 POP POP JUMP JUMPDEST PUSH2 0x3D8 DUP2 PUSH2 0x342 JUMP JUMPDEST DUP3 MSTORE POP POP JUMP JUMPDEST PUSH1 0x0 PUSH1 0x40 DUP3 ADD SWAP1 POP PUSH2 0x3F3 PUSH1 0x0 DUP4 ADD DUP6 PUSH2 0x3CF JUMP JUMPDEST PUSH2 0x400 PUSH1 0x20 DUP4 ADD DUP5 PUSH2 0x3A5 JUMP JUMPDEST SWAP4 SWAP3 POP POP POP JUMP INVALID PUSH1 0x80 PUSH1 0x40 MSTORE CALLVALUE DUP1 ISZERO PUSH3 0x11 JUMPI PUSH1 0x0 DUP1 REVERT JUMPDEST POP PUSH1 0x40 MLOAD PUSH3 0xFA1 CODESIZE SUB DUP1 PUSH3 0xFA1 DUP4 CODECOPY DUP2 DUP2 ADD PUSH1 0x40 MSTORE DUP2 ADD SWAP1 PUSH3 0x37 SWAP2 SWAP1 PUSH3 0x12C JUMP JUMPDEST DUP2 PUSH1 0x0 DUP2 SWAP1 SSTORE POP DUP1 PUSH1 0x2 PUSH1 0x0 PUSH2 0x100 EXP DUP2 SLOAD DUP2 PUSH20 0xFFFFFFFFFFFFFFFFFFFFFFFFFFFFFFFFFFFFFFFF MUL NOT AND SWAP1 DUP4 PUSH20 0xFFFFFFFFFFFFFFFFFFFFFFFFFFFFFFFFFFFFFFFF AND MUL OR SWAP1 SSTORE POP POP POP PUSH3 0x173 JUMP JUMPDEST PUSH1 0x0 DUP1 REVERT JUMPDEST PUSH1 0x0 DUP2 SWAP1 POP SWAP2 SWAP1 POP JUMP JUMPDEST PUSH3 0xA1 DUP2 PUSH3 0x8C JUMP JUMPDEST DUP2 EQ PUSH3 0xAD JUMPI PUSH1 0x0 DUP1 REVERT JUMPDEST POP JUMP JUMPDEST PUSH1 0x0 DUP2 MLOAD SWAP1 POP PUSH3 0xC1 DUP2 PUSH3 0x96 JUMP JUMPDEST SWAP3 SWAP2 POP POP JUMP JUMPDEST PUSH1 0x0 PUSH20 0xFFFFFFFFFFFFFFFFFFFFFFFFFFFFFFFFFFFFFFFF DUP3 AND SWAP1 POP SWAP2 SWAP1 POP JUMP JUMPDEST PUSH1 0x0 PUSH3 0xF4 DUP3 PUSH3 0xC7 JUMP JUMPDEST SWAP1 POP SWAP2 SWAP1 POP JUMP JUMPDEST PUSH3 0x106 DUP2 PUSH3 0xE7 JUMP JUMPDEST DUP2 EQ PUSH3 0x112 JUMPI PUSH1 0x0 DUP1 REVERT JUMPDEST POP JUMP JUMPDEST PUSH1 0x0 DUP2 MLOAD SWAP1 POP PUSH3 0x126 DUP2 PUSH3 0xFB JUMP JUMPDEST SWAP3 SWAP2 POP POP JUMP JUMPDEST PUSH1 0x0 DUP1 PUSH1 0x40 DUP4 DUP6 SUB SLT ISZERO PUSH3 0x146 JUMPI PUSH3 0x145 PUSH3 0x87 JUMP JUMPDEST JUMPDEST PUSH1 0x0 PUSH3 0x156 DUP6 DUP3 DUP7 ADD PUSH3 0xB0 JUMP JUMPDEST SWAP3 POP POP PUSH1 0x20 PUSH3 0x169 DUP6 DUP3 DUP7 ADD PUSH3 0x115 JUMP JUMPDEST SWAP2 POP POP SWAP3 POP SWAP3 SWAP1 POP JUMP JUMPDEST PUSH2 0xE1E DUP1 PUSH3 0x183 PUSH1 0x0 CODECOPY PUSH1 0x0 RETURN INVALID PUSH1 0x80 PUSH1 0x40 MSTORE PUSH1 0x4 CALLDATASIZE LT PUSH2 0x86 JUMPI PUSH1 0x0 CALLDATALOAD PUSH1 0xE0 SHR DUP1 PUSH4 0x8A9CFD55 GT PUSH2 0x59 JUMPI DUP1 PUSH4 0x8A9CFD55 EQ PUSH2 0x15F JUMPI DUP1 PUSH4 0x937E09B1 EQ PUSH2 0x188 JUMPI DUP1 PUSH4 0xD7BB99BA EQ PUSH2 0x1B3 JUMPI DUP1 PUSH4 0xD7D1BBDB EQ PUSH2 0x1BD JUMPI DUP1 PUSH4 0xE7B668B4 EQ PUSH2 0x1E6 JUMPI PUSH2 0x86 JUMP JUMPDEST DUP1 PUSH4 0xA144391 EQ PUSH2 0x8B JUMPI DUP1 PUSH4 0x481C6A75 EQ PUSH2 0xC8 JUMPI DUP1 PUSH4 0x81D12C58 EQ PUSH2 0xF3 JUMPI DUP1 PUSH4 0x82FDE093 EQ PUSH2 0x134 JUMPI JUMPDEST PUSH1 0x0 DUP1 REVERT JUMPDEST CALLVALUE DUP1 ISZERO PUSH2 0x97 JUMPI PUSH1 0x0 DUP1 REVERT JUMPDEST POP PUSH2 0xB2 PUSH1 0x4 DUP1 CALLDATASIZE SUB DUP2 ADD SWAP1 PUSH2 0xAD SWAP2 SWAP1 PUSH2 0x6EB JUMP JUMPDEST PUSH2 0x20F JUMP JUMPDEST PUSH1 0x40 MLOAD PUSH2 0xBF SWAP2 SWAP1 PUSH2 0x733 JUMP JUMPDEST PUSH1 0x40 MLOAD DUP1 SWAP2 SUB SWAP1 RETURN JUMPDEST CALLVALUE DUP1 ISZERO PUSH2 0xD4 JUMPI PUSH1 0x0 DUP1 REVERT JUMPDEST POP PUSH2 0xDD PUSH2 0x22F JUMP JUMPDEST PUSH1 0x40 MLOAD PUSH2 0xEA SWAP2 SWAP1 PUSH2 0x75D JUMP JUMPDEST PUSH1 0x40 MLOAD DUP1 SWAP2 SUB SWAP1 RETURN JUMPDEST CALLVALUE DUP1 ISZERO PUSH2 0xFF JUMPI PUSH1 0x0 DUP1 REVERT JUMPDEST POP PUSH2 0x11A PUSH1 0x4 DUP1 CALLDATASIZE SUB DUP2 ADD SWAP1 PUSH2 0x115 SWAP2 SWAP1 PUSH2 0x7AE JUMP JUMPDEST PUSH2 0x255 JUMP JUMPDEST PUSH1 0x40 MLOAD PUSH2 0x12B SWAP6 SWAP5 SWAP4 SWAP3 SWAP2 SWAP1 PUSH2 0x87A JUMP JUMPDEST PUSH1 0x40 MLOAD DUP1 SWAP2 SUB SWAP1 RETURN JUMPDEST CALLVALUE DUP1 ISZERO PUSH2 0x140 JUMPI PUSH1 0x0 DUP1 REVERT JUMPDEST POP PUSH2 0x149 PUSH2 0x340 JUMP JUMPDEST PUSH1 0x40 MLOAD PUSH2 0x156 SWAP2 SWAP1 PUSH2 0x8D4 JUMP JUMPDEST PUSH1 0x40 MLOAD DUP1 SWAP2 SUB SWAP1 RETURN JUMPDEST CALLVALUE DUP1 ISZERO PUSH2 0x16B JUMPI PUSH1 0x0 DUP1 REVERT JUMPDEST POP PUSH2 0x186 PUSH1 0x4 DUP1 CALLDATASIZE SUB DUP2 ADD SWAP1 PUSH2 0x181 SWAP2 SWAP1 PUSH2 0xA24 JUMP JUMPDEST PUSH2 0x346 JUMP JUMPDEST STOP JUMPDEST CALLVALUE DUP1 ISZERO PUSH2 0x194 JUMPI PUSH1 0x0 DUP1 REVERT JUMPDEST POP PUSH2 0x19D PUSH2 0x458 JUMP JUMPDEST PUSH1 0x40 MLOAD PUSH2 0x1AA SWAP2 SWAP1 PUSH2 0x8D4 JUMP JUMPDEST PUSH1 0x40 MLOAD DUP1 SWAP2 SUB SWAP1 RETURN JUMPDEST PUSH2 0x1BB PUSH2 0x45E JUMP JUMPDEST STOP JUMPDEST CALLVALUE DUP1 ISZERO PUSH2 0x1C9 JUMPI PUSH1 0x0 DUP1 REVERT JUMPDEST POP PUSH2 0x1E4 PUSH1 0x4 DUP1 CALLDATASIZE SUB DUP2 ADD SWAP1 PUSH2 0x1DF SWAP2 SWAP1 PUSH2 0x7AE JUMP JUMPDEST PUSH2 0x4DE JUMP JUMPDEST STOP JUMPDEST CALLVALUE DUP1 ISZERO PUSH2 0x1F2 JUMPI PUSH1 0x0 DUP1 REVERT JUMPDEST POP PUSH2 0x20D PUSH1 0x4 DUP1 CALLDATASIZE SUB DUP2 ADD SWAP1 PUSH2 0x208 SWAP2 SWAP1 PUSH2 0x7AE JUMP JUMPDEST PUSH2 0x61C JUMP JUMPDEST STOP JUMPDEST PUSH1 0x3 PUSH1 0x20 MSTORE DUP1 PUSH1 0x0 MSTORE PUSH1 0x40 PUSH1 0x0 KECCAK256 PUSH1 0x0 SWAP2 POP SLOAD SWAP1 PUSH2 0x100 EXP SWAP1 DIV PUSH1 0xFF AND DUP2 JUMP JUMPDEST PUSH1 0x2 PUSH1 0x0 SWAP1 SLOAD SWAP1 PUSH2 0x100 EXP SWAP1 DIV PUSH20 0xFFFFFFFFFFFFFFFFFFFFFFFFFFFFFFFFFFFFFFFF AND DUP2 JUMP JUMPDEST PUSH1 0x5 PUSH1 0x20 MSTORE DUP1 PUSH1 0x0 MSTORE PUSH1 0x40 PUSH1 0x0 KECCAK256 PUSH1 0x0 SWAP2 POP SWAP1 POP DUP1 PUSH1 0x0 ADD DUP1 SLOAD PUSH2 0x278 SWAP1 PUSH2 0xAC2 JUMP JUMPDEST DUP1 PUSH1 0x1F ADD PUSH1 0x20 DUP1 SWAP2 DIV MUL PUSH1 0x20 ADD PUSH1 0x40 MLOAD SWAP1 DUP2 ADD PUSH1 0x40 MSTORE DUP1 SWAP3 SWAP2 SWAP1 DUP2 DUP2 MSTORE PUSH1 0x20 ADD DUP3 DUP1 SLOAD PUSH2 0x2A4 SWAP1 PUSH2 0xAC2 JUMP JUMPDEST DUP1 ISZERO PUSH2 0x2F1 JUMPI DUP1 PUSH1 0x1F LT PUSH2 0x2C6 JUMPI PUSH2 0x100 DUP1 DUP4 SLOAD DIV MUL DUP4 MSTORE SWAP2 PUSH1 0x20 ADD SWAP2 PUSH2 0x2F1 JUMP JUMPDEST DUP3 ADD SWAP2 SWAP1 PUSH1 0x0 MSTORE PUSH1 0x20 PUSH1 0x0 KECCAK256 SWAP1 JUMPDEST DUP2 SLOAD DUP2 MSTORE SWAP1 PUSH1 0x1 ADD SWAP1 PUSH1 0x20 ADD DUP1 DUP4 GT PUSH2 0x2D4 JUMPI DUP3 SWAP1 SUB PUSH1 0x1F AND DUP3 ADD SWAP2 JUMPDEST POP POP POP POP POP SWAP1 DUP1 PUSH1 0x1 ADD SLOAD SWAP1 DUP1 PUSH1 0x2 ADD PUSH1 0x0 SWAP1 SLOAD SWAP1 PUSH2 0x100 EXP SWAP1 DIV PUSH20 0xFFFFFFFFFFFFFFFFFFFFFFFFFFFFFFFFFFFFFFFF AND SWAP1 DUP1 PUSH1 0x2 ADD PUSH1 0x14 SWAP1 SLOAD SWAP1 PUSH2 0x100 EXP SWAP1 DIV PUSH1 0xFF AND SWAP1 DUP1 PUSH1 0x3 ADD SLOAD SWAP1 POP DUP6 JUMP JUMPDEST PUSH1 0x4 SLOAD DUP2 JUMP JUMPDEST PUSH1 0x2 PUSH1 0x0 SWAP1 SLOAD SWAP1 PUSH2 0x100 EXP SWAP1 DIV PUSH20 0xFFFFFFFFFFFFFFFFFFFFFFFFFFFFFFFFFFFFFFFF AND PUSH20 0xFFFFFFFFFFFFFFFFFFFFFFFFFFFFFFFFFFFFFFFF AND CALLER PUSH20 0xFFFFFFFFFFFFFFFFFFFFFFFFFFFFFFFFFFFFFFFF AND EQ PUSH2 0x3A0 JUMPI PUSH1 0x0 DUP1 REVERT JUMPDEST PUSH1 0x0 PUSH1 0x5 PUSH1 0x0 PUSH1 0x1 PUSH1 0x0 DUP2 SLOAD DUP1 SWAP3 SWAP2 SWAP1 PUSH2 0x3B9 SWAP1 PUSH2 0xB22 JUMP JUMPDEST SWAP2 SWAP1 POP SSTORE DUP2 MSTORE PUSH1 0x20 ADD SWAP1 DUP2 MSTORE PUSH1 0x20 ADD PUSH1 0x0 KECCAK256 SWAP1 POP DUP4 DUP2 PUSH1 0x0 ADD SWAP1 DUP2 PUSH2 0x3DE SWAP2 SWAP1 PUSH2 0xD16 JUMP JUMPDEST POP DUP3 DUP2 PUSH1 0x1 ADD DUP2 SWAP1 SSTORE POP DUP2 DUP2 PUSH1 0x2 ADD PUSH1 0x0 PUSH2 0x100 EXP DUP2 SLOAD DUP2 PUSH20 0xFFFFFFFFFFFFFFFFFFFFFFFFFFFFFFFFFFFFFFFF MUL NOT AND SWAP1 DUP4 PUSH20 0xFFFFFFFFFFFFFFFFFFFFFFFFFFFFFFFFFFFFFFFF AND MUL OR SWAP1 SSTORE POP PUSH1 0x0 DUP2 PUSH1 0x2 ADD PUSH1 0x14 PUSH2 0x100 EXP DUP2 SLOAD DUP2 PUSH1 0xFF MUL NOT AND SWAP1 DUP4 ISZERO ISZERO MUL OR SWAP1 SSTORE POP PUSH1 0x0 DUP2 PUSH1 0x3 ADD DUP2 SWAP1 SSTORE POP POP POP POP POP JUMP JUMPDEST PUSH1 0x0 SLOAD DUP2 JUMP JUMPDEST PUSH1 0x0 SLOAD CALLVALUE GT PUSH2 0x46C JUMPI PUSH1 0x0 DUP1 REVERT JUMPDEST PUSH1 0x1 PUSH1 0x3 PUSH1 0x0 CALLER PUSH20 0xFFFFFFFFFFFFFFFFFFFFFFFFFFFFFFFFFFFFFFFF AND PUSH20 0xFFFFFFFFFFFFFFFFFFFFFFFFFFFFFFFFFFFFFFFF AND DUP2 MSTORE PUSH1 0x20 ADD SWAP1 DUP2 MSTORE PUSH1 0x20 ADD PUSH1 0x0 KECCAK256 PUSH1 0x0 PUSH2 0x100 EXP DUP2 SLOAD DUP2 PUSH1 0xFF MUL NOT AND SWAP1 DUP4 ISZERO ISZERO MUL OR SWAP1 SSTORE POP PUSH1 0x4 PUSH1 0x0 DUP2 SLOAD DUP1 SWAP3 SWAP2 SWAP1 PUSH2 0x4D7 SWAP1 PUSH2 0xB22 JUMP JUMPDEST SWAP2 SWAP1 POP SSTORE POP JUMP JUMPDEST PUSH1 0x0 PUSH1 0x5 PUSH1 0x0 DUP4 DUP2 MSTORE PUSH1 0x20 ADD SWAP1 DUP2 MSTORE PUSH1 0x20 ADD PUSH1 0x0 KECCAK256 SWAP1 POP PUSH1 0x3 PUSH1 0x0 CALLER PUSH20 0xFFFFFFFFFFFFFFFFFFFFFFFFFFFFFFFFFFFFFFFF AND PUSH20 0xFFFFFFFFFFFFFFFFFFFFFFFFFFFFFFFFFFFFFFFF AND DUP2 MSTORE PUSH1 0x20 ADD SWAP1 DUP2 MSTORE PUSH1 0x20 ADD PUSH1 0x0 KECCAK256 PUSH1 0x0 SWAP1 SLOAD SWAP1 PUSH2 0x100 EXP SWAP1 DIV PUSH1 0xFF AND PUSH2 0x54B JUMPI PUSH1 0x0 DUP1 REVERT JUMPDEST DUP1 PUSH1 0x4 ADD PUSH1 0x0 CALLER PUSH20 0xFFFFFFFFFFFFFFFFFFFFFFFFFFFFFFFFFFFFFFFF AND PUSH20 0xFFFFFFFFFFFFFFFFFFFFFFFFFFFFFFFFFFFFFFFF AND DUP2 MSTORE PUSH1 0x20 ADD SWAP1 DUP2 MSTORE PUSH1 0x20 ADD PUSH1 0x0 KECCAK256 PUSH1 0x0 SWAP1 SLOAD SWAP1 PUSH2 0x100 EXP SWAP1 DIV PUSH1 0xFF AND ISZERO PUSH2 0x5A4 JUMPI PUSH1 0x0 DUP1 REVERT JUMPDEST PUSH1 0x1 DUP2 PUSH1 0x4 ADD PUSH1 0x0 CALLER PUSH20 0xFFFFFFFFFFFFFFFFFFFFFFFFFFFFFFFFFFFFFFFF AND PUSH20 0xFFFFFFFFFFFFFFFFFFFFFFFFFFFFFFFFFFFFFFFF AND DUP2 MSTORE PUSH1 0x20 ADD SWAP1 DUP2 MSTORE PUSH1 0x20 ADD PUSH1 0x0 KECCAK256 PUSH1 0x0 PUSH2 0x100 EXP DUP2 SLOAD DUP2 PUSH1 0xFF MUL NOT AND SWAP1 DUP4 ISZERO ISZERO MUL OR SWAP1 SSTORE POP DUP1 PUSH1 0x3 ADD PUSH1 0x0 DUP2 SLOAD DUP1 SWAP3 SWAP2 SWAP1 PUSH2 0x613 SWAP1 PUSH2 0xB22 JUMP JUMPDEST SWAP2 SWAP1 POP SSTORE POP POP POP JUMP JUMPDEST PUSH1 0x2 PUSH1 0x0 SWAP1 SLOAD SWAP1 PUSH2 0x100 EXP SWAP1 DIV PUSH20 0xFFFFFFFFFFFFFFFFFFFFFFFFFFFFFFFFFFFFFFFF AND PUSH20 0xFFFFFFFFFFFFFFFFFFFFFFFFFFFFFFFFFFFFFFFF AND CALLER PUSH20 0xFFFFFFFFFFFFFFFFFFFFFFFFFFFFFFFFFFFFFFFF AND EQ PUSH2 0x676 JUMPI PUSH1 0x0 DUP1 REVERT JUMPDEST POP JUMP JUMPDEST PUSH1 0x0 PUSH1 0x40 MLOAD SWAP1 POP SWAP1 JUMP JUMPDEST PUSH1 0x0 DUP1 REVERT JUMPDEST PUSH1 0x0 DUP1 REVERT JUMPDEST PUSH1 0x0 PUSH20 0xFFFFFFFFFFFFFFFFFFFFFFFFFFFFFFFFFFFFFFFF DUP3 AND SWAP1 POP SWAP2 SWAP1 POP JUMP JUMPDEST PUSH1 0x0 PUSH2 0x6B8 DUP3 PUSH2 0x68D JUMP JUMPDEST SWAP1 POP SWAP2 SWAP1 POP JUMP JUMPDEST PUSH2 0x6C8 DUP2 PUSH2 0x6AD JUMP JUMPDEST DUP2 EQ PUSH2 0x6D3 JUMPI PUSH1 0x0 DUP1 REVERT JUMPDEST POP JUMP JUMPDEST PUSH1 0x0 DUP2 CALLDATALOAD SWAP1 POP PUSH2 0x6E5 DUP2 PUSH2 0x6BF JUMP JUMPDEST SWAP3 SWAP2 POP POP JUMP JUMPDEST PUSH1 0x0 PUSH1 0x20 DUP3 DUP5 SUB SLT ISZERO PUSH2 0x701 JUMPI PUSH2 0x700 PUSH2 0x683 JUMP JUMPDEST JUMPDEST PUSH1 0x0 PUSH2 0x70F DUP5 DUP3 DUP6 ADD PUSH2 0x6D6 JUMP JUMPDEST SWAP2 POP POP SWAP3 SWAP2 POP POP JUMP JUMPDEST PUSH1 0x0 DUP2 ISZERO ISZERO SWAP1 POP SWAP2 SWAP1 POP JUMP JUMPDEST PUSH2 0x72D DUP2 PUSH2 0x718 JUMP JUMPDEST DUP3 MSTORE POP POP JUMP JUMPDEST PUSH1 0x0 PUSH1 0x20 DUP3 ADD SWAP1 POP PUSH2 0x748 PUSH1 0x0 DUP4 ADD DUP5 PUSH2 0x724 JUMP JUMPDEST SWAP3 SWAP2 POP POP JUMP JUMPDEST PUSH2 0x757 DUP2 PUSH2 0x6AD JUMP JUMPDEST DUP3 MSTORE POP POP JUMP JUMPDEST PUSH1 0x0 PUSH1 0x20 DUP3 ADD SWAP1 POP PUSH2 0x772 PUSH1 0x0 DUP4 ADD DUP5 PUSH2 0x74E JUMP JUMPDEST SWAP3 SWAP2 POP POP JUMP JUMPDEST PUSH1 0x0 DUP2 SWAP1 POP SWAP2 SWAP1 POP JUMP JUMPDEST PUSH2 0x78B DUP2 PUSH2 0x778 JUMP JUMPDEST DUP2 EQ PUSH2 0x796 JUMPI PUSH1 0x0 DUP1 REVERT JUMPDEST POP JUMP JUMPDEST PUSH1 0x0 DUP2 CALLDATALOAD SWAP1 POP PUSH2 0x7A8 DUP2 PUSH2 0x782 JUMP JUMPDEST SWAP3 SWAP2 POP POP JUMP JUMPDEST PUSH1 0x0 PUSH1 0x20 DUP3 DUP5 SUB SLT ISZERO PUSH2 0x7C4 JUMPI PUSH2 0x7C3 PUSH2 0x683 JUMP JUMPDEST JUMPDEST PUSH1 0x0 PUSH2 0x7D2 DUP5 DUP3 DUP6 ADD PUSH2 0x799 JUMP JUMPDEST SWAP2 POP POP SWAP3 SWAP2 POP POP JUMP JUMPDEST PUSH1 0x0 DUP2 MLOAD SWAP1 POP SWAP2 SWAP1 POP JUMP JUMPDEST PUSH1 0x0 DUP3 DUP3 MSTORE PUSH1 0x20 DUP3 ADD SWAP1 POP SWAP3 SWAP2 POP POP JUMP JUMPDEST PUSH1 0x0 JUMPDEST DUP4 DUP2 LT ISZERO PUSH2 0x815 JUMPI DUP1 DUP3 ADD MLOAD DUP2 DUP5 ADD MSTORE PUSH1 0x20 DUP2 ADD SWAP1 POP PUSH2 0x7FA JUMP JUMPDEST PUSH1 0x0 DUP5 DUP5 ADD MSTORE POP POP POP POP JUMP JUMPDEST PUSH1 0x0 PUSH1 0x1F NOT PUSH1 0x1F DUP4 ADD AND SWAP1 POP SWAP2 SWAP1 POP JUMP JUMPDEST PUSH1 0x0 PUSH2 0x83D DUP3 PUSH2 0x7DB JUMP JUMPDEST PUSH2 0x847 DUP2 DUP6 PUSH2 0x7E6 JUMP JUMPDEST SWAP4 POP PUSH2 0x857 DUP2 DUP6 PUSH1 0x20 DUP7 ADD PUSH2 0x7F7 JUMP JUMPDEST PUSH2 0x860 DUP2 PUSH2 0x821 JUMP JUMPDEST DUP5 ADD SWAP2 POP POP SWAP3 SWAP2 POP POP JUMP JUMPDEST PUSH2 0x874 DUP2 PUSH2 0x778 JUMP JUMPDEST DUP3 MSTORE POP POP JUMP JUMPDEST PUSH1 0x0 PUSH1 0xA0 DUP3 ADD SWAP1 POP DUP2 DUP2 SUB PUSH1 0x0 DUP4 ADD MSTORE PUSH2 0x894 DUP2 DUP9 PUSH2 0x832 JUMP JUMPDEST SWAP1 POP PUSH2 0x8A3 PUSH1 0x20 DUP4 ADD DUP8 PUSH2 0x86B JUMP JUMPDEST PUSH2 0x8B0 PUSH1 0x40 DUP4 ADD DUP7 PUSH2 0x74E JUMP JUMPDEST PUSH2 0x8BD PUSH1 0x60 DUP4 ADD DUP6 PUSH2 0x724 JUMP JUMPDEST PUSH2 0x8CA PUSH1 0x80 DUP4 ADD DUP5 PUSH2 0x86B JUMP JUMPDEST SWAP7 SWAP6 POP POP POP POP POP POP JUMP JUMPDEST PUSH1 0x0 PUSH1 0x20 DUP3 ADD SWAP1 POP PUSH2 0x8E9 PUSH1 0x0 DUP4 ADD DUP5 PUSH2 0x86B JUMP JUMPDEST SWAP3 SWAP2 POP POP JUMP JUMPDEST PUSH1 0x0 DUP1 REVERT JUMPDEST PUSH1 0x0 DUP1 REVERT JUMPDEST PUSH32 0x4E487B7100000000000000000000000000000000000000000000000000000000 PUSH1 0x0 MSTORE PUSH1 0x41 PUSH1 0x4 MSTORE PUSH1 0x24 PUSH1 0x0 REVERT JUMPDEST PUSH2 0x931 DUP3 PUSH2 0x821 JUMP JUMPDEST DUP2 ADD DUP2 DUP2 LT PUSH8 0xFFFFFFFFFFFFFFFF DUP3 GT OR ISZERO PUSH2 0x950 JUMPI PUSH2 0x94F PUSH2 0x8F9 JUMP JUMPDEST JUMPDEST DUP1 PUSH1 0x40 MSTORE POP POP POP JUMP JUMPDEST PUSH1 0x0 PUSH2 0x963 PUSH2 0x679 JUMP JUMPDEST SWAP1 POP PUSH2 0x96F DUP3 DUP3 PUSH2 0x928 JUMP JUMPDEST SWAP2 SWAP1 POP JUMP JUMPDEST PUSH1 0x0 PUSH8 0xFFFFFFFFFFFFFFFF DUP3 GT ISZERO PUSH2 0x98F JUMPI PUSH2 0x98E PUSH2 0x8F9 JUMP JUMPDEST JUMPDEST PUSH2 0x998 DUP3 PUSH2 0x821 JUMP JUMPDEST SWAP1 POP PUSH1 0x20 DUP2 ADD SWAP1 POP SWAP2 SWAP1 POP JUMP JUMPDEST DUP3 DUP2 DUP4 CALLDATACOPY PUSH1 0x0 DUP4 DUP4 ADD MSTORE POP POP POP JUMP JUMPDEST PUSH1 0x0 PUSH2 0x9C7 PUSH2 0x9C2 DUP5 PUSH2 0x974 JUMP JUMPDEST PUSH2 0x959 JUMP JUMPDEST SWAP1 POP DUP3 DUP2 MSTORE PUSH1 0x20 DUP2 ADD DUP5 DUP5 DUP5 ADD GT ISZERO PUSH2 0x9E3 JUMPI PUSH2 0x9E2 PUSH2 0x8F4 JUMP JUMPDEST JUMPDEST PUSH2 0x9EE DUP5 DUP3 DUP6 PUSH2 0x9A5 JUMP JUMPDEST POP SWAP4 SWAP3 POP POP POP JUMP JUMPDEST PUSH1 0x0 DUP3 PUSH1 0x1F DUP4 ADD SLT PUSH2 0xA0B JUMPI PUSH2 0xA0A PUSH2 0x8EF JUMP JUMPDEST JUMPDEST DUP2 CALLDATALOAD PUSH2 0xA1B DUP5 DUP3 PUSH1 0x20 DUP7 ADD PUSH2 0x9B4 JUMP JUMPDEST SWAP2 POP POP SWAP3 SWAP2 POP POP JUMP JUMPDEST PUSH1 0x0 DUP1 PUSH1 0x0 PUSH1 0x60 DUP5 DUP7 SUB SLT ISZERO PUSH2 0xA3D JUMPI PUSH2 0xA3C PUSH2 0x683 JUMP JUMPDEST JUMPDEST PUSH1 0x0 DUP5 ADD CALLDATALOAD PUSH8 0xFFFFFFFFFFFFFFFF DUP2 GT ISZERO PUSH2 0xA5B JUMPI PUSH2 0xA5A PUSH2 0x688 JUMP JUMPDEST JUMPDEST PUSH2 0xA67 DUP7 DUP3 DUP8 ADD PUSH2 0x9F6 JUMP JUMPDEST SWAP4 POP POP PUSH1 0x20 PUSH2 0xA78 DUP7 DUP3 DUP8 ADD PUSH2 0x799 JUMP JUMPDEST SWAP3 POP POP PUSH1 0x40 PUSH2 0xA89 DUP7 DUP3 DUP8 ADD PUSH2 0x6D6 JUMP JUMPDEST SWAP2 POP POP SWAP3 POP SWAP3 POP SWAP3 JUMP JUMPDEST PUSH32 0x4E487B7100000000000000000000000000000000000000000000000000000000 PUSH1 0x0 MSTORE PUSH1 0x22 PUSH1 0x4 MSTORE PUSH1 0x24 PUSH1 0x0 REVERT JUMPDEST PUSH1 0x0 PUSH1 0x2 DUP3 DIV SWAP1 POP PUSH1 0x1 DUP3 AND DUP1 PUSH2 0xADA JUMPI PUSH1 0x7F DUP3 AND SWAP2 POP JUMPDEST PUSH1 0x20 DUP3 LT DUP2 SUB PUSH2 0xAED JUMPI PUSH2 0xAEC PUSH2 0xA93 JUMP JUMPDEST JUMPDEST POP SWAP2 SWAP1 POP JUMP JUMPDEST PUSH32 0x4E487B7100000000000000000000000000000000000000000000000000000000 PUSH1 0x0 MSTORE PUSH1 0x11 PUSH1 0x4 MSTORE PUSH1 0x24 PUSH1 0x0 REVERT JUMPDEST PUSH1 0x0 PUSH2 0xB2D DUP3 PUSH2 0x778 JUMP JUMPDEST SWAP2 POP PUSH32 0xFFFFFFFFFFFFFFFFFFFFFFFFFFFFFFFFFFFFFFFFFFFFFFFFFFFFFFFFFFFFFFFF DUP3 SUB PUSH2 0xB5F JUMPI PUSH2 0xB5E PUSH2 0xAF3 JUMP JUMPDEST JUMPDEST PUSH1 0x1 DUP3 ADD SWAP1 POP SWAP2 SWAP1 POP JUMP JUMPDEST PUSH1 0x0 DUP2 SWAP1 POP DUP2 PUSH1 0x0 MSTORE PUSH1 0x20 PUSH1 0x0 KECCAK256 SWAP1 POP SWAP2 SWAP1 POP JUMP JUMPDEST PUSH1 0x0 PUSH1 0x20 PUSH1 0x1F DUP4 ADD DIV SWAP1 POP SWAP2 SWAP1 POP JUMP JUMPDEST PUSH1 0x0 DUP3 DUP3 SHL SWAP1 POP SWAP3 SWAP2 POP POP JUMP JUMPDEST PUSH1 0x0 PUSH1 0x8 DUP4 MUL PUSH2 0xBCC PUSH32 0xFFFFFFFFFFFFFFFFFFFFFFFFFFFFFFFFFFFFFFFFFFFFFFFFFFFFFFFFFFFFFFFF DUP3 PUSH2 0xB8F JUMP JUMPDEST PUSH2 0xBD6 DUP7 DUP4 PUSH2 0xB8F JUMP JUMPDEST SWAP6 POP DUP1 NOT DUP5 AND SWAP4 POP DUP1 DUP7 AND DUP5 OR SWAP3 POP POP POP SWAP4 SWAP3 POP POP POP JUMP JUMPDEST PUSH1 0x0 DUP2 SWAP1 POP SWAP2 SWAP1 POP JUMP JUMPDEST PUSH1 0x0 PUSH2 0xC13 PUSH2 0xC0E PUSH2 0xC09 DUP5 PUSH2 0x778 JUMP JUMPDEST PUSH2 0xBEE JUMP JUMPDEST PUSH2 0x778 JUMP JUMPDEST SWAP1 POP SWAP2 SWAP1 POP JUMP JUMPDEST PUSH1 0x0 DUP2 SWAP1 POP SWAP2 SWAP1 POP JUMP JUMPDEST PUSH2 0xC2D DUP4 PUSH2 0xBF8 JUMP JUMPDEST PUSH2 0xC41 PUSH2 0xC39 DUP3 PUSH2 0xC1A JUMP JUMPDEST DUP5 DUP5 SLOAD PUSH2 0xB9C JUMP JUMPDEST DUP3 SSTORE POP POP POP POP JUMP JUMPDEST PUSH1 0x0 SWAP1 JUMP JUMPDEST PUSH2 0xC56 PUSH2 0xC49 JUMP JUMPDEST PUSH2 0xC61 DUP2 DUP5 DUP5 PUSH2 0xC24 JUMP JUMPDEST POP POP POP JUMP JUMPDEST JUMPDEST DUP2 DUP2 LT ISZERO PUSH2 0xC85 JUMPI PUSH2 0xC7A PUSH1 0x0 DUP3 PUSH2 0xC4E JUMP JUMPDEST PUSH1 0x1 DUP2 ADD SWAP1 POP PUSH2 0xC67 JUMP JUMPDEST POP POP JUMP JUMPDEST PUSH1 0x1F DUP3 GT ISZERO PUSH2 0xCCA JUMPI PUSH2 0xC9B DUP2 PUSH2 0xB6A JUMP JUMPDEST PUSH2 0xCA4 DUP5 PUSH2 0xB7F JUMP JUMPDEST DUP2 ADD PUSH1 0x20 DUP6 LT ISZERO PUSH2 0xCB3 JUMPI DUP2 SWAP1 POP JUMPDEST PUSH2 0xCC7 PUSH2 0xCBF DUP6 PUSH2 0xB7F JUMP JUMPDEST DUP4 ADD DUP3 PUSH2 0xC66 JUMP JUMPDEST POP POP JUMPDEST POP POP POP JUMP JUMPDEST PUSH1 0x0 DUP3 DUP3 SHR SWAP1 POP SWAP3 SWAP2 POP POP JUMP JUMPDEST PUSH1 0x0 PUSH2 0xCED PUSH1 0x0 NOT DUP5 PUSH1 0x8 MUL PUSH2 0xCCF JUMP JUMPDEST NOT DUP1 DUP4 AND SWAP2 POP POP SWAP3 SWAP2 POP POP JUMP JUMPDEST PUSH1 0x0 PUSH2 0xD06 DUP4 DUP4 PUSH2 0xCDC JUMP JUMPDEST SWAP2 POP DUP3 PUSH1 0x2 MUL DUP3 OR SWAP1 POP SWAP3 SWAP2 POP POP JUMP JUMPDEST PUSH2 0xD1F DUP3 PUSH2 0x7DB JUMP JUMPDEST PUSH8 0xFFFFFFFFFFFFFFFF DUP2 GT ISZERO PUSH2 0xD38 JUMPI PUSH2 0xD37 PUSH2 0x8F9 JUMP JUMPDEST JUMPDEST PUSH2 0xD42 DUP3 SLOAD PUSH2 0xAC2 JUMP JUMPDEST PUSH2 0xD4D DUP3 DUP3 DUP6 PUSH2 0xC89 JUMP JUMPDEST PUSH1 0x0 PUSH1 0x20 SWAP1 POP PUSH1 0x1F DUP4 GT PUSH1 0x1 DUP2 EQ PUSH2 0xD80 JUMPI PUSH1 0x0 DUP5 ISZERO PUSH2 0xD6E JUMPI DUP3 DUP8 ADD MLOAD SWAP1 POP JUMPDEST PUSH2 0xD78 DUP6 DUP3 PUSH2 0xCFA JUMP JUMPDEST DUP7 SSTORE POP PUSH2 0xDE0 JUMP JUMPDEST PUSH1 0x1F NOT DUP5 AND PUSH2 0xD8E DUP7 PUSH2 0xB6A JUMP JUMPDEST PUSH1 0x0 JUMPDEST DUP3 DUP2 LT ISZERO PUSH2 0xDB6 JUMPI DUP5 DUP10 ADD MLOAD DUP3 SSTORE PUSH1 0x1 DUP3 ADD SWAP2 POP PUSH1 0x20 DUP6 ADD SWAP5 POP PUSH1 0x20 DUP2 ADD SWAP1 POP PUSH2 0xD91 JUMP JUMPDEST DUP7 DUP4 LT ISZERO PUSH2 0xDD3 JUMPI DUP5 DUP10 ADD MLOAD PUSH2 0xDCF PUSH1 0x1F DUP10 AND DUP3 PUSH2 0xCDC JUMP JUMPDEST DUP4 SSTORE POP JUMPDEST PUSH1 0x1 PUSH1 0x2 DUP9 MUL ADD DUP9 SSTORE POP POP POP JUMPDEST POP POP POP POP POP POP JUMP INVALID LOG2 PUSH5 0x6970667358 0x22 SLT KECCAK256 DUP11 PREVRANDAO POP PUSH1 0xD6 SWAP14 0xB9 SWAP16 0xF8 CALLER SWAP3 PUSH26 0x58466627FCAD7B5CCE8D6034BFE4AF96BDD2E2A064736F6C6343 STOP ADDMOD SGT STOP CALLER LOG2 PUSH5 0x6970667358 0x22 SLT KECCAK256 DUP15 SWAP4 LOG2 MLOAD MSTORE SWAP1 0xCC SHL 0x23 0x4D CHAINID POP DUP3 DUP7 BALANCE 0xE2 SHR PUSH1 0xD2 0xC 0xC4 SWAP9 0xEC 0x5D PUSH7 0x6C72D9CFD731B1 PUSH5 0x736F6C6343 STOP ADDMOD SGT STOP CALLER "},"gasEstimates":{"creation":{"codeDepositCost":"1017200","executionCost":"1054","totalCost":"1018254"},"external":{"createCampaign(uint256)":"infinite","deployedCampaign(uint256)":"4978","getDeployedCampaign()":"infinite"}},"methodIdentifiers":{"createCampaign(uint256)":"a3303a75","deployedCampaign(uint256)":"b7ccb9ab","getDeployedCampaign()":"5eac0007"}},"storageLayout":{"storage":[{"astId":4,"contract":"Campaign.sol:CampaignFactory","label":"deployedCampaign","offset":0,"slot":"0","type":"t_array(t_address)dyn_storage"}],"types":{"t_address":{"encoding":"inplace","label":"address","numberOfBytes":"20"},"t_array(t_address)dyn_storage":{"base":"t_address","encoding":"dynamic_array","label":"address[]","numberOfBytes":"32"}}},"userdoc":{"kind":"user","methods":{},"version":1}}