{"abi":[{"inputs":[{"internalType":"uint256","name":"minimumValue","type":"uint256"}],"name":"createCampaign","outputs":[],"stateMutability":"nonpayable","type":"function"},{"inputs":[{"internalType":"uint256","name":"","type":"uint256"}],"name":"deployedCampaign","outputs":[{"internalType":"address","name":"","type":"address"}],"stateMutability":"view","type":"function"},{"inputs":[],"name":"getDeployedCampaign","outputs":[{"internalType":"address[]","name":"","type":"address[]"}],"stateMutability":"view","type":"function"}],"devdoc":{"kind":"dev","methods":{},"version":1},"evm":{"assembly":"    /* \"Campaign.sol\":58:424  contract CampaignFactory{... */\n  mstore(0x40, 0x80)\n  callvalue\n  dup1\n  iszero\n  tag_1\n  jumpi\n  0x00\n  dup1\n  revert\ntag_1:\n  pop\n  dataSize(sub_0)\n  dup1\n  dataOffset(sub_0)\n  0x00\n  codecopy\n  0x00\n  return\nstop\n\nsub_0: assembly {\n        /* \"Campaign.sol\":58:424  contract CampaignFactory{... */\n      mstore(0x40, 0x80)\n      callvalue\n      dup1\n      iszero\n      tag_1\n      jumpi\n      0x00\n      dup1\n      revert\n    tag_1:\n      pop\n      jumpi(tag_2, lt(calldatasize, 0x04))\n      shr(0xe0, calldataload(0x00))\n      dup1\n      0x5eac0007\n      eq\n      tag_3\n      jumpi\n      dup1\n      0xa3303a75\n      eq\n      tag_4\n      jumpi\n      dup1\n      0xb7ccb9ab\n      eq\n      tag_5\n      jumpi\n    tag_2:\n      0x00\n      dup1\n      revert\n        /* \"Campaign.sol\":314:422  function getDeployedCampaign() public view returns(address[] memory){... */\n    tag_3:\n      tag_6\n      tag_7\n      jump\t// in\n    tag_6:\n      mload(0x40)\n      tag_8\n      swap2\n      swap1\n      tag_9\n      jump\t// in\n    tag_8:\n      mload(0x40)\n      dup1\n      swap2\n      sub\n      swap1\n      return\n        /* \"Campaign.sol\":128:308  function createCampaign(uint minimumValue) public {... */\n    tag_4:\n      tag_10\n      0x04\n      dup1\n      calldatasize\n      sub\n      dup2\n      add\n      swap1\n      tag_11\n      swap2\n      swap1\n      tag_12\n      jump\t// in\n    tag_11:\n      tag_13\n      jump\t// in\n    tag_10:\n      stop\n        /* \"Campaign.sol\":88:121  address[] public deployedCampaign */\n    tag_5:\n      tag_14\n      0x04\n      dup1\n      calldatasize\n      sub\n      dup2\n      add\n      swap1\n      tag_15\n      swap2\n      swap1\n      tag_12\n      jump\t// in\n    tag_15:\n      tag_16\n      jump\t// in\n    tag_14:\n      mload(0x40)\n      tag_17\n      swap2\n      swap1\n      tag_18\n      jump\t// in\n    tag_17:\n      mload(0x40)\n      dup1\n      swap2\n      sub\n      swap1\n      return\n        /* \"Campaign.sol\":314:422  function getDeployedCampaign() public view returns(address[] memory){... */\n    tag_7:\n        /* \"Campaign.sol\":365:381  address[] memory */\n      0x60\n        /* \"Campaign.sol\":399:415  deployedCampaign */\n      0x00\n        /* \"Campaign.sol\":392:415  return deployedCampaign */\n      dup1\n      sload\n      dup1\n      0x20\n      mul\n      0x20\n      add\n      mload(0x40)\n      swap1\n      dup2\n      add\n      0x40\n      mstore\n      dup1\n      swap3\n      swap2\n      swap1\n      dup2\n      dup2\n      mstore\n      0x20\n      add\n      dup3\n      dup1\n      sload\n      dup1\n      iszero\n      tag_20\n      jumpi\n      0x20\n      mul\n      dup3\n      add\n      swap2\n      swap1\n      0x00\n      mstore\n      keccak256(0x00, 0x20)\n      swap1\n    tag_21:\n      dup2\n      0x00\n      swap1\n      sload\n      swap1\n      0x0100\n      exp\n      swap1\n      div\n      0xffffffffffffffffffffffffffffffffffffffff\n      and\n      0xffffffffffffffffffffffffffffffffffffffff\n      and\n      dup2\n      mstore\n      0x20\n      add\n      swap1\n      0x01\n      add\n      swap1\n      dup1\n      dup4\n      gt\n      tag_21\n      jumpi\n    tag_20:\n      pop\n      pop\n      pop\n      pop\n      pop\n      swap1\n      pop\n        /* \"Campaign.sol\":314:422  function getDeployedCampaign() public view returns(address[] memory){... */\n      swap1\n      jump\t// out\n        /* \"Campaign.sol\":128:308  function createCampaign(uint minimumValue) public {... */\n    tag_13:\n        /* \"Campaign.sol\":188:207  address newCampaign */\n      0x00\n        /* \"Campaign.sol\":231:243  minimumValue */\n      dup2\n        /* \"Campaign.sol\":245:255  msg.sender */\n      caller\n        /* \"Campaign.sol\":218:256  new Campaign(minimumValue, msg.sender) */\n      mload(0x40)\n      tag_23\n      swap1\n      tag_24\n      jump\t// in\n    tag_23:\n      tag_25\n      swap3\n      swap2\n      swap1\n      tag_26\n      jump\t// in\n    tag_25:\n      mload(0x40)\n      dup1\n      swap2\n      sub\n      swap1\n      0x00\n      create\n      dup1\n      iszero\n      dup1\n      iszero\n      tag_27\n      jumpi\n      returndatasize\n      0x00\n      dup1\n      returndatacopy\n      revert(0x00, returndatasize)\n    tag_27:\n      pop\n        /* \"Campaign.sol\":188:257  address newCampaign = address(new Campaign(minimumValue, msg.sender)) */\n      swap1\n      pop\n        /* \"Campaign.sol\":267:283  deployedCampaign */\n      0x00\n        /* \"Campaign.sol\":289:300  newCampaign */\n      dup2\n        /* \"Campaign.sol\":267:301  deployedCampaign.push(newCampaign) */\n      swap1\n      dup1\n      0x01\n      dup2\n      sload\n      add\n      dup1\n      dup3\n      sstore\n      dup1\n      swap2\n      pop\n      pop\n      0x01\n      swap1\n      sub\n      swap1\n      0x00\n      mstore\n      keccak256(0x00, 0x20)\n      add\n      0x00\n      swap1\n      swap2\n      swap1\n      swap2\n      swap1\n      swap2\n      0x0100\n      exp\n      dup2\n      sload\n      dup2\n      0xffffffffffffffffffffffffffffffffffffffff\n      mul\n      not\n      and\n      swap1\n      dup4\n      0xffffffffffffffffffffffffffffffffffffffff\n      and\n      mul\n      or\n      swap1\n      sstore\n      pop\n        /* \"Campaign.sol\":178:308  {... */\n      pop\n        /* \"Campaign.sol\":128:308  function createCampaign(uint minimumValue) public {... */\n      pop\n      jump\t// out\n        /* \"Campaign.sol\":88:121  address[] public deployedCampaign */\n    tag_16:\n      0x00\n      dup2\n      dup2\n      sload\n      dup2\n      lt\n      tag_29\n      jumpi\n      0x00\n      dup1\n      revert\n    tag_29:\n      swap1\n      0x00\n      mstore\n      keccak256(0x00, 0x20)\n      add\n      0x00\n      swap2\n      pop\n      sload\n      swap1\n      0x0100\n      exp\n      swap1\n      div\n      0xffffffffffffffffffffffffffffffffffffffff\n      and\n      dup2\n      jump\t// out\n    tag_24:\n      dataSize(sub_0)\n      dup1\n      dataOffset(sub_0)\n      dup4\n      codecopy\n      add\n      swap1\n      jump\t// out\n        /* \"#utility.yul\":7:121   */\n    tag_31:\n        /* \"#utility.yul\":74:80   */\n      0x00\n        /* \"#utility.yul\":108:113   */\n      dup2\n        /* \"#utility.yul\":102:114   */\n      mload\n        /* \"#utility.yul\":92:114   */\n      swap1\n      pop\n        /* \"#utility.yul\":7:121   */\n      swap2\n      swap1\n      pop\n      jump\t// out\n        /* \"#utility.yul\":127:311   */\n    tag_32:\n        /* \"#utility.yul\":226:237   */\n      0x00\n        /* \"#utility.yul\":260:266   */\n      dup3\n        /* \"#utility.yul\":255:258   */\n      dup3\n        /* \"#utility.yul\":248:267   */\n      mstore\n        /* \"#utility.yul\":300:304   */\n      0x20\n        /* \"#utility.yul\":295:298   */\n      dup3\n        /* \"#utility.yul\":291:305   */\n      add\n        /* \"#utility.yul\":276:305   */\n      swap1\n      pop\n        /* \"#utility.yul\":127:311   */\n      swap3\n      swap2\n      pop\n      pop\n      jump\t// out\n        /* \"#utility.yul\":317:449   */\n    tag_33:\n        /* \"#utility.yul\":384:388   */\n      0x00\n        /* \"#utility.yul\":407:410   */\n      dup2\n        /* \"#utility.yul\":399:410   */\n      swap1\n      pop\n        /* \"#utility.yul\":437:441   */\n      0x20\n        /* \"#utility.yul\":432:435   */\n      dup3\n        /* \"#utility.yul\":428:442   */\n      add\n        /* \"#utility.yul\":420:442   */\n      swap1\n      pop\n        /* \"#utility.yul\":317:449   */\n      swap2\n      swap1\n      pop\n      jump\t// out\n        /* \"#utility.yul\":455:581   */\n    tag_34:\n        /* \"#utility.yul\":492:499   */\n      0x00\n        /* \"#utility.yul\":532:574   */\n      0xffffffffffffffffffffffffffffffffffffffff\n        /* \"#utility.yul\":525:530   */\n      dup3\n        /* \"#utility.yul\":521:575   */\n      and\n        /* \"#utility.yul\":510:575   */\n      swap1\n      pop\n        /* \"#utility.yul\":455:581   */\n      swap2\n      swap1\n      pop\n      jump\t// out\n        /* \"#utility.yul\":587:683   */\n    tag_35:\n        /* \"#utility.yul\":624:631   */\n      0x00\n        /* \"#utility.yul\":653:677   */\n      tag_54\n        /* \"#utility.yul\":671:676   */\n      dup3\n        /* \"#utility.yul\":653:677   */\n      tag_34\n      jump\t// in\n    tag_54:\n        /* \"#utility.yul\":642:677   */\n      swap1\n      pop\n        /* \"#utility.yul\":587:683   */\n      swap2\n      swap1\n      pop\n      jump\t// out\n        /* \"#utility.yul\":689:797   */\n    tag_36:\n        /* \"#utility.yul\":766:790   */\n      tag_56\n        /* \"#utility.yul\":784:789   */\n      dup2\n        /* \"#utility.yul\":766:790   */\n      tag_35\n      jump\t// in\n    tag_56:\n        /* \"#utility.yul\":761:764   */\n      dup3\n        /* \"#utility.yul\":754:791   */\n      mstore\n        /* \"#utility.yul\":689:797   */\n      pop\n      pop\n      jump\t// out\n        /* \"#utility.yul\":803:982   */\n    tag_37:\n        /* \"#utility.yul\":872:882   */\n      0x00\n        /* \"#utility.yul\":893:939   */\n      tag_58\n        /* \"#utility.yul\":935:938   */\n      dup4\n        /* \"#utility.yul\":927:933   */\n      dup4\n        /* \"#utility.yul\":893:939   */\n      tag_36\n      jump\t// in\n    tag_58:\n        /* \"#utility.yul\":971:975   */\n      0x20\n        /* \"#utility.yul\":966:969   */\n      dup4\n        /* \"#utility.yul\":962:976   */\n      add\n        /* \"#utility.yul\":948:976   */\n      swap1\n      pop\n        /* \"#utility.yul\":803:982   */\n      swap3\n      swap2\n      pop\n      pop\n      jump\t// out\n        /* \"#utility.yul\":988:1101   */\n    tag_38:\n        /* \"#utility.yul\":1058:1062   */\n      0x00\n        /* \"#utility.yul\":1090:1094   */\n      0x20\n        /* \"#utility.yul\":1085:1088   */\n      dup3\n        /* \"#utility.yul\":1081:1095   */\n      add\n        /* \"#utility.yul\":1073:1095   */\n      swap1\n      pop\n        /* \"#utility.yul\":988:1101   */\n      swap2\n      swap1\n      pop\n      jump\t// out\n        /* \"#utility.yul\":1137:1869   */\n    tag_39:\n        /* \"#utility.yul\":1256:1259   */\n      0x00\n        /* \"#utility.yul\":1285:1339   */\n      tag_61\n        /* \"#utility.yul\":1333:1338   */\n      dup3\n        /* \"#utility.yul\":1285:1339   */\n      tag_31\n      jump\t// in\n    tag_61:\n        /* \"#utility.yul\":1355:1441   */\n      tag_62\n        /* \"#utility.yul\":1434:1440   */\n      dup2\n        /* \"#utility.yul\":1429:1432   */\n      dup6\n        /* \"#utility.yul\":1355:1441   */\n      tag_32\n      jump\t// in\n    tag_62:\n        /* \"#utility.yul\":1348:1441   */\n      swap4\n      pop\n        /* \"#utility.yul\":1465:1521   */\n      tag_63\n        /* \"#utility.yul\":1515:1520   */\n      dup4\n        /* \"#utility.yul\":1465:1521   */\n      tag_33\n      jump\t// in\n    tag_63:\n        /* \"#utility.yul\":1544:1551   */\n      dup1\n        /* \"#utility.yul\":1575:1576   */\n      0x00\n        /* \"#utility.yul\":1560:1844   */\n    tag_64:\n        /* \"#utility.yul\":1585:1591   */\n      dup4\n        /* \"#utility.yul\":1582:1583   */\n      dup2\n        /* \"#utility.yul\":1579:1592   */\n      lt\n        /* \"#utility.yul\":1560:1844   */\n      iszero\n      tag_66\n      jumpi\n        /* \"#utility.yul\":1661:1667   */\n      dup2\n        /* \"#utility.yul\":1655:1668   */\n      mload\n        /* \"#utility.yul\":1688:1751   */\n      tag_67\n        /* \"#utility.yul\":1747:1750   */\n      dup9\n        /* \"#utility.yul\":1732:1745   */\n      dup3\n        /* \"#utility.yul\":1688:1751   */\n      tag_37\n      jump\t// in\n    tag_67:\n        /* \"#utility.yul\":1681:1751   */\n      swap8\n      pop\n        /* \"#utility.yul\":1774:1834   */\n      tag_68\n        /* \"#utility.yul\":1827:1833   */\n      dup4\n        /* \"#utility.yul\":1774:1834   */\n      tag_38\n      jump\t// in\n    tag_68:\n        /* \"#utility.yul\":1764:1834   */\n      swap3\n      pop\n        /* \"#utility.yul\":1620:1844   */\n      pop\n        /* \"#utility.yul\":1607:1608   */\n      0x01\n        /* \"#utility.yul\":1604:1605   */\n      dup2\n        /* \"#utility.yul\":1600:1609   */\n      add\n        /* \"#utility.yul\":1595:1609   */\n      swap1\n      pop\n        /* \"#utility.yul\":1560:1844   */\n      jump(tag_64)\n    tag_66:\n        /* \"#utility.yul\":1564:1578   */\n      pop\n        /* \"#utility.yul\":1860:1863   */\n      dup6\n        /* \"#utility.yul\":1853:1863   */\n      swap4\n      pop\n        /* \"#utility.yul\":1261:1869   */\n      pop\n      pop\n      pop\n        /* \"#utility.yul\":1137:1869   */\n      swap3\n      swap2\n      pop\n      pop\n      jump\t// out\n        /* \"#utility.yul\":1875:2248   */\n    tag_9:\n        /* \"#utility.yul\":2018:2022   */\n      0x00\n        /* \"#utility.yul\":2056:2058   */\n      0x20\n        /* \"#utility.yul\":2045:2054   */\n      dup3\n        /* \"#utility.yul\":2041:2059   */\n      add\n        /* \"#utility.yul\":2033:2059   */\n      swap1\n      pop\n        /* \"#utility.yul\":2105:2114   */\n      dup2\n        /* \"#utility.yul\":2099:2103   */\n      dup2\n        /* \"#utility.yul\":2095:2115   */\n      sub\n        /* \"#utility.yul\":2091:2092   */\n      0x00\n        /* \"#utility.yul\":2080:2089   */\n      dup4\n        /* \"#utility.yul\":2076:2093   */\n      add\n        /* \"#utility.yul\":2069:2116   */\n      mstore\n        /* \"#utility.yul\":2133:2241   */\n      tag_70\n        /* \"#utility.yul\":2236:2240   */\n      dup2\n        /* \"#utility.yul\":2227:2233   */\n      dup5\n        /* \"#utility.yul\":2133:2241   */\n      tag_39\n      jump\t// in\n    tag_70:\n        /* \"#utility.yul\":2125:2241   */\n      swap1\n      pop\n        /* \"#utility.yul\":1875:2248   */\n      swap3\n      swap2\n      pop\n      pop\n      jump\t// out\n        /* \"#utility.yul\":2335:2452   */\n    tag_41:\n        /* \"#utility.yul\":2444:2445   */\n      0x00\n        /* \"#utility.yul\":2441:2442   */\n      dup1\n        /* \"#utility.yul\":2434:2446   */\n      revert\n        /* \"#utility.yul\":2581:2658   */\n    tag_43:\n        /* \"#utility.yul\":2618:2625   */\n      0x00\n        /* \"#utility.yul\":2647:2652   */\n      dup2\n        /* \"#utility.yul\":2636:2652   */\n      swap1\n      pop\n        /* \"#utility.yul\":2581:2658   */\n      swap2\n      swap1\n      pop\n      jump\t// out\n        /* \"#utility.yul\":2664:2786   */\n    tag_44:\n        /* \"#utility.yul\":2737:2761   */\n      tag_76\n        /* \"#utility.yul\":2755:2760   */\n      dup2\n        /* \"#utility.yul\":2737:2761   */\n      tag_43\n      jump\t// in\n    tag_76:\n        /* \"#utility.yul\":2730:2735   */\n      dup2\n        /* \"#utility.yul\":2727:2762   */\n      eq\n        /* \"#utility.yul\":2717:2780   */\n      tag_77\n      jumpi\n        /* \"#utility.yul\":2776:2777   */\n      0x00\n        /* \"#utility.yul\":2773:2774   */\n      dup1\n        /* \"#utility.yul\":2766:2778   */\n      revert\n        /* \"#utility.yul\":2717:2780   */\n    tag_77:\n        /* \"#utility.yul\":2664:2786   */\n      pop\n      jump\t// out\n        /* \"#utility.yul\":2792:2931   */\n    tag_45:\n        /* \"#utility.yul\":2838:2843   */\n      0x00\n        /* \"#utility.yul\":2876:2882   */\n      dup2\n        /* \"#utility.yul\":2863:2883   */\n      calldataload\n        /* \"#utility.yul\":2854:2883   */\n      swap1\n      pop\n        /* \"#utility.yul\":2892:2925   */\n      tag_79\n        /* \"#utility.yul\":2919:2924   */\n      dup2\n        /* \"#utility.yul\":2892:2925   */\n      tag_44\n      jump\t// in\n    tag_79:\n        /* \"#utility.yul\":2792:2931   */\n      swap3\n      swap2\n      pop\n      pop\n      jump\t// out\n        /* \"#utility.yul\":2937:3266   */\n    tag_12:\n        /* \"#utility.yul\":2996:3002   */\n      0x00\n        /* \"#utility.yul\":3045:3047   */\n      0x20\n        /* \"#utility.yul\":3033:3042   */\n      dup3\n        /* \"#utility.yul\":3024:3031   */\n      dup5\n        /* \"#utility.yul\":3020:3043   */\n      sub\n        /* \"#utility.yul\":3016:3048   */\n      slt\n        /* \"#utility.yul\":3013:3132   */\n      iszero\n      tag_81\n      jumpi\n        /* \"#utility.yul\":3051:3130   */\n      tag_82\n      tag_41\n      jump\t// in\n    tag_82:\n        /* \"#utility.yul\":3013:3132   */\n    tag_81:\n        /* \"#utility.yul\":3171:3172   */\n      0x00\n        /* \"#utility.yul\":3196:3249   */\n      tag_83\n        /* \"#utility.yul\":3241:3248   */\n      dup5\n        /* \"#utility.yul\":3232:3238   */\n      dup3\n        /* \"#utility.yul\":3221:3230   */\n      dup6\n        /* \"#utility.yul\":3217:3239   */\n      add\n        /* \"#utility.yul\":3196:3249   */\n      tag_45\n      jump\t// in\n    tag_83:\n        /* \"#utility.yul\":3186:3249   */\n      swap2\n      pop\n        /* \"#utility.yul\":3142:3259   */\n      pop\n        /* \"#utility.yul\":2937:3266   */\n      swap3\n      swap2\n      pop\n      pop\n      jump\t// out\n        /* \"#utility.yul\":3272:3390   */\n    tag_46:\n        /* \"#utility.yul\":3359:3383   */\n      tag_85\n        /* \"#utility.yul\":3377:3382   */\n      dup2\n        /* \"#utility.yul\":3359:3383   */\n      tag_35\n      jump\t// in\n    tag_85:\n        /* \"#utility.yul\":3354:3357   */\n      dup3\n        /* \"#utility.yul\":3347:3384   */\n      mstore\n        /* \"#utility.yul\":3272:3390   */\n      pop\n      pop\n      jump\t// out\n        /* \"#utility.yul\":3396:3618   */\n    tag_18:\n        /* \"#utility.yul\":3489:3493   */\n      0x00\n        /* \"#utility.yul\":3527:3529   */\n      0x20\n        /* \"#utility.yul\":3516:3525   */\n      dup3\n        /* \"#utility.yul\":3512:3530   */\n      add\n        /* \"#utility.yul\":3504:3530   */\n      swap1\n      pop\n        /* \"#utility.yul\":3540:3611   */\n      tag_87\n        /* \"#utility.yul\":3608:3609   */\n      0x00\n        /* \"#utility.yul\":3597:3606   */\n      dup4\n        /* \"#utility.yul\":3593:3610   */\n      add\n        /* \"#utility.yul\":3584:3590   */\n      dup5\n        /* \"#utility.yul\":3540:3611   */\n      tag_46\n      jump\t// in\n    tag_87:\n        /* \"#utility.yul\":3396:3618   */\n      swap3\n      swap2\n      pop\n      pop\n      jump\t// out\n        /* \"#utility.yul\":3624:3742   */\n    tag_47:\n        /* \"#utility.yul\":3711:3735   */\n      tag_89\n        /* \"#utility.yul\":3729:3734   */\n      dup2\n        /* \"#utility.yul\":3711:3735   */\n      tag_43\n      jump\t// in\n    tag_89:\n        /* \"#utility.yul\":3706:3709   */\n      dup3\n        /* \"#utility.yul\":3699:3736   */\n      mstore\n        /* \"#utility.yul\":3624:3742   */\n      pop\n      pop\n      jump\t// out\n        /* \"#utility.yul\":3748:4080   */\n    tag_26:\n        /* \"#utility.yul\":3869:3873   */\n      0x00\n        /* \"#utility.yul\":3907:3909   */\n      0x40\n        /* \"#utility.yul\":3896:3905   */\n      dup3\n        /* \"#utility.yul\":3892:3910   */\n      add\n        /* \"#utility.yul\":3884:3910   */\n      swap1\n      pop\n        /* \"#utility.yul\":3920:3991   */\n      tag_91\n        /* \"#utility.yul\":3988:3989   */\n      0x00\n        /* \"#utility.yul\":3977:3986   */\n      dup4\n        /* \"#utility.yul\":3973:3990   */\n      add\n        /* \"#utility.yul\":3964:3970   */\n      dup6\n        /* \"#utility.yul\":3920:3991   */\n      tag_47\n      jump\t// in\n    tag_91:\n        /* \"#utility.yul\":4001:4073   */\n      tag_92\n        /* \"#utility.yul\":4069:4071   */\n      0x20\n        /* \"#utility.yul\":4058:4067   */\n      dup4\n        /* \"#utility.yul\":4054:4072   */\n      add\n        /* \"#utility.yul\":4045:4051   */\n      dup5\n        /* \"#utility.yul\":4001:4073   */\n      tag_46\n      jump\t// in\n    tag_92:\n        /* \"#utility.yul\":3748:4080   */\n      swap4\n      swap3\n      pop\n      pop\n      pop\n      jump\t// out\n    stop\n\n    sub_0: assembly {\n            /* \"Campaign.sol\":426:2163  contract Campaign{... */\n          mstore(0x40, 0x80)\n            /* \"Campaign.sol\":950:1073  constructor(uint minimumValue, address sender){... */\n          callvalue\n          dup1\n          iszero\n          tag_1\n          jumpi\n          0x00\n          dup1\n          revert\n        tag_1:\n          pop\n          mload(0x40)\n          sub(codesize, bytecodeSize)\n          dup1\n          bytecodeSize\n          dup4\n          codecopy\n          dup2\n          dup2\n          add\n          0x40\n          mstore\n          dup2\n          add\n          swap1\n          tag_2\n          swap2\n          swap1\n          tag_3\n          jump\t// in\n        tag_2:\n            /* \"Campaign.sol\":1028:1040  minimumValue */\n          dup2\n            /* \"Campaign.sol\":1006:1025  minimumContribution */\n          0x00\n            /* \"Campaign.sol\":1006:1040  minimumContribution = minimumValue */\n          dup2\n          swap1\n          sstore\n          pop\n            /* \"Campaign.sol\":1060:1066  sender */\n          dup1\n            /* \"Campaign.sol\":1050:1057  manager */\n          0x02\n          0x00\n            /* \"Campaign.sol\":1050:1066  manager = sender */\n          0x0100\n          exp\n          dup2\n          sload\n          dup2\n          0xffffffffffffffffffffffffffffffffffffffff\n          mul\n          not\n          and\n          swap1\n          dup4\n          0xffffffffffffffffffffffffffffffffffffffff\n          and\n          mul\n          or\n          swap1\n          sstore\n          pop\n            /* \"Campaign.sol\":950:1073  constructor(uint minimumValue, address sender){... */\n          pop\n          pop\n            /* \"Campaign.sol\":426:2163  contract Campaign{... */\n          jump(tag_6)\n            /* \"#utility.yul\":88:205   */\n        tag_8:\n            /* \"#utility.yul\":197:198   */\n          0x00\n            /* \"#utility.yul\":194:195   */\n          dup1\n            /* \"#utility.yul\":187:199   */\n          revert\n            /* \"#utility.yul\":334:411   */\n        tag_10:\n            /* \"#utility.yul\":371:378   */\n          0x00\n            /* \"#utility.yul\":400:405   */\n          dup2\n            /* \"#utility.yul\":389:405   */\n          swap1\n          pop\n            /* \"#utility.yul\":334:411   */\n          swap2\n          swap1\n          pop\n          jump\t// out\n            /* \"#utility.yul\":417:539   */\n        tag_11:\n            /* \"#utility.yul\":490:514   */\n          tag_23\n            /* \"#utility.yul\":508:513   */\n          dup2\n            /* \"#utility.yul\":490:514   */\n          tag_10\n          jump\t// in\n        tag_23:\n            /* \"#utility.yul\":483:488   */\n          dup2\n            /* \"#utility.yul\":480:515   */\n          eq\n            /* \"#utility.yul\":470:533   */\n          tag_24\n          jumpi\n            /* \"#utility.yul\":529:530   */\n          0x00\n            /* \"#utility.yul\":526:527   */\n          dup1\n            /* \"#utility.yul\":519:531   */\n          revert\n            /* \"#utility.yul\":470:533   */\n        tag_24:\n            /* \"#utility.yul\":417:539   */\n          pop\n          jump\t// out\n            /* \"#utility.yul\":545:688   */\n        tag_12:\n            /* \"#utility.yul\":602:607   */\n          0x00\n            /* \"#utility.yul\":633:639   */\n          dup2\n            /* \"#utility.yul\":627:640   */\n          mload\n            /* \"#utility.yul\":618:640   */\n          swap1\n          pop\n            /* \"#utility.yul\":649:682   */\n          tag_26\n            /* \"#utility.yul\":676:681   */\n          dup2\n            /* \"#utility.yul\":649:682   */\n          tag_11\n          jump\t// in\n        tag_26:\n            /* \"#utility.yul\":545:688   */\n          swap3\n          swap2\n          pop\n          pop\n          jump\t// out\n            /* \"#utility.yul\":694:820   */\n        tag_13:\n            /* \"#utility.yul\":731:738   */\n          0x00\n            /* \"#utility.yul\":771:813   */\n          0xffffffffffffffffffffffffffffffffffffffff\n            /* \"#utility.yul\":764:769   */\n          dup3\n            /* \"#utility.yul\":760:814   */\n          and\n            /* \"#utility.yul\":749:814   */\n          swap1\n          pop\n            /* \"#utility.yul\":694:820   */\n          swap2\n          swap1\n          pop\n          jump\t// out\n            /* \"#utility.yul\":826:922   */\n        tag_14:\n            /* \"#utility.yul\":863:870   */\n          0x00\n            /* \"#utility.yul\":892:916   */\n          tag_29\n            /* \"#utility.yul\":910:915   */\n          dup3\n            /* \"#utility.yul\":892:916   */\n          tag_13\n          jump\t// in\n        tag_29:\n            /* \"#utility.yul\":881:916   */\n          swap1\n          pop\n            /* \"#utility.yul\":826:922   */\n          swap2\n          swap1\n          pop\n          jump\t// out\n            /* \"#utility.yul\":928:1050   */\n        tag_15:\n            /* \"#utility.yul\":1001:1025   */\n          tag_31\n            /* \"#utility.yul\":1019:1024   */\n          dup2\n            /* \"#utility.yul\":1001:1025   */\n          tag_14\n          jump\t// in\n        tag_31:\n            /* \"#utility.yul\":994:999   */\n          dup2\n            /* \"#utility.yul\":991:1026   */\n          eq\n            /* \"#utility.yul\":981:1044   */\n          tag_32\n          jumpi\n            /* \"#utility.yul\":1040:1041   */\n          0x00\n            /* \"#utility.yul\":1037:1038   */\n          dup1\n            /* \"#utility.yul\":1030:1042   */\n          revert\n            /* \"#utility.yul\":981:1044   */\n        tag_32:\n            /* \"#utility.yul\":928:1050   */\n          pop\n          jump\t// out\n            /* \"#utility.yul\":1056:1199   */\n        tag_16:\n            /* \"#utility.yul\":1113:1118   */\n          0x00\n            /* \"#utility.yul\":1144:1150   */\n          dup2\n            /* \"#utility.yul\":1138:1151   */\n          mload\n            /* \"#utility.yul\":1129:1151   */\n          swap1\n          pop\n            /* \"#utility.yul\":1160:1193   */\n          tag_34\n            /* \"#utility.yul\":1187:1192   */\n          dup2\n            /* \"#utility.yul\":1160:1193   */\n          tag_15\n          jump\t// in\n        tag_34:\n            /* \"#utility.yul\":1056:1199   */\n          swap3\n          swap2\n          pop\n          pop\n          jump\t// out\n            /* \"#utility.yul\":1205:1712   */\n        tag_3:\n            /* \"#utility.yul\":1284:1290   */\n          0x00\n            /* \"#utility.yul\":1292:1298   */\n          dup1\n            /* \"#utility.yul\":1341:1343   */\n          0x40\n            /* \"#utility.yul\":1329:1338   */\n          dup4\n            /* \"#utility.yul\":1320:1327   */\n          dup6\n            /* \"#utility.yul\":1316:1339   */\n          sub\n            /* \"#utility.yul\":1312:1344   */\n          slt\n            /* \"#utility.yul\":1309:1428   */\n          iszero\n          tag_36\n          jumpi\n            /* \"#utility.yul\":1347:1426   */\n          tag_37\n          tag_8\n          jump\t// in\n        tag_37:\n            /* \"#utility.yul\":1309:1428   */\n        tag_36:\n            /* \"#utility.yul\":1467:1468   */\n          0x00\n            /* \"#utility.yul\":1492:1556   */\n          tag_38\n            /* \"#utility.yul\":1548:1555   */\n          dup6\n            /* \"#utility.yul\":1539:1545   */\n          dup3\n            /* \"#utility.yul\":1528:1537   */\n          dup7\n            /* \"#utility.yul\":1524:1546   */\n          add\n            /* \"#utility.yul\":1492:1556   */\n          tag_12\n          jump\t// in\n        tag_38:\n            /* \"#utility.yul\":1482:1556   */\n          swap3\n          pop\n            /* \"#utility.yul\":1438:1566   */\n          pop\n            /* \"#utility.yul\":1605:1607   */\n          0x20\n            /* \"#utility.yul\":1631:1695   */\n          tag_39\n            /* \"#utility.yul\":1687:1694   */\n          dup6\n            /* \"#utility.yul\":1678:1684   */\n          dup3\n            /* \"#utility.yul\":1667:1676   */\n          dup7\n            /* \"#utility.yul\":1663:1685   */\n          add\n            /* \"#utility.yul\":1631:1695   */\n          tag_16\n          jump\t// in\n        tag_39:\n            /* \"#utility.yul\":1621:1695   */\n          swap2\n          pop\n            /* \"#utility.yul\":1576:1705   */\n          pop\n            /* \"#utility.yul\":1205:1712   */\n          swap3\n          pop\n          swap3\n          swap1\n          pop\n          jump\t// out\n            /* \"Campaign.sol\":426:2163  contract Campaign{... */\n        tag_6:\n          dataSize(sub_0)\n          dup1\n          dataOffset(sub_0)\n          0x00\n          codecopy\n          0x00\n          return\n        stop\n\n        sub_0: assembly {\n                /* \"Campaign.sol\":426:2163  contract Campaign{... */\n              mstore(0x40, 0x80)\n              jumpi(tag_1, lt(calldatasize, 0x04))\n              shr(0xe0, calldataload(0x00))\n              dup1\n              0x937e09b1\n              gt\n              tag_10\n              jumpi\n              dup1\n              0x937e09b1\n              eq\n              tag_6\n              jumpi\n              dup1\n              0xd7bb99ba\n              eq\n              tag_7\n              jumpi\n              dup1\n              0xd7d1bbdb\n              eq\n              tag_8\n              jumpi\n              dup1\n              0xe7b668b4\n              eq\n              tag_9\n              jumpi\n              jump(tag_1)\n            tag_10:\n              dup1\n              0x0a144391\n              eq\n              tag_2\n              jumpi\n              dup1\n              0x481c6a75\n              eq\n              tag_3\n              jumpi\n              dup1\n              0x82fde093\n              eq\n              tag_4\n              jumpi\n              dup1\n              0x8a9cfd55\n              eq\n              tag_5\n              jumpi\n            tag_1:\n              0x00\n              dup1\n              revert\n                /* \"Campaign.sol\":736:777  mapping(address => bool) public approvers */\n            tag_2:\n              callvalue\n              dup1\n              iszero\n              tag_11\n              jumpi\n              0x00\n              dup1\n              revert\n            tag_11:\n              pop\n              tag_12\n              0x04\n              dup1\n              calldatasize\n              sub\n              dup2\n              add\n              swap1\n              tag_13\n              swap2\n              swap1\n              tag_14\n              jump\t// in\n            tag_13:\n              tag_15\n              jump\t// in\n            tag_12:\n              mload(0x40)\n              tag_16\n              swap2\n              swap1\n              tag_17\n              jump\t// in\n            tag_16:\n              mload(0x40)\n              dup1\n              swap2\n              sub\n              swap1\n              return\n                /* \"Campaign.sol\":708:730  address public manager */\n            tag_3:\n              callvalue\n              dup1\n              iszero\n              tag_18\n              jumpi\n              0x00\n              dup1\n              revert\n            tag_18:\n              pop\n              tag_19\n              tag_20\n              jump\t// in\n            tag_19:\n              mload(0x40)\n              tag_21\n              swap2\n              swap1\n              tag_22\n              jump\t// in\n            tag_21:\n              mload(0x40)\n              dup1\n              swap2\n              sub\n              swap1\n              return\n                /* \"Campaign.sol\":783:809  uint public approversCount */\n            tag_4:\n              callvalue\n              dup1\n              iszero\n              tag_23\n              jumpi\n              0x00\n              dup1\n              revert\n            tag_23:\n              pop\n              tag_24\n              tag_25\n              jump\t// in\n            tag_24:\n              mload(0x40)\n              tag_26\n              swap2\n              swap1\n              tag_27\n              jump\t// in\n            tag_26:\n              mload(0x40)\n              dup1\n              swap2\n              sub\n              swap1\n              return\n                /* \"Campaign.sol\":1241:1580  function createRequest(string memory description, uint value, address recipient) public restricted {... */\n            tag_5:\n              callvalue\n              dup1\n              iszero\n              tag_28\n              jumpi\n              0x00\n              dup1\n              revert\n            tag_28:\n              pop\n              tag_29\n              0x04\n              dup1\n              calldatasize\n              sub\n              dup2\n              add\n              swap1\n              tag_30\n              swap2\n              swap1\n              tag_31\n              jump\t// in\n            tag_30:\n              tag_32\n              jump\t// in\n            tag_29:\n              stop\n                /* \"Campaign.sol\":650:681  uint public minimumContribution */\n            tag_6:\n              callvalue\n              dup1\n              iszero\n              tag_33\n              jumpi\n              0x00\n              dup1\n              revert\n            tag_33:\n              pop\n              tag_34\n              tag_35\n              jump\t// in\n            tag_34:\n              mload(0x40)\n              tag_36\n              swap2\n              swap1\n              tag_27\n              jump\t// in\n            tag_36:\n              mload(0x40)\n              dup1\n              swap2\n              sub\n              swap1\n              return\n                /* \"Campaign.sol\":1079:1235  function contribute() public payable {... */\n            tag_7:\n              tag_37\n              tag_38\n              jump\t// in\n            tag_37:\n              stop\n                /* \"Campaign.sol\":1586:1853  function approveRequest(uint index)public {... */\n            tag_8:\n              callvalue\n              dup1\n              iszero\n              tag_39\n              jumpi\n              0x00\n              dup1\n              revert\n            tag_39:\n              pop\n              tag_40\n              0x04\n              dup1\n              calldatasize\n              sub\n              dup2\n              add\n              swap1\n              tag_41\n              swap2\n              swap1\n              tag_42\n              jump\t// in\n            tag_41:\n              tag_43\n              jump\t// in\n            tag_40:\n              stop\n                /* \"Campaign.sol\":1859:2161  function finaliseRequest(uint index)public restricted{... */\n            tag_9:\n              callvalue\n              dup1\n              iszero\n              tag_44\n              jumpi\n              0x00\n              dup1\n              revert\n            tag_44:\n              pop\n              tag_45\n              0x04\n              dup1\n              calldatasize\n              sub\n              dup2\n              add\n              swap1\n              tag_46\n              swap2\n              swap1\n              tag_42\n              jump\t// in\n            tag_46:\n              tag_47\n              jump\t// in\n            tag_45:\n              stop\n                /* \"Campaign.sol\":736:777  mapping(address => bool) public approvers */\n            tag_15:\n              mstore(0x20, 0x03)\n              dup1\n              0x00\n              mstore\n              keccak256(0x00, 0x40)\n              0x00\n              swap2\n              pop\n              sload\n              swap1\n              0x0100\n              exp\n              swap1\n              div\n              0xff\n              and\n              dup2\n              jump\t// out\n                /* \"Campaign.sol\":708:730  address public manager */\n            tag_20:\n              0x02\n              0x00\n              swap1\n              sload\n              swap1\n              0x0100\n              exp\n              swap1\n              div\n              0xffffffffffffffffffffffffffffffffffffffff\n              and\n              dup2\n              jump\t// out\n                /* \"Campaign.sol\":783:809  uint public approversCount */\n            tag_25:\n              sload(0x04)\n              dup2\n              jump\t// out\n                /* \"Campaign.sol\":1241:1580  function createRequest(string memory description, uint value, address recipient) public restricted {... */\n            tag_32:\n                /* \"Campaign.sol\":918:925  manager */\n              0x02\n              0x00\n              swap1\n              sload\n              swap1\n              0x0100\n              exp\n              swap1\n              div\n              0xffffffffffffffffffffffffffffffffffffffff\n              and\n                /* \"Campaign.sol\":904:925  msg.sender == manager */\n              0xffffffffffffffffffffffffffffffffffffffff\n              and\n                /* \"Campaign.sol\":904:914  msg.sender */\n              caller\n                /* \"Campaign.sol\":904:925  msg.sender == manager */\n              0xffffffffffffffffffffffffffffffffffffffff\n              and\n              eq\n                /* \"Campaign.sol\":896:926  require(msg.sender == manager) */\n              tag_49\n              jumpi\n              0x00\n              dup1\n              revert\n            tag_49:\n                /* \"Campaign.sol\":1350:1373  Request storage request */\n              0x00\n                /* \"Campaign.sol\":1376:1384  requests */\n              0x05\n                /* \"Campaign.sol\":1376:1398  requests[numRequest++] */\n              0x00\n                /* \"Campaign.sol\":1385:1395  numRequest */\n              0x01\n              0x00\n                /* \"Campaign.sol\":1385:1397  numRequest++ */\n              dup2\n              sload\n              dup1\n              swap3\n              swap2\n              swap1\n              tag_51\n              swap1\n              tag_52\n              jump\t// in\n            tag_51:\n              swap2\n              swap1\n              pop\n              sstore\n                /* \"Campaign.sol\":1376:1398  requests[numRequest++] */\n              dup2\n              mstore\n              0x20\n              add\n              swap1\n              dup2\n              mstore\n              0x20\n              add\n              0x00\n              keccak256\n                /* \"Campaign.sol\":1350:1398  Request storage request = requests[numRequest++] */\n              swap1\n              pop\n                /* \"Campaign.sol\":1430:1441  description */\n              dup4\n                /* \"Campaign.sol\":1409:1416  request */\n              dup2\n                /* \"Campaign.sol\":1409:1428  request.description */\n              0x00\n              add\n                /* \"Campaign.sol\":1409:1441  request.description= description */\n              swap1\n              dup2\n              tag_53\n              swap2\n              swap1\n              tag_54\n              jump\t// in\n            tag_53:\n              pop\n                /* \"Campaign.sol\":1465:1470  value */\n              dup3\n                /* \"Campaign.sol\":1451:1458  request */\n              dup2\n                /* \"Campaign.sol\":1451:1464  request.value */\n              0x01\n              add\n                /* \"Campaign.sol\":1451:1470  request.value=value */\n              dup2\n              swap1\n              sstore\n              pop\n                /* \"Campaign.sol\":1498:1507  recipient */\n              dup2\n                /* \"Campaign.sol\":1480:1487  request */\n              dup2\n                /* \"Campaign.sol\":1480:1497  request.recipient */\n              0x02\n              add\n              0x00\n                /* \"Campaign.sol\":1480:1507  request.recipient=recipient */\n              0x0100\n              exp\n              dup2\n              sload\n              dup2\n              0xffffffffffffffffffffffffffffffffffffffff\n              mul\n              not\n              and\n              swap1\n              dup4\n              0xffffffffffffffffffffffffffffffffffffffff\n              and\n              mul\n              or\n              swap1\n              sstore\n              pop\n                /* \"Campaign.sol\":1534:1539  false */\n              0x00\n                /* \"Campaign.sol\":1517:1524  request */\n              dup2\n                /* \"Campaign.sol\":1517:1533  request.complete */\n              0x02\n              add\n              0x14\n                /* \"Campaign.sol\":1517:1539  request.complete=false */\n              0x0100\n              exp\n              dup2\n              sload\n              dup2\n              0xff\n              mul\n              not\n              and\n              swap1\n              dup4\n              iszero\n              iszero\n              mul\n              or\n              swap1\n              sstore\n              pop\n                /* \"Campaign.sol\":1571:1572  0 */\n              0x00\n                /* \"Campaign.sol\":1549:1556  request */\n              dup2\n                /* \"Campaign.sol\":1549:1570  request.approvalCount */\n              0x03\n              add\n                /* \"Campaign.sol\":1549:1572  request.approvalCount=0 */\n              dup2\n              swap1\n              sstore\n              pop\n                /* \"Campaign.sol\":1340:1580  {... */\n              pop\n                /* \"Campaign.sol\":1241:1580  function createRequest(string memory description, uint value, address recipient) public restricted {... */\n              pop\n              pop\n              pop\n              jump\t// out\n                /* \"Campaign.sol\":650:681  uint public minimumContribution */\n            tag_35:\n              sload(0x00)\n              dup2\n              jump\t// out\n                /* \"Campaign.sol\":1079:1235  function contribute() public payable {... */\n            tag_38:\n                /* \"Campaign.sol\":1146:1165  minimumContribution */\n              sload(0x00)\n                /* \"Campaign.sol\":1134:1143  msg.value */\n              callvalue\n                /* \"Campaign.sol\":1134:1165  msg.value > minimumContribution */\n              gt\n                /* \"Campaign.sol\":1126:1166  require(msg.value > minimumContribution) */\n              tag_56\n              jumpi\n              0x00\n              dup1\n              revert\n            tag_56:\n                /* \"Campaign.sol\":1198:1202  true */\n              0x01\n                /* \"Campaign.sol\":1176:1185  approvers */\n              0x03\n                /* \"Campaign.sol\":1176:1197  approvers[msg.sender] */\n              0x00\n                /* \"Campaign.sol\":1186:1196  msg.sender */\n              caller\n                /* \"Campaign.sol\":1176:1197  approvers[msg.sender] */\n              0xffffffffffffffffffffffffffffffffffffffff\n              and\n              0xffffffffffffffffffffffffffffffffffffffff\n              and\n              dup2\n              mstore\n              0x20\n              add\n              swap1\n              dup2\n              mstore\n              0x20\n              add\n              0x00\n              keccak256\n              0x00\n                /* \"Campaign.sol\":1176:1202  approvers[msg.sender]=true */\n              0x0100\n              exp\n              dup2\n              sload\n              dup2\n              0xff\n              mul\n              not\n              and\n              swap1\n              dup4\n              iszero\n              iszero\n              mul\n              or\n              swap1\n              sstore\n              pop\n                /* \"Campaign.sol\":1212:1226  approversCount */\n              0x04\n              0x00\n                /* \"Campaign.sol\":1212:1228  approversCount++ */\n              dup2\n              sload\n              dup1\n              swap3\n              swap2\n              swap1\n              tag_57\n              swap1\n              tag_52\n              jump\t// in\n            tag_57:\n              swap2\n              swap1\n              pop\n              sstore\n              pop\n                /* \"Campaign.sol\":1079:1235  function contribute() public payable {... */\n              jump\t// out\n                /* \"Campaign.sol\":1586:1853  function approveRequest(uint index)public {... */\n            tag_43:\n                /* \"Campaign.sol\":1638:1661  Request storage request */\n              0x00\n                /* \"Campaign.sol\":1664:1672  requests */\n              0x05\n                /* \"Campaign.sol\":1664:1679  requests[index] */\n              0x00\n                /* \"Campaign.sol\":1673:1678  index */\n              dup4\n                /* \"Campaign.sol\":1664:1679  requests[index] */\n              dup2\n              mstore\n              0x20\n              add\n              swap1\n              dup2\n              mstore\n              0x20\n              add\n              0x00\n              keccak256\n                /* \"Campaign.sol\":1638:1679  Request storage request = requests[index] */\n              swap1\n              pop\n                /* \"Campaign.sol\":1697:1706  approvers */\n              0x03\n                /* \"Campaign.sol\":1697:1718  approvers[msg.sender] */\n              0x00\n                /* \"Campaign.sol\":1707:1717  msg.sender */\n              caller\n                /* \"Campaign.sol\":1697:1718  approvers[msg.sender] */\n              0xffffffffffffffffffffffffffffffffffffffff\n              and\n              0xffffffffffffffffffffffffffffffffffffffff\n              and\n              dup2\n              mstore\n              0x20\n              add\n              swap1\n              dup2\n              mstore\n              0x20\n              add\n              0x00\n              keccak256\n              0x00\n              swap1\n              sload\n              swap1\n              0x0100\n              exp\n              swap1\n              div\n              0xff\n              and\n                /* \"Campaign.sol\":1689:1719  require(approvers[msg.sender]) */\n              tag_59\n              jumpi\n              0x00\n              dup1\n              revert\n            tag_59:\n                /* \"Campaign.sol\":1738:1745  request */\n              dup1\n                /* \"Campaign.sol\":1738:1755  request.approvals */\n              0x04\n              add\n                /* \"Campaign.sol\":1738:1767  request.approvals[msg.sender] */\n              0x00\n                /* \"Campaign.sol\":1756:1766  msg.sender */\n              caller\n                /* \"Campaign.sol\":1738:1767  request.approvals[msg.sender] */\n              0xffffffffffffffffffffffffffffffffffffffff\n              and\n              0xffffffffffffffffffffffffffffffffffffffff\n              and\n              dup2\n              mstore\n              0x20\n              add\n              swap1\n              dup2\n              mstore\n              0x20\n              add\n              0x00\n              keccak256\n              0x00\n              swap1\n              sload\n              swap1\n              0x0100\n              exp\n              swap1\n              div\n              0xff\n              and\n                /* \"Campaign.sol\":1737:1767  !request.approvals[msg.sender] */\n              iszero\n                /* \"Campaign.sol\":1729:1768  require(!request.approvals[msg.sender]) */\n              tag_60\n              jumpi\n              0x00\n              dup1\n              revert\n            tag_60:\n                /* \"Campaign.sol\":1809:1813  true */\n              0x01\n                /* \"Campaign.sol\":1779:1786  request */\n              dup2\n                /* \"Campaign.sol\":1779:1796  request.approvals */\n              0x04\n              add\n                /* \"Campaign.sol\":1779:1808  request.approvals[msg.sender] */\n              0x00\n                /* \"Campaign.sol\":1797:1807  msg.sender */\n              caller\n                /* \"Campaign.sol\":1779:1808  request.approvals[msg.sender] */\n              0xffffffffffffffffffffffffffffffffffffffff\n              and\n              0xffffffffffffffffffffffffffffffffffffffff\n              and\n              dup2\n              mstore\n              0x20\n              add\n              swap1\n              dup2\n              mstore\n              0x20\n              add\n              0x00\n              keccak256\n              0x00\n                /* \"Campaign.sol\":1779:1813  request.approvals[msg.sender]=true */\n              0x0100\n              exp\n              dup2\n              sload\n              dup2\n              0xff\n              mul\n              not\n              and\n              swap1\n              dup4\n              iszero\n              iszero\n              mul\n              or\n              swap1\n              sstore\n              pop\n                /* \"Campaign.sol\":1823:1830  request */\n              dup1\n                /* \"Campaign.sol\":1823:1844  request.approvalCount */\n              0x03\n              add\n              0x00\n                /* \"Campaign.sol\":1823:1846  request.approvalCount++ */\n              dup2\n              sload\n              dup1\n              swap3\n              swap2\n              swap1\n              tag_61\n              swap1\n              tag_52\n              jump\t// in\n            tag_61:\n              swap2\n              swap1\n              pop\n              sstore\n              pop\n                /* \"Campaign.sol\":1628:1853  {... */\n              pop\n                /* \"Campaign.sol\":1586:1853  function approveRequest(uint index)public {... */\n              pop\n              jump\t// out\n                /* \"Campaign.sol\":1859:2161  function finaliseRequest(uint index)public restricted{... */\n            tag_47:\n                /* \"Campaign.sol\":918:925  manager */\n              0x02\n              0x00\n              swap1\n              sload\n              swap1\n              0x0100\n              exp\n              swap1\n              div\n              0xffffffffffffffffffffffffffffffffffffffff\n              and\n                /* \"Campaign.sol\":904:925  msg.sender == manager */\n              0xffffffffffffffffffffffffffffffffffffffff\n              and\n                /* \"Campaign.sol\":904:914  msg.sender */\n              caller\n                /* \"Campaign.sol\":904:925  msg.sender == manager */\n              0xffffffffffffffffffffffffffffffffffffffff\n              and\n              eq\n                /* \"Campaign.sol\":896:926  require(msg.sender == manager) */\n              tag_63\n              jumpi\n              0x00\n              dup1\n              revert\n            tag_63:\n                /* \"Campaign.sol\":1922:1945  Request storage request */\n              0x00\n                /* \"Campaign.sol\":1948:1956  requests */\n              0x05\n                /* \"Campaign.sol\":1948:1963  requests[index] */\n              0x00\n                /* \"Campaign.sol\":1957:1962  index */\n              dup4\n                /* \"Campaign.sol\":1948:1963  requests[index] */\n              dup2\n              mstore\n              0x20\n              add\n              swap1\n              dup2\n              mstore\n              0x20\n              add\n              0x00\n              keccak256\n                /* \"Campaign.sol\":1922:1963  Request storage request = requests[index] */\n              swap1\n              pop\n                /* \"Campaign.sol\":1983:1990  request */\n              dup1\n                /* \"Campaign.sol\":1983:1999  request.complete */\n              0x02\n              add\n              0x14\n              swap1\n              sload\n              swap1\n              0x0100\n              exp\n              swap1\n              div\n              0xff\n              and\n                /* \"Campaign.sol\":1982:1999  !request.complete */\n              iszero\n                /* \"Campaign.sol\":1974:2000  require(!request.complete) */\n              tag_65\n              jumpi\n              0x00\n              dup1\n              revert\n            tag_65:\n                /* \"Campaign.sol\":2058:2059  2 */\n              0x02\n                /* \"Campaign.sol\":2043:2057  approversCount */\n              sload(0x04)\n                /* \"Campaign.sol\":2043:2059  approversCount/2 */\n              tag_66\n              swap2\n              swap1\n              tag_67\n              jump\t// in\n            tag_66:\n                /* \"Campaign.sol\":2018:2025  request */\n              dup2\n                /* \"Campaign.sol\":2018:2039  request.approvalCount */\n              0x03\n              add\n              sload\n                /* \"Campaign.sol\":2018:2060  request.approvalCount > (approversCount/2) */\n              gt\n                /* \"Campaign.sol\":2010:2061  require(request.approvalCount > (approversCount/2)) */\n              tag_68\n              jumpi\n              0x00\n              dup1\n              revert\n            tag_68:\n                /* \"Campaign.sol\":2080:2087  request */\n              dup1\n                /* \"Campaign.sol\":2080:2097  request.recipient */\n              0x02\n              add\n              0x00\n              swap1\n              sload\n              swap1\n              0x0100\n              exp\n              swap1\n              div\n              0xffffffffffffffffffffffffffffffffffffffff\n              and\n                /* \"Campaign.sol\":2072:2107  payable(request.recipient).transfer */\n              0xffffffffffffffffffffffffffffffffffffffff\n              and\n                /* \"Campaign.sol\":2072:2122  payable(request.recipient).transfer(request.value) */\n              0x08fc\n                /* \"Campaign.sol\":2108:2115  request */\n              dup3\n                /* \"Campaign.sol\":2108:2121  request.value */\n              0x01\n              add\n              sload\n                /* \"Campaign.sol\":2072:2122  payable(request.recipient).transfer(request.value) */\n              swap1\n              dup2\n              iszero\n              mul\n              swap1\n              mload(0x40)\n              0x00\n              mload(0x40)\n              dup1\n              dup4\n              sub\n              dup2\n              dup6\n              dup9\n              dup9\n              call\n              swap4\n              pop\n              pop\n              pop\n              pop\n              iszero\n              dup1\n              iszero\n              tag_70\n              jumpi\n              returndatasize\n              0x00\n              dup1\n              returndatacopy\n              revert(0x00, returndatasize)\n            tag_70:\n              pop\n                /* \"Campaign.sol\":2150:2154  true */\n              0x01\n                /* \"Campaign.sol\":2133:2140  request */\n              dup2\n                /* \"Campaign.sol\":2133:2149  request.complete */\n              0x02\n              add\n              0x14\n                /* \"Campaign.sol\":2133:2154  request.complete=true */\n              0x0100\n              exp\n              dup2\n              sload\n              dup2\n              0xff\n              mul\n              not\n              and\n              swap1\n              dup4\n              iszero\n              iszero\n              mul\n              or\n              swap1\n              sstore\n              pop\n                /* \"Campaign.sol\":1912:2161  {... */\n              pop\n                /* \"Campaign.sol\":1859:2161  function finaliseRequest(uint index)public restricted{... */\n              pop\n              jump\t// out\n                /* \"#utility.yul\":7:82   */\n            tag_71:\n                /* \"#utility.yul\":40:46   */\n              0x00\n                /* \"#utility.yul\":73:75   */\n              0x40\n                /* \"#utility.yul\":67:76   */\n              mload\n                /* \"#utility.yul\":57:76   */\n              swap1\n              pop\n                /* \"#utility.yul\":7:82   */\n              swap1\n              jump\t// out\n                /* \"#utility.yul\":88:205   */\n            tag_72:\n                /* \"#utility.yul\":197:198   */\n              0x00\n                /* \"#utility.yul\":194:195   */\n              dup1\n                /* \"#utility.yul\":187:199   */\n              revert\n                /* \"#utility.yul\":211:328   */\n            tag_73:\n                /* \"#utility.yul\":320:321   */\n              0x00\n                /* \"#utility.yul\":317:318   */\n              dup1\n                /* \"#utility.yul\":310:322   */\n              revert\n                /* \"#utility.yul\":334:460   */\n            tag_74:\n                /* \"#utility.yul\":371:378   */\n              0x00\n                /* \"#utility.yul\":411:453   */\n              0xffffffffffffffffffffffffffffffffffffffff\n                /* \"#utility.yul\":404:409   */\n              dup3\n                /* \"#utility.yul\":400:454   */\n              and\n                /* \"#utility.yul\":389:454   */\n              swap1\n              pop\n                /* \"#utility.yul\":334:460   */\n              swap2\n              swap1\n              pop\n              jump\t// out\n                /* \"#utility.yul\":466:562   */\n            tag_75:\n                /* \"#utility.yul\":503:510   */\n              0x00\n                /* \"#utility.yul\":532:556   */\n              tag_121\n                /* \"#utility.yul\":550:555   */\n              dup3\n                /* \"#utility.yul\":532:556   */\n              tag_74\n              jump\t// in\n            tag_121:\n                /* \"#utility.yul\":521:556   */\n              swap1\n              pop\n                /* \"#utility.yul\":466:562   */\n              swap2\n              swap1\n              pop\n              jump\t// out\n                /* \"#utility.yul\":568:690   */\n            tag_76:\n                /* \"#utility.yul\":641:665   */\n              tag_123\n                /* \"#utility.yul\":659:664   */\n              dup2\n                /* \"#utility.yul\":641:665   */\n              tag_75\n              jump\t// in\n            tag_123:\n                /* \"#utility.yul\":634:639   */\n              dup2\n                /* \"#utility.yul\":631:666   */\n              eq\n                /* \"#utility.yul\":621:684   */\n              tag_124\n              jumpi\n                /* \"#utility.yul\":680:681   */\n              0x00\n                /* \"#utility.yul\":677:678   */\n              dup1\n                /* \"#utility.yul\":670:682   */\n              revert\n                /* \"#utility.yul\":621:684   */\n            tag_124:\n                /* \"#utility.yul\":568:690   */\n              pop\n              jump\t// out\n                /* \"#utility.yul\":696:835   */\n            tag_77:\n                /* \"#utility.yul\":742:747   */\n              0x00\n                /* \"#utility.yul\":780:786   */\n              dup2\n                /* \"#utility.yul\":767:787   */\n              calldataload\n                /* \"#utility.yul\":758:787   */\n              swap1\n              pop\n                /* \"#utility.yul\":796:829   */\n              tag_126\n                /* \"#utility.yul\":823:828   */\n              dup2\n                /* \"#utility.yul\":796:829   */\n              tag_76\n              jump\t// in\n            tag_126:\n                /* \"#utility.yul\":696:835   */\n              swap3\n              swap2\n              pop\n              pop\n              jump\t// out\n                /* \"#utility.yul\":841:1170   */\n            tag_14:\n                /* \"#utility.yul\":900:906   */\n              0x00\n                /* \"#utility.yul\":949:951   */\n              0x20\n                /* \"#utility.yul\":937:946   */\n              dup3\n                /* \"#utility.yul\":928:935   */\n              dup5\n                /* \"#utility.yul\":924:947   */\n              sub\n                /* \"#utility.yul\":920:952   */\n              slt\n                /* \"#utility.yul\":917:1036   */\n              iszero\n              tag_128\n              jumpi\n                /* \"#utility.yul\":955:1034   */\n              tag_129\n              tag_72\n              jump\t// in\n            tag_129:\n                /* \"#utility.yul\":917:1036   */\n            tag_128:\n                /* \"#utility.yul\":1075:1076   */\n              0x00\n                /* \"#utility.yul\":1100:1153   */\n              tag_130\n                /* \"#utility.yul\":1145:1152   */\n              dup5\n                /* \"#utility.yul\":1136:1142   */\n              dup3\n                /* \"#utility.yul\":1125:1134   */\n              dup6\n                /* \"#utility.yul\":1121:1143   */\n              add\n                /* \"#utility.yul\":1100:1153   */\n              tag_77\n              jump\t// in\n            tag_130:\n                /* \"#utility.yul\":1090:1153   */\n              swap2\n              pop\n                /* \"#utility.yul\":1046:1163   */\n              pop\n                /* \"#utility.yul\":841:1170   */\n              swap3\n              swap2\n              pop\n              pop\n              jump\t// out\n                /* \"#utility.yul\":1176:1266   */\n            tag_78:\n                /* \"#utility.yul\":1210:1217   */\n              0x00\n                /* \"#utility.yul\":1253:1258   */\n              dup2\n                /* \"#utility.yul\":1246:1259   */\n              iszero\n                /* \"#utility.yul\":1239:1260   */\n              iszero\n                /* \"#utility.yul\":1228:1260   */\n              swap1\n              pop\n                /* \"#utility.yul\":1176:1266   */\n              swap2\n              swap1\n              pop\n              jump\t// out\n                /* \"#utility.yul\":1272:1381   */\n            tag_79:\n                /* \"#utility.yul\":1353:1374   */\n              tag_133\n                /* \"#utility.yul\":1368:1373   */\n              dup2\n                /* \"#utility.yul\":1353:1374   */\n              tag_78\n              jump\t// in\n            tag_133:\n                /* \"#utility.yul\":1348:1351   */\n              dup3\n                /* \"#utility.yul\":1341:1375   */\n              mstore\n                /* \"#utility.yul\":1272:1381   */\n              pop\n              pop\n              jump\t// out\n                /* \"#utility.yul\":1387:1597   */\n            tag_17:\n                /* \"#utility.yul\":1474:1478   */\n              0x00\n                /* \"#utility.yul\":1512:1514   */\n              0x20\n                /* \"#utility.yul\":1501:1510   */\n              dup3\n                /* \"#utility.yul\":1497:1515   */\n              add\n                /* \"#utility.yul\":1489:1515   */\n              swap1\n              pop\n                /* \"#utility.yul\":1525:1590   */\n              tag_135\n                /* \"#utility.yul\":1587:1588   */\n              0x00\n                /* \"#utility.yul\":1576:1585   */\n              dup4\n                /* \"#utility.yul\":1572:1589   */\n              add\n                /* \"#utility.yul\":1563:1569   */\n              dup5\n                /* \"#utility.yul\":1525:1590   */\n              tag_79\n              jump\t// in\n            tag_135:\n                /* \"#utility.yul\":1387:1597   */\n              swap3\n              swap2\n              pop\n              pop\n              jump\t// out\n                /* \"#utility.yul\":1603:1721   */\n            tag_80:\n                /* \"#utility.yul\":1690:1714   */\n              tag_137\n                /* \"#utility.yul\":1708:1713   */\n              dup2\n                /* \"#utility.yul\":1690:1714   */\n              tag_75\n              jump\t// in\n            tag_137:\n                /* \"#utility.yul\":1685:1688   */\n              dup3\n                /* \"#utility.yul\":1678:1715   */\n              mstore\n                /* \"#utility.yul\":1603:1721   */\n              pop\n              pop\n              jump\t// out\n                /* \"#utility.yul\":1727:1949   */\n            tag_22:\n                /* \"#utility.yul\":1820:1824   */\n              0x00\n                /* \"#utility.yul\":1858:1860   */\n              0x20\n                /* \"#utility.yul\":1847:1856   */\n              dup3\n                /* \"#utility.yul\":1843:1861   */\n              add\n                /* \"#utility.yul\":1835:1861   */\n              swap1\n              pop\n                /* \"#utility.yul\":1871:1942   */\n              tag_139\n                /* \"#utility.yul\":1939:1940   */\n              0x00\n                /* \"#utility.yul\":1928:1937   */\n              dup4\n                /* \"#utility.yul\":1924:1941   */\n              add\n                /* \"#utility.yul\":1915:1921   */\n              dup5\n                /* \"#utility.yul\":1871:1942   */\n              tag_80\n              jump\t// in\n            tag_139:\n                /* \"#utility.yul\":1727:1949   */\n              swap3\n              swap2\n              pop\n              pop\n              jump\t// out\n                /* \"#utility.yul\":1955:2032   */\n            tag_81:\n                /* \"#utility.yul\":1992:1999   */\n              0x00\n                /* \"#utility.yul\":2021:2026   */\n              dup2\n                /* \"#utility.yul\":2010:2026   */\n              swap1\n              pop\n                /* \"#utility.yul\":1955:2032   */\n              swap2\n              swap1\n              pop\n              jump\t// out\n                /* \"#utility.yul\":2038:2156   */\n            tag_82:\n                /* \"#utility.yul\":2125:2149   */\n              tag_142\n                /* \"#utility.yul\":2143:2148   */\n              dup2\n                /* \"#utility.yul\":2125:2149   */\n              tag_81\n              jump\t// in\n            tag_142:\n                /* \"#utility.yul\":2120:2123   */\n              dup3\n                /* \"#utility.yul\":2113:2150   */\n              mstore\n                /* \"#utility.yul\":2038:2156   */\n              pop\n              pop\n              jump\t// out\n                /* \"#utility.yul\":2162:2384   */\n            tag_27:\n                /* \"#utility.yul\":2255:2259   */\n              0x00\n                /* \"#utility.yul\":2293:2295   */\n              0x20\n                /* \"#utility.yul\":2282:2291   */\n              dup3\n                /* \"#utility.yul\":2278:2296   */\n              add\n                /* \"#utility.yul\":2270:2296   */\n              swap1\n              pop\n                /* \"#utility.yul\":2306:2377   */\n              tag_144\n                /* \"#utility.yul\":2374:2375   */\n              0x00\n                /* \"#utility.yul\":2363:2372   */\n              dup4\n                /* \"#utility.yul\":2359:2376   */\n              add\n                /* \"#utility.yul\":2350:2356   */\n              dup5\n                /* \"#utility.yul\":2306:2377   */\n              tag_82\n              jump\t// in\n            tag_144:\n                /* \"#utility.yul\":2162:2384   */\n              swap3\n              swap2\n              pop\n              pop\n              jump\t// out\n                /* \"#utility.yul\":2390:2507   */\n            tag_83:\n                /* \"#utility.yul\":2499:2500   */\n              0x00\n                /* \"#utility.yul\":2496:2497   */\n              dup1\n                /* \"#utility.yul\":2489:2501   */\n              revert\n                /* \"#utility.yul\":2513:2630   */\n            tag_84:\n                /* \"#utility.yul\":2622:2623   */\n              0x00\n                /* \"#utility.yul\":2619:2620   */\n              dup1\n                /* \"#utility.yul\":2612:2624   */\n              revert\n                /* \"#utility.yul\":2636:2738   */\n            tag_85:\n                /* \"#utility.yul\":2677:2683   */\n              0x00\n                /* \"#utility.yul\":2728:2730   */\n              0x1f\n                /* \"#utility.yul\":2724:2731   */\n              not\n                /* \"#utility.yul\":2719:2721   */\n              0x1f\n                /* \"#utility.yul\":2712:2717   */\n              dup4\n                /* \"#utility.yul\":2708:2722   */\n              add\n                /* \"#utility.yul\":2704:2732   */\n              and\n                /* \"#utility.yul\":2694:2732   */\n              swap1\n              pop\n                /* \"#utility.yul\":2636:2738   */\n              swap2\n              swap1\n              pop\n              jump\t// out\n                /* \"#utility.yul\":2744:2924   */\n            tag_86:\n                /* \"#utility.yul\":2792:2869   */\n              0x4e487b7100000000000000000000000000000000000000000000000000000000\n                /* \"#utility.yul\":2789:2790   */\n              0x00\n                /* \"#utility.yul\":2782:2870   */\n              mstore\n                /* \"#utility.yul\":2889:2893   */\n              0x41\n                /* \"#utility.yul\":2886:2887   */\n              0x04\n                /* \"#utility.yul\":2879:2894   */\n              mstore\n                /* \"#utility.yul\":2913:2917   */\n              0x24\n                /* \"#utility.yul\":2910:2911   */\n              0x00\n                /* \"#utility.yul\":2903:2918   */\n              revert\n                /* \"#utility.yul\":2930:3211   */\n            tag_87:\n                /* \"#utility.yul\":3013:3040   */\n              tag_150\n                /* \"#utility.yul\":3035:3039   */\n              dup3\n                /* \"#utility.yul\":3013:3040   */\n              tag_85\n              jump\t// in\n            tag_150:\n                /* \"#utility.yul\":3005:3011   */\n              dup2\n                /* \"#utility.yul\":3001:3041   */\n              add\n                /* \"#utility.yul\":3143:3149   */\n              dup2\n                /* \"#utility.yul\":3131:3141   */\n              dup2\n                /* \"#utility.yul\":3128:3150   */\n              lt\n                /* \"#utility.yul\":3107:3125   */\n              0xffffffffffffffff\n                /* \"#utility.yul\":3095:3105   */\n              dup3\n                /* \"#utility.yul\":3092:3126   */\n              gt\n                /* \"#utility.yul\":3089:3151   */\n              or\n                /* \"#utility.yul\":3086:3174   */\n              iszero\n              tag_151\n              jumpi\n                /* \"#utility.yul\":3154:3172   */\n              tag_152\n              tag_86\n              jump\t// in\n            tag_152:\n                /* \"#utility.yul\":3086:3174   */\n            tag_151:\n                /* \"#utility.yul\":3194:3204   */\n              dup1\n                /* \"#utility.yul\":3190:3192   */\n              0x40\n                /* \"#utility.yul\":3183:3205   */\n              mstore\n                /* \"#utility.yul\":2973:3211   */\n              pop\n                /* \"#utility.yul\":2930:3211   */\n              pop\n              pop\n              jump\t// out\n                /* \"#utility.yul\":3217:3346   */\n            tag_88:\n                /* \"#utility.yul\":3251:3257   */\n              0x00\n                /* \"#utility.yul\":3278:3298   */\n              tag_154\n              tag_71\n              jump\t// in\n            tag_154:\n                /* \"#utility.yul\":3268:3298   */\n              swap1\n              pop\n                /* \"#utility.yul\":3307:3340   */\n              tag_155\n                /* \"#utility.yul\":3335:3339   */\n              dup3\n                /* \"#utility.yul\":3327:3333   */\n              dup3\n                /* \"#utility.yul\":3307:3340   */\n              tag_87\n              jump\t// in\n            tag_155:\n                /* \"#utility.yul\":3217:3346   */\n              swap2\n              swap1\n              pop\n              jump\t// out\n                /* \"#utility.yul\":3352:3660   */\n            tag_89:\n                /* \"#utility.yul\":3414:3418   */\n              0x00\n                /* \"#utility.yul\":3504:3522   */\n              0xffffffffffffffff\n                /* \"#utility.yul\":3496:3502   */\n              dup3\n                /* \"#utility.yul\":3493:3523   */\n              gt\n                /* \"#utility.yul\":3490:3546   */\n              iszero\n              tag_157\n              jumpi\n                /* \"#utility.yul\":3526:3544   */\n              tag_158\n              tag_86\n              jump\t// in\n            tag_158:\n                /* \"#utility.yul\":3490:3546   */\n            tag_157:\n                /* \"#utility.yul\":3564:3593   */\n              tag_159\n                /* \"#utility.yul\":3586:3592   */\n              dup3\n                /* \"#utility.yul\":3564:3593   */\n              tag_85\n              jump\t// in\n            tag_159:\n                /* \"#utility.yul\":3556:3593   */\n              swap1\n              pop\n                /* \"#utility.yul\":3648:3652   */\n              0x20\n                /* \"#utility.yul\":3642:3646   */\n              dup2\n                /* \"#utility.yul\":3638:3653   */\n              add\n                /* \"#utility.yul\":3630:3653   */\n              swap1\n              pop\n                /* \"#utility.yul\":3352:3660   */\n              swap2\n              swap1\n              pop\n              jump\t// out\n                /* \"#utility.yul\":3666:3812   */\n            tag_90:\n                /* \"#utility.yul\":3763:3769   */\n              dup3\n                /* \"#utility.yul\":3758:3761   */\n              dup2\n                /* \"#utility.yul\":3753:3756   */\n              dup4\n                /* \"#utility.yul\":3740:3770   */\n              calldatacopy\n                /* \"#utility.yul\":3804:3805   */\n              0x00\n                /* \"#utility.yul\":3795:3801   */\n              dup4\n                /* \"#utility.yul\":3790:3793   */\n              dup4\n                /* \"#utility.yul\":3786:3802   */\n              add\n                /* \"#utility.yul\":3779:3806   */\n              mstore\n                /* \"#utility.yul\":3666:3812   */\n              pop\n              pop\n              pop\n              jump\t// out\n                /* \"#utility.yul\":3818:4243   */\n            tag_91:\n                /* \"#utility.yul\":3896:3901   */\n              0x00\n                /* \"#utility.yul\":3921:3987   */\n              tag_162\n                /* \"#utility.yul\":3937:3986   */\n              tag_163\n                /* \"#utility.yul\":3979:3985   */\n              dup5\n                /* \"#utility.yul\":3937:3986   */\n              tag_89\n              jump\t// in\n            tag_163:\n                /* \"#utility.yul\":3921:3987   */\n              tag_88\n              jump\t// in\n            tag_162:\n                /* \"#utility.yul\":3912:3987   */\n              swap1\n              pop\n                /* \"#utility.yul\":4010:4016   */\n              dup3\n                /* \"#utility.yul\":4003:4008   */\n              dup2\n                /* \"#utility.yul\":3996:4017   */\n              mstore\n                /* \"#utility.yul\":4048:4052   */\n              0x20\n                /* \"#utility.yul\":4041:4046   */\n              dup2\n                /* \"#utility.yul\":4037:4053   */\n              add\n                /* \"#utility.yul\":4086:4089   */\n              dup5\n                /* \"#utility.yul\":4077:4083   */\n              dup5\n                /* \"#utility.yul\":4072:4075   */\n              dup5\n                /* \"#utility.yul\":4068:4084   */\n              add\n                /* \"#utility.yul\":4065:4090   */\n              gt\n                /* \"#utility.yul\":4062:4174   */\n              iszero\n              tag_164\n              jumpi\n                /* \"#utility.yul\":4093:4172   */\n              tag_165\n              tag_84\n              jump\t// in\n            tag_165:\n                /* \"#utility.yul\":4062:4174   */\n            tag_164:\n                /* \"#utility.yul\":4183:4237   */\n              tag_166\n                /* \"#utility.yul\":4230:4236   */\n              dup5\n                /* \"#utility.yul\":4225:4228   */\n              dup3\n                /* \"#utility.yul\":4220:4223   */\n              dup6\n                /* \"#utility.yul\":4183:4237   */\n              tag_90\n              jump\t// in\n            tag_166:\n                /* \"#utility.yul\":3902:4243   */\n              pop\n                /* \"#utility.yul\":3818:4243   */\n              swap4\n              swap3\n              pop\n              pop\n              pop\n              jump\t// out\n                /* \"#utility.yul\":4263:4603   */\n            tag_92:\n                /* \"#utility.yul\":4319:4324   */\n              0x00\n                /* \"#utility.yul\":4368:4371   */\n              dup3\n                /* \"#utility.yul\":4361:4365   */\n              0x1f\n                /* \"#utility.yul\":4353:4359   */\n              dup4\n                /* \"#utility.yul\":4349:4366   */\n              add\n                /* \"#utility.yul\":4345:4372   */\n              slt\n                /* \"#utility.yul\":4335:4457   */\n              tag_168\n              jumpi\n                /* \"#utility.yul\":4376:4455   */\n              tag_169\n              tag_83\n              jump\t// in\n            tag_169:\n                /* \"#utility.yul\":4335:4457   */\n            tag_168:\n                /* \"#utility.yul\":4493:4499   */\n              dup2\n                /* \"#utility.yul\":4480:4500   */\n              calldataload\n                /* \"#utility.yul\":4518:4597   */\n              tag_170\n                /* \"#utility.yul\":4593:4596   */\n              dup5\n                /* \"#utility.yul\":4585:4591   */\n              dup3\n                /* \"#utility.yul\":4578:4582   */\n              0x20\n                /* \"#utility.yul\":4570:4576   */\n              dup7\n                /* \"#utility.yul\":4566:4583   */\n              add\n                /* \"#utility.yul\":4518:4597   */\n              tag_91\n              jump\t// in\n            tag_170:\n                /* \"#utility.yul\":4509:4597   */\n              swap2\n              pop\n                /* \"#utility.yul\":4325:4603   */\n              pop\n                /* \"#utility.yul\":4263:4603   */\n              swap3\n              swap2\n              pop\n              pop\n              jump\t// out\n                /* \"#utility.yul\":4609:4731   */\n            tag_93:\n                /* \"#utility.yul\":4682:4706   */\n              tag_172\n                /* \"#utility.yul\":4700:4705   */\n              dup2\n                /* \"#utility.yul\":4682:4706   */\n              tag_81\n              jump\t// in\n            tag_172:\n                /* \"#utility.yul\":4675:4680   */\n              dup2\n                /* \"#utility.yul\":4672:4707   */\n              eq\n                /* \"#utility.yul\":4662:4725   */\n              tag_173\n              jumpi\n                /* \"#utility.yul\":4721:4722   */\n              0x00\n                /* \"#utility.yul\":4718:4719   */\n              dup1\n                /* \"#utility.yul\":4711:4723   */\n              revert\n                /* \"#utility.yul\":4662:4725   */\n            tag_173:\n                /* \"#utility.yul\":4609:4731   */\n              pop\n              jump\t// out\n                /* \"#utility.yul\":4737:4876   */\n            tag_94:\n                /* \"#utility.yul\":4783:4788   */\n              0x00\n                /* \"#utility.yul\":4821:4827   */\n              dup2\n                /* \"#utility.yul\":4808:4828   */\n              calldataload\n                /* \"#utility.yul\":4799:4828   */\n              swap1\n              pop\n                /* \"#utility.yul\":4837:4870   */\n              tag_175\n                /* \"#utility.yul\":4864:4869   */\n              dup2\n                /* \"#utility.yul\":4837:4870   */\n              tag_93\n              jump\t// in\n            tag_175:\n                /* \"#utility.yul\":4737:4876   */\n              swap3\n              swap2\n              pop\n              pop\n              jump\t// out\n                /* \"#utility.yul\":4882:5681   */\n            tag_31:\n                /* \"#utility.yul\":4969:4975   */\n              0x00\n                /* \"#utility.yul\":4977:4983   */\n              dup1\n                /* \"#utility.yul\":4985:4991   */\n              0x00\n                /* \"#utility.yul\":5034:5036   */\n              0x60\n                /* \"#utility.yul\":5022:5031   */\n              dup5\n                /* \"#utility.yul\":5013:5020   */\n              dup7\n                /* \"#utility.yul\":5009:5032   */\n              sub\n                /* \"#utility.yul\":5005:5037   */\n              slt\n                /* \"#utility.yul\":5002:5121   */\n              iszero\n              tag_177\n              jumpi\n                /* \"#utility.yul\":5040:5119   */\n              tag_178\n              tag_72\n              jump\t// in\n            tag_178:\n                /* \"#utility.yul\":5002:5121   */\n            tag_177:\n                /* \"#utility.yul\":5188:5189   */\n              0x00\n                /* \"#utility.yul\":5177:5186   */\n              dup5\n                /* \"#utility.yul\":5173:5190   */\n              add\n                /* \"#utility.yul\":5160:5191   */\n              calldataload\n                /* \"#utility.yul\":5218:5236   */\n              0xffffffffffffffff\n                /* \"#utility.yul\":5210:5216   */\n              dup2\n                /* \"#utility.yul\":5207:5237   */\n              gt\n                /* \"#utility.yul\":5204:5321   */\n              iszero\n              tag_179\n              jumpi\n                /* \"#utility.yul\":5240:5319   */\n              tag_180\n              tag_73\n              jump\t// in\n            tag_180:\n                /* \"#utility.yul\":5204:5321   */\n            tag_179:\n                /* \"#utility.yul\":5345:5408   */\n              tag_181\n                /* \"#utility.yul\":5400:5407   */\n              dup7\n                /* \"#utility.yul\":5391:5397   */\n              dup3\n                /* \"#utility.yul\":5380:5389   */\n              dup8\n                /* \"#utility.yul\":5376:5398   */\n              add\n                /* \"#utility.yul\":5345:5408   */\n              tag_92\n              jump\t// in\n            tag_181:\n                /* \"#utility.yul\":5335:5408   */\n              swap4\n              pop\n                /* \"#utility.yul\":5131:5418   */\n              pop\n                /* \"#utility.yul\":5457:5459   */\n              0x20\n                /* \"#utility.yul\":5483:5536   */\n              tag_182\n                /* \"#utility.yul\":5528:5535   */\n              dup7\n                /* \"#utility.yul\":5519:5525   */\n              dup3\n                /* \"#utility.yul\":5508:5517   */\n              dup8\n                /* \"#utility.yul\":5504:5526   */\n              add\n                /* \"#utility.yul\":5483:5536   */\n              tag_94\n              jump\t// in\n            tag_182:\n                /* \"#utility.yul\":5473:5536   */\n              swap3\n              pop\n                /* \"#utility.yul\":5428:5546   */\n              pop\n                /* \"#utility.yul\":5585:5587   */\n              0x40\n                /* \"#utility.yul\":5611:5664   */\n              tag_183\n                /* \"#utility.yul\":5656:5663   */\n              dup7\n                /* \"#utility.yul\":5647:5653   */\n              dup3\n                /* \"#utility.yul\":5636:5645   */\n              dup8\n                /* \"#utility.yul\":5632:5654   */\n              add\n                /* \"#utility.yul\":5611:5664   */\n              tag_77\n              jump\t// in\n            tag_183:\n                /* \"#utility.yul\":5601:5664   */\n              swap2\n              pop\n                /* \"#utility.yul\":5556:5674   */\n              pop\n                /* \"#utility.yul\":4882:5681   */\n              swap3\n              pop\n              swap3\n              pop\n              swap3\n              jump\t// out\n                /* \"#utility.yul\":5687:6016   */\n            tag_42:\n                /* \"#utility.yul\":5746:5752   */\n              0x00\n                /* \"#utility.yul\":5795:5797   */\n              0x20\n                /* \"#utility.yul\":5783:5792   */\n              dup3\n                /* \"#utility.yul\":5774:5781   */\n              dup5\n                /* \"#utility.yul\":5770:5793   */\n              sub\n                /* \"#utility.yul\":5766:5798   */\n              slt\n                /* \"#utility.yul\":5763:5882   */\n              iszero\n              tag_185\n              jumpi\n                /* \"#utility.yul\":5801:5880   */\n              tag_186\n              tag_72\n              jump\t// in\n            tag_186:\n                /* \"#utility.yul\":5763:5882   */\n            tag_185:\n                /* \"#utility.yul\":5921:5922   */\n              0x00\n                /* \"#utility.yul\":5946:5999   */\n              tag_187\n                /* \"#utility.yul\":5991:5998   */\n              dup5\n                /* \"#utility.yul\":5982:5988   */\n              dup3\n                /* \"#utility.yul\":5971:5980   */\n              dup6\n                /* \"#utility.yul\":5967:5989   */\n              add\n                /* \"#utility.yul\":5946:5999   */\n              tag_94\n              jump\t// in\n            tag_187:\n                /* \"#utility.yul\":5936:5999   */\n              swap2\n              pop\n                /* \"#utility.yul\":5892:6009   */\n              pop\n                /* \"#utility.yul\":5687:6016   */\n              swap3\n              swap2\n              pop\n              pop\n              jump\t// out\n                /* \"#utility.yul\":6022:6202   */\n            tag_95:\n                /* \"#utility.yul\":6070:6147   */\n              0x4e487b7100000000000000000000000000000000000000000000000000000000\n                /* \"#utility.yul\":6067:6068   */\n              0x00\n                /* \"#utility.yul\":6060:6148   */\n              mstore\n                /* \"#utility.yul\":6167:6171   */\n              0x11\n                /* \"#utility.yul\":6164:6165   */\n              0x04\n                /* \"#utility.yul\":6157:6172   */\n              mstore\n                /* \"#utility.yul\":6191:6195   */\n              0x24\n                /* \"#utility.yul\":6188:6189   */\n              0x00\n                /* \"#utility.yul\":6181:6196   */\n              revert\n                /* \"#utility.yul\":6208:6441   */\n            tag_52:\n                /* \"#utility.yul\":6247:6250   */\n              0x00\n                /* \"#utility.yul\":6270:6294   */\n              tag_190\n                /* \"#utility.yul\":6288:6293   */\n              dup3\n                /* \"#utility.yul\":6270:6294   */\n              tag_81\n              jump\t// in\n            tag_190:\n                /* \"#utility.yul\":6261:6294   */\n              swap2\n              pop\n                /* \"#utility.yul\":6316:6382   */\n              0xffffffffffffffffffffffffffffffffffffffffffffffffffffffffffffffff\n                /* \"#utility.yul\":6309:6314   */\n              dup3\n                /* \"#utility.yul\":6306:6383   */\n              sub\n                /* \"#utility.yul\":6303:6406   */\n              tag_191\n              jumpi\n                /* \"#utility.yul\":6386:6404   */\n              tag_192\n              tag_95\n              jump\t// in\n            tag_192:\n                /* \"#utility.yul\":6303:6406   */\n            tag_191:\n                /* \"#utility.yul\":6433:6434   */\n              0x01\n                /* \"#utility.yul\":6426:6431   */\n              dup3\n                /* \"#utility.yul\":6422:6435   */\n              add\n                /* \"#utility.yul\":6415:6435   */\n              swap1\n              pop\n                /* \"#utility.yul\":6208:6441   */\n              swap2\n              swap1\n              pop\n              jump\t// out\n                /* \"#utility.yul\":6447:6546   */\n            tag_96:\n                /* \"#utility.yul\":6499:6505   */\n              0x00\n                /* \"#utility.yul\":6533:6538   */\n              dup2\n                /* \"#utility.yul\":6527:6539   */\n              mload\n                /* \"#utility.yul\":6517:6539   */\n              swap1\n              pop\n                /* \"#utility.yul\":6447:6546   */\n              swap2\n              swap1\n              pop\n              jump\t// out\n                /* \"#utility.yul\":6552:6732   */\n            tag_97:\n                /* \"#utility.yul\":6600:6677   */\n              0x4e487b7100000000000000000000000000000000000000000000000000000000\n                /* \"#utility.yul\":6597:6598   */\n              0x00\n                /* \"#utility.yul\":6590:6678   */\n              mstore\n                /* \"#utility.yul\":6697:6701   */\n              0x22\n                /* \"#utility.yul\":6694:6695   */\n              0x04\n                /* \"#utility.yul\":6687:6702   */\n              mstore\n                /* \"#utility.yul\":6721:6725   */\n              0x24\n                /* \"#utility.yul\":6718:6719   */\n              0x00\n                /* \"#utility.yul\":6711:6726   */\n              revert\n                /* \"#utility.yul\":6738:7058   */\n            tag_98:\n                /* \"#utility.yul\":6782:6788   */\n              0x00\n                /* \"#utility.yul\":6819:6820   */\n              0x02\n                /* \"#utility.yul\":6813:6817   */\n              dup3\n                /* \"#utility.yul\":6809:6821   */\n              div\n                /* \"#utility.yul\":6799:6821   */\n              swap1\n              pop\n                /* \"#utility.yul\":6866:6867   */\n              0x01\n                /* \"#utility.yul\":6860:6864   */\n              dup3\n                /* \"#utility.yul\":6856:6868   */\n              and\n                /* \"#utility.yul\":6887:6905   */\n              dup1\n                /* \"#utility.yul\":6877:6958   */\n              tag_196\n              jumpi\n                /* \"#utility.yul\":6943:6947   */\n              0x7f\n                /* \"#utility.yul\":6935:6941   */\n              dup3\n                /* \"#utility.yul\":6931:6948   */\n              and\n                /* \"#utility.yul\":6921:6948   */\n              swap2\n              pop\n                /* \"#utility.yul\":6877:6958   */\n            tag_196:\n                /* \"#utility.yul\":7005:7007   */\n              0x20\n                /* \"#utility.yul\":6997:7003   */\n              dup3\n                /* \"#utility.yul\":6994:7008   */\n              lt\n                /* \"#utility.yul\":6974:6992   */\n              dup2\n                /* \"#utility.yul\":6971:7009   */\n              sub\n                /* \"#utility.yul\":6968:7052   */\n              tag_197\n              jumpi\n                /* \"#utility.yul\":7024:7042   */\n              tag_198\n              tag_97\n              jump\t// in\n            tag_198:\n                /* \"#utility.yul\":6968:7052   */\n            tag_197:\n                /* \"#utility.yul\":6789:7058   */\n              pop\n                /* \"#utility.yul\":6738:7058   */\n              swap2\n              swap1\n              pop\n              jump\t// out\n                /* \"#utility.yul\":7064:7205   */\n            tag_99:\n                /* \"#utility.yul\":7113:7117   */\n              0x00\n                /* \"#utility.yul\":7136:7139   */\n              dup2\n                /* \"#utility.yul\":7128:7139   */\n              swap1\n              pop\n                /* \"#utility.yul\":7159:7162   */\n              dup2\n                /* \"#utility.yul\":7156:7157   */\n              0x00\n                /* \"#utility.yul\":7149:7163   */\n              mstore\n                /* \"#utility.yul\":7193:7197   */\n              0x20\n                /* \"#utility.yul\":7190:7191   */\n              0x00\n                /* \"#utility.yul\":7180:7198   */\n              keccak256\n                /* \"#utility.yul\":7172:7198   */\n              swap1\n              pop\n                /* \"#utility.yul\":7064:7205   */\n              swap2\n              swap1\n              pop\n              jump\t// out\n                /* \"#utility.yul\":7211:7304   */\n            tag_100:\n                /* \"#utility.yul\":7248:7254   */\n              0x00\n                /* \"#utility.yul\":7295:7297   */\n              0x20\n                /* \"#utility.yul\":7290:7292   */\n              0x1f\n                /* \"#utility.yul\":7283:7288   */\n              dup4\n                /* \"#utility.yul\":7279:7293   */\n              add\n                /* \"#utility.yul\":7275:7298   */\n              div\n                /* \"#utility.yul\":7265:7298   */\n              swap1\n              pop\n                /* \"#utility.yul\":7211:7304   */\n              swap2\n              swap1\n              pop\n              jump\t// out\n                /* \"#utility.yul\":7310:7417   */\n            tag_101:\n                /* \"#utility.yul\":7354:7362   */\n              0x00\n                /* \"#utility.yul\":7404:7409   */\n              dup3\n                /* \"#utility.yul\":7398:7402   */\n              dup3\n                /* \"#utility.yul\":7394:7410   */\n              shl\n                /* \"#utility.yul\":7373:7410   */\n              swap1\n              pop\n                /* \"#utility.yul\":7310:7417   */\n              swap3\n              swap2\n              pop\n              pop\n              jump\t// out\n                /* \"#utility.yul\":7423:7816   */\n            tag_102:\n                /* \"#utility.yul\":7492:7498   */\n              0x00\n                /* \"#utility.yul\":7542:7543   */\n              0x08\n                /* \"#utility.yul\":7530:7540   */\n              dup4\n                /* \"#utility.yul\":7526:7544   */\n              mul\n                /* \"#utility.yul\":7565:7662   */\n              tag_203\n                /* \"#utility.yul\":7595:7661   */\n              0xffffffffffffffffffffffffffffffffffffffffffffffffffffffffffffffff\n                /* \"#utility.yul\":7584:7593   */\n              dup3\n                /* \"#utility.yul\":7565:7662   */\n              tag_101\n              jump\t// in\n            tag_203:\n                /* \"#utility.yul\":7683:7722   */\n              tag_204\n                /* \"#utility.yul\":7713:7721   */\n              dup7\n                /* \"#utility.yul\":7702:7711   */\n              dup4\n                /* \"#utility.yul\":7683:7722   */\n              tag_101\n              jump\t// in\n            tag_204:\n                /* \"#utility.yul\":7671:7722   */\n              swap6\n              pop\n                /* \"#utility.yul\":7755:7759   */\n              dup1\n                /* \"#utility.yul\":7751:7760   */\n              not\n                /* \"#utility.yul\":7744:7749   */\n              dup5\n                /* \"#utility.yul\":7740:7761   */\n              and\n                /* \"#utility.yul\":7731:7761   */\n              swap4\n              pop\n                /* \"#utility.yul\":7804:7808   */\n              dup1\n                /* \"#utility.yul\":7794:7802   */\n              dup7\n                /* \"#utility.yul\":7790:7809   */\n              and\n                /* \"#utility.yul\":7783:7788   */\n              dup5\n                /* \"#utility.yul\":7780:7810   */\n              or\n                /* \"#utility.yul\":7770:7810   */\n              swap3\n              pop\n                /* \"#utility.yul\":7499:7816   */\n              pop\n              pop\n                /* \"#utility.yul\":7423:7816   */\n              swap4\n              swap3\n              pop\n              pop\n              pop\n              jump\t// out\n                /* \"#utility.yul\":7822:7882   */\n            tag_103:\n                /* \"#utility.yul\":7850:7853   */\n              0x00\n                /* \"#utility.yul\":7871:7876   */\n              dup2\n                /* \"#utility.yul\":7864:7876   */\n              swap1\n              pop\n                /* \"#utility.yul\":7822:7882   */\n              swap2\n              swap1\n              pop\n              jump\t// out\n                /* \"#utility.yul\":7888:8030   */\n            tag_104:\n                /* \"#utility.yul\":7938:7947   */\n              0x00\n                /* \"#utility.yul\":7971:8024   */\n              tag_207\n                /* \"#utility.yul\":7989:8023   */\n              tag_208\n                /* \"#utility.yul\":7998:8022   */\n              tag_209\n                /* \"#utility.yul\":8016:8021   */\n              dup5\n                /* \"#utility.yul\":7998:8022   */\n              tag_81\n              jump\t// in\n            tag_209:\n                /* \"#utility.yul\":7989:8023   */\n              tag_103\n              jump\t// in\n            tag_208:\n                /* \"#utility.yul\":7971:8024   */\n              tag_81\n              jump\t// in\n            tag_207:\n                /* \"#utility.yul\":7958:8024   */\n              swap1\n              pop\n                /* \"#utility.yul\":7888:8030   */\n              swap2\n              swap1\n              pop\n              jump\t// out\n                /* \"#utility.yul\":8036:8111   */\n            tag_105:\n                /* \"#utility.yul\":8079:8082   */\n              0x00\n                /* \"#utility.yul\":8100:8105   */\n              dup2\n                /* \"#utility.yul\":8093:8105   */\n              swap1\n              pop\n                /* \"#utility.yul\":8036:8111   */\n              swap2\n              swap1\n              pop\n              jump\t// out\n                /* \"#utility.yul\":8117:8386   */\n            tag_106:\n                /* \"#utility.yul\":8227:8266   */\n              tag_212\n                /* \"#utility.yul\":8258:8265   */\n              dup4\n                /* \"#utility.yul\":8227:8266   */\n              tag_104\n              jump\t// in\n            tag_212:\n                /* \"#utility.yul\":8288:8379   */\n              tag_213\n                /* \"#utility.yul\":8337:8378   */\n              tag_214\n                /* \"#utility.yul\":8361:8377   */\n              dup3\n                /* \"#utility.yul\":8337:8378   */\n              tag_105\n              jump\t// in\n            tag_214:\n                /* \"#utility.yul\":8329:8335   */\n              dup5\n                /* \"#utility.yul\":8322:8326   */\n              dup5\n                /* \"#utility.yul\":8316:8327   */\n              sload\n                /* \"#utility.yul\":8288:8379   */\n              tag_102\n              jump\t// in\n            tag_213:\n                /* \"#utility.yul\":8282:8286   */\n              dup3\n                /* \"#utility.yul\":8275:8380   */\n              sstore\n                /* \"#utility.yul\":8193:8386   */\n              pop\n                /* \"#utility.yul\":8117:8386   */\n              pop\n              pop\n              pop\n              jump\t// out\n                /* \"#utility.yul\":8392:8465   */\n            tag_107:\n                /* \"#utility.yul\":8437:8440   */\n              0x00\n                /* \"#utility.yul\":8392:8465   */\n              swap1\n              jump\t// out\n                /* \"#utility.yul\":8471:8660   */\n            tag_108:\n                /* \"#utility.yul\":8548:8580   */\n              tag_217\n              tag_107\n              jump\t// in\n            tag_217:\n                /* \"#utility.yul\":8589:8654   */\n              tag_218\n                /* \"#utility.yul\":8647:8653   */\n              dup2\n                /* \"#utility.yul\":8639:8645   */\n              dup5\n                /* \"#utility.yul\":8633:8637   */\n              dup5\n                /* \"#utility.yul\":8589:8654   */\n              tag_106\n              jump\t// in\n            tag_218:\n                /* \"#utility.yul\":8524:8660   */\n              pop\n                /* \"#utility.yul\":8471:8660   */\n              pop\n              pop\n              jump\t// out\n                /* \"#utility.yul\":8666:8852   */\n            tag_109:\n                /* \"#utility.yul\":8726:8846   */\n            tag_220:\n                /* \"#utility.yul\":8743:8746   */\n              dup2\n                /* \"#utility.yul\":8736:8741   */\n              dup2\n                /* \"#utility.yul\":8733:8747   */\n              lt\n                /* \"#utility.yul\":8726:8846   */\n              iszero\n              tag_222\n              jumpi\n                /* \"#utility.yul\":8797:8836   */\n              tag_223\n                /* \"#utility.yul\":8834:8835   */\n              0x00\n                /* \"#utility.yul\":8827:8832   */\n              dup3\n                /* \"#utility.yul\":8797:8836   */\n              tag_108\n              jump\t// in\n            tag_223:\n                /* \"#utility.yul\":8770:8771   */\n              0x01\n                /* \"#utility.yul\":8763:8768   */\n              dup2\n                /* \"#utility.yul\":8759:8772   */\n              add\n                /* \"#utility.yul\":8750:8772   */\n              swap1\n              pop\n                /* \"#utility.yul\":8726:8846   */\n              jump(tag_220)\n            tag_222:\n                /* \"#utility.yul\":8666:8852   */\n              pop\n              pop\n              jump\t// out\n                /* \"#utility.yul\":8858:9401   */\n            tag_110:\n                /* \"#utility.yul\":8959:8961   */\n              0x1f\n                /* \"#utility.yul\":8954:8957   */\n              dup3\n                /* \"#utility.yul\":8951:8962   */\n              gt\n                /* \"#utility.yul\":8948:9394   */\n              iszero\n              tag_225\n              jumpi\n                /* \"#utility.yul\":8993:9031   */\n              tag_226\n                /* \"#utility.yul\":9025:9030   */\n              dup2\n                /* \"#utility.yul\":8993:9031   */\n              tag_99\n              jump\t// in\n            tag_226:\n                /* \"#utility.yul\":9077:9106   */\n              tag_227\n                /* \"#utility.yul\":9095:9105   */\n              dup5\n                /* \"#utility.yul\":9077:9106   */\n              tag_100\n              jump\t// in\n            tag_227:\n                /* \"#utility.yul\":9067:9075   */\n              dup2\n                /* \"#utility.yul\":9063:9107   */\n              add\n                /* \"#utility.yul\":9260:9262   */\n              0x20\n                /* \"#utility.yul\":9248:9258   */\n              dup6\n                /* \"#utility.yul\":9245:9263   */\n              lt\n                /* \"#utility.yul\":9242:9291   */\n              iszero\n              tag_228\n              jumpi\n                /* \"#utility.yul\":9281:9289   */\n              dup2\n                /* \"#utility.yul\":9266:9289   */\n              swap1\n              pop\n                /* \"#utility.yul\":9242:9291   */\n            tag_228:\n                /* \"#utility.yul\":9304:9384   */\n              tag_229\n                /* \"#utility.yul\":9360:9382   */\n              tag_230\n                /* \"#utility.yul\":9378:9381   */\n              dup6\n                /* \"#utility.yul\":9360:9382   */\n              tag_100\n              jump\t// in\n            tag_230:\n                /* \"#utility.yul\":9350:9358   */\n              dup4\n                /* \"#utility.yul\":9346:9383   */\n              add\n                /* \"#utility.yul\":9333:9344   */\n              dup3\n                /* \"#utility.yul\":9304:9384   */\n              tag_109\n              jump\t// in\n            tag_229:\n                /* \"#utility.yul\":8963:9394   */\n              pop\n              pop\n                /* \"#utility.yul\":8948:9394   */\n            tag_225:\n                /* \"#utility.yul\":8858:9401   */\n              pop\n              pop\n              pop\n              jump\t// out\n                /* \"#utility.yul\":9407:9524   */\n            tag_111:\n                /* \"#utility.yul\":9461:9469   */\n              0x00\n                /* \"#utility.yul\":9511:9516   */\n              dup3\n                /* \"#utility.yul\":9505:9509   */\n              dup3\n                /* \"#utility.yul\":9501:9517   */\n              shr\n                /* \"#utility.yul\":9480:9517   */\n              swap1\n              pop\n                /* \"#utility.yul\":9407:9524   */\n              swap3\n              swap2\n              pop\n              pop\n              jump\t// out\n                /* \"#utility.yul\":9530:9699   */\n            tag_112:\n                /* \"#utility.yul\":9574:9580   */\n              0x00\n                /* \"#utility.yul\":9607:9658   */\n              tag_233\n                /* \"#utility.yul\":9655:9656   */\n              0x00\n                /* \"#utility.yul\":9651:9657   */\n              not\n                /* \"#utility.yul\":9643:9648   */\n              dup5\n                /* \"#utility.yul\":9640:9641   */\n              0x08\n                /* \"#utility.yul\":9636:9649   */\n              mul\n                /* \"#utility.yul\":9607:9658   */\n              tag_111\n              jump\t// in\n            tag_233:\n                /* \"#utility.yul\":9603:9659   */\n              not\n                /* \"#utility.yul\":9688:9692   */\n              dup1\n                /* \"#utility.yul\":9682:9686   */\n              dup4\n                /* \"#utility.yul\":9678:9693   */\n              and\n                /* \"#utility.yul\":9668:9693   */\n              swap2\n              pop\n                /* \"#utility.yul\":9581:9699   */\n              pop\n                /* \"#utility.yul\":9530:9699   */\n              swap3\n              swap2\n              pop\n              pop\n              jump\t// out\n                /* \"#utility.yul\":9704:9999   */\n            tag_113:\n                /* \"#utility.yul\":9780:9784   */\n              0x00\n                /* \"#utility.yul\":9926:9955   */\n              tag_235\n                /* \"#utility.yul\":9951:9954   */\n              dup4\n                /* \"#utility.yul\":9945:9949   */\n              dup4\n                /* \"#utility.yul\":9926:9955   */\n              tag_112\n              jump\t// in\n            tag_235:\n                /* \"#utility.yul\":9918:9955   */\n              swap2\n              pop\n                /* \"#utility.yul\":9988:9991   */\n              dup3\n                /* \"#utility.yul\":9985:9986   */\n              0x02\n                /* \"#utility.yul\":9981:9992   */\n              mul\n                /* \"#utility.yul\":9975:9979   */\n              dup3\n                /* \"#utility.yul\":9972:9993   */\n              or\n                /* \"#utility.yul\":9964:9993   */\n              swap1\n              pop\n                /* \"#utility.yul\":9704:9999   */\n              swap3\n              swap2\n              pop\n              pop\n              jump\t// out\n                /* \"#utility.yul\":10004:11399   */\n            tag_54:\n                /* \"#utility.yul\":10121:10158   */\n              tag_237\n                /* \"#utility.yul\":10154:10157   */\n              dup3\n                /* \"#utility.yul\":10121:10158   */\n              tag_96\n              jump\t// in\n            tag_237:\n                /* \"#utility.yul\":10223:10241   */\n              0xffffffffffffffff\n                /* \"#utility.yul\":10215:10221   */\n              dup2\n                /* \"#utility.yul\":10212:10242   */\n              gt\n                /* \"#utility.yul\":10209:10265   */\n              iszero\n              tag_238\n              jumpi\n                /* \"#utility.yul\":10245:10263   */\n              tag_239\n              tag_86\n              jump\t// in\n            tag_239:\n                /* \"#utility.yul\":10209:10265   */\n            tag_238:\n                /* \"#utility.yul\":10289:10327   */\n              tag_240\n                /* \"#utility.yul\":10321:10325   */\n              dup3\n                /* \"#utility.yul\":10315:10326   */\n              sload\n                /* \"#utility.yul\":10289:10327   */\n              tag_98\n              jump\t// in\n            tag_240:\n                /* \"#utility.yul\":10374:10441   */\n              tag_241\n                /* \"#utility.yul\":10434:10440   */\n              dup3\n                /* \"#utility.yul\":10426:10432   */\n              dup3\n                /* \"#utility.yul\":10420:10424   */\n              dup6\n                /* \"#utility.yul\":10374:10441   */\n              tag_110\n              jump\t// in\n            tag_241:\n                /* \"#utility.yul\":10468:10469   */\n              0x00\n                /* \"#utility.yul\":10492:10496   */\n              0x20\n                /* \"#utility.yul\":10479:10496   */\n              swap1\n              pop\n                /* \"#utility.yul\":10524:10526   */\n              0x1f\n                /* \"#utility.yul\":10516:10522   */\n              dup4\n                /* \"#utility.yul\":10513:10527   */\n              gt\n                /* \"#utility.yul\":10541:10542   */\n              0x01\n                /* \"#utility.yul\":10536:11154   */\n              dup2\n              eq\n              tag_243\n              jumpi\n                /* \"#utility.yul\":11198:11199   */\n              0x00\n                /* \"#utility.yul\":11215:11221   */\n              dup5\n                /* \"#utility.yul\":11212:11289   */\n              iszero\n              tag_244\n              jumpi\n                /* \"#utility.yul\":11264:11273   */\n              dup3\n                /* \"#utility.yul\":11259:11262   */\n              dup8\n                /* \"#utility.yul\":11255:11274   */\n              add\n                /* \"#utility.yul\":11249:11275   */\n              mload\n                /* \"#utility.yul\":11240:11275   */\n              swap1\n              pop\n                /* \"#utility.yul\":11212:11289   */\n            tag_244:\n                /* \"#utility.yul\":11315:11382   */\n              tag_245\n                /* \"#utility.yul\":11375:11381   */\n              dup6\n                /* \"#utility.yul\":11368:11373   */\n              dup3\n                /* \"#utility.yul\":11315:11382   */\n              tag_113\n              jump\t// in\n            tag_245:\n                /* \"#utility.yul\":11309:11313   */\n              dup7\n                /* \"#utility.yul\":11302:11383   */\n              sstore\n                /* \"#utility.yul\":11171:11393   */\n              pop\n                /* \"#utility.yul\":10506:11393   */\n              jump(tag_242)\n                /* \"#utility.yul\":10536:11154   */\n            tag_243:\n                /* \"#utility.yul\":10588:10592   */\n              0x1f\n                /* \"#utility.yul\":10584:10593   */\n              not\n                /* \"#utility.yul\":10576:10582   */\n              dup5\n                /* \"#utility.yul\":10572:10594   */\n              and\n                /* \"#utility.yul\":10622:10659   */\n              tag_246\n                /* \"#utility.yul\":10654:10658   */\n              dup7\n                /* \"#utility.yul\":10622:10659   */\n              tag_99\n              jump\t// in\n            tag_246:\n                /* \"#utility.yul\":10681:10682   */\n              0x00\n                /* \"#utility.yul\":10695:10903   */\n            tag_247:\n                /* \"#utility.yul\":10709:10716   */\n              dup3\n                /* \"#utility.yul\":10706:10707   */\n              dup2\n                /* \"#utility.yul\":10703:10717   */\n              lt\n                /* \"#utility.yul\":10695:10903   */\n              iszero\n              tag_249\n              jumpi\n                /* \"#utility.yul\":10788:10797   */\n              dup5\n                /* \"#utility.yul\":10783:10786   */\n              dup10\n                /* \"#utility.yul\":10779:10798   */\n              add\n                /* \"#utility.yul\":10773:10799   */\n              mload\n                /* \"#utility.yul\":10765:10771   */\n              dup3\n                /* \"#utility.yul\":10758:10800   */\n              sstore\n                /* \"#utility.yul\":10839:10840   */\n              0x01\n                /* \"#utility.yul\":10831:10837   */\n              dup3\n                /* \"#utility.yul\":10827:10841   */\n              add\n                /* \"#utility.yul\":10817:10841   */\n              swap2\n              pop\n                /* \"#utility.yul\":10886:10888   */\n              0x20\n                /* \"#utility.yul\":10875:10884   */\n              dup6\n                /* \"#utility.yul\":10871:10889   */\n              add\n                /* \"#utility.yul\":10858:10889   */\n              swap5\n              pop\n                /* \"#utility.yul\":10732:10736   */\n              0x20\n                /* \"#utility.yul\":10729:10730   */\n              dup2\n                /* \"#utility.yul\":10725:10737   */\n              add\n                /* \"#utility.yul\":10720:10737   */\n              swap1\n              pop\n                /* \"#utility.yul\":10695:10903   */\n              jump(tag_247)\n            tag_249:\n                /* \"#utility.yul\":10931:10937   */\n              dup7\n                /* \"#utility.yul\":10922:10929   */\n              dup4\n                /* \"#utility.yul\":10919:10938   */\n              lt\n                /* \"#utility.yul\":10916:11095   */\n              iszero\n              tag_250\n              jumpi\n                /* \"#utility.yul\":10989:10998   */\n              dup5\n                /* \"#utility.yul\":10984:10987   */\n              dup10\n                /* \"#utility.yul\":10980:10999   */\n              add\n                /* \"#utility.yul\":10974:11000   */\n              mload\n                /* \"#utility.yul\":11032:11080   */\n              tag_251\n                /* \"#utility.yul\":11074:11078   */\n              0x1f\n                /* \"#utility.yul\":11066:11072   */\n              dup10\n                /* \"#utility.yul\":11062:11079   */\n              and\n                /* \"#utility.yul\":11051:11060   */\n              dup3\n                /* \"#utility.yul\":11032:11080   */\n              tag_112\n              jump\t// in\n            tag_251:\n                /* \"#utility.yul\":11024:11030   */\n              dup4\n                /* \"#utility.yul\":11017:11081   */\n              sstore\n                /* \"#utility.yul\":10939:11095   */\n              pop\n                /* \"#utility.yul\":10916:11095   */\n            tag_250:\n                /* \"#utility.yul\":11141:11142   */\n              0x01\n                /* \"#utility.yul\":11137:11138   */\n              0x02\n                /* \"#utility.yul\":11129:11135   */\n              dup9\n                /* \"#utility.yul\":11125:11139   */\n              mul\n                /* \"#utility.yul\":11121:11143   */\n              add\n                /* \"#utility.yul\":11115:11119   */\n              dup9\n                /* \"#utility.yul\":11108:11144   */\n              sstore\n                /* \"#utility.yul\":10543:11154   */\n              pop\n              pop\n              pop\n                /* \"#utility.yul\":10506:11393   */\n            tag_242:\n              pop\n                /* \"#utility.yul\":10096:11399   */\n              pop\n              pop\n              pop\n                /* \"#utility.yul\":10004:11399   */\n              pop\n              pop\n              jump\t// out\n                /* \"#utility.yul\":11405:11585   */\n            tag_114:\n                /* \"#utility.yul\":11453:11530   */\n              0x4e487b7100000000000000000000000000000000000000000000000000000000\n                /* \"#utility.yul\":11450:11451   */\n              0x00\n                /* \"#utility.yul\":11443:11531   */\n              mstore\n                /* \"#utility.yul\":11550:11554   */\n              0x12\n                /* \"#utility.yul\":11547:11548   */\n              0x04\n                /* \"#utility.yul\":11540:11555   */\n              mstore\n                /* \"#utility.yul\":11574:11578   */\n              0x24\n                /* \"#utility.yul\":11571:11572   */\n              0x00\n                /* \"#utility.yul\":11564:11579   */\n              revert\n                /* \"#utility.yul\":11591:11776   */\n            tag_67:\n                /* \"#utility.yul\":11631:11632   */\n              0x00\n                /* \"#utility.yul\":11648:11668   */\n              tag_254\n                /* \"#utility.yul\":11666:11667   */\n              dup3\n                /* \"#utility.yul\":11648:11668   */\n              tag_81\n              jump\t// in\n            tag_254:\n                /* \"#utility.yul\":11643:11668   */\n              swap2\n              pop\n                /* \"#utility.yul\":11682:11702   */\n              tag_255\n                /* \"#utility.yul\":11700:11701   */\n              dup4\n                /* \"#utility.yul\":11682:11702   */\n              tag_81\n              jump\t// in\n            tag_255:\n                /* \"#utility.yul\":11677:11702   */\n              swap3\n              pop\n                /* \"#utility.yul\":11721:11722   */\n              dup3\n                /* \"#utility.yul\":11711:11746   */\n              tag_256\n              jumpi\n                /* \"#utility.yul\":11726:11744   */\n              tag_257\n              tag_114\n              jump\t// in\n            tag_257:\n                /* \"#utility.yul\":11711:11746   */\n            tag_256:\n                /* \"#utility.yul\":11768:11769   */\n              dup3\n                /* \"#utility.yul\":11765:11766   */\n              dup3\n                /* \"#utility.yul\":11761:11770   */\n              div\n                /* \"#utility.yul\":11756:11770   */\n              swap1\n              pop\n                /* \"#utility.yul\":11591:11776   */\n              swap3\n              swap2\n              pop\n              pop\n              jump\t// out\n\n            auxdata: 0xa26469706673582212207af641ae230743fa3a4524f3261fbf4ffddbeb2b682ad7f244fbc56e1946344364736f6c63430008130033\n        }\n    }\n\n    auxdata: 0xa2646970667358221220765a70bdfe5763948b0d4b7fa1dad13272a1012e79dcb07451c4af58fc649d6b64736f6c63430008130033\n}\n","bytecode":{"linkReferences":{},"object":"608060405234801561001057600080fd5b50611317806100206000396000f3fe608060405234801561001057600080fd5b50600436106100415760003560e01c80635eac000714610046578063a3303a7514610064578063b7ccb9ab14610080575b600080fd5b61004e6100b0565b60405161005b919061031b565b60405180910390f35b61007e60048036038101906100799190610378565b61013e565b005b61009a60048036038101906100959190610378565b6101df565b6040516100a791906103b4565b60405180910390f35b6060600080548060200260200160405190810160405280929190818152602001828054801561013457602002820191906000526020600020905b8160009054906101000a900473ffffffffffffffffffffffffffffffffffffffff1673ffffffffffffffffffffffffffffffffffffffff16815260200190600101908083116100ea575b5050505050905090565b6000813360405161014e9061021e565b6101599291906103de565b604051809103906000f080158015610175573d6000803e3d6000fd5b5090506000819080600181540180825580915050600190039060005260206000200160009091909190916101000a81548173ffffffffffffffffffffffffffffffffffffffff021916908373ffffffffffffffffffffffffffffffffffffffff1602179055505050565b600081815481106101ef57600080fd5b906000526020600020016000915054906101000a900473ffffffffffffffffffffffffffffffffffffffff1681565b610eda8061040883390190565b600081519050919050565b600082825260208201905092915050565b6000819050602082019050919050565b600073ffffffffffffffffffffffffffffffffffffffff82169050919050565b600061028282610257565b9050919050565b61029281610277565b82525050565b60006102a48383610289565b60208301905092915050565b6000602082019050919050565b60006102c88261022b565b6102d28185610236565b93506102dd83610247565b8060005b8381101561030e5781516102f58882610298565b9750610300836102b0565b9250506001810190506102e1565b5085935050505092915050565b6000602082019050818103600083015261033581846102bd565b905092915050565b600080fd5b6000819050919050565b61035581610342565b811461036057600080fd5b50565b6000813590506103728161034c565b92915050565b60006020828403121561038e5761038d61033d565b5b600061039c84828501610363565b91505092915050565b6103ae81610277565b82525050565b60006020820190506103c960008301846103a5565b92915050565b6103d881610342565b82525050565b60006040820190506103f360008301856103cf565b61040060208301846103a5565b939250505056fe60806040523480156200001157600080fd5b5060405162000eda38038062000eda83398181016040528101906200003791906200012c565b8160008190555080600260006101000a81548173ffffffffffffffffffffffffffffffffffffffff021916908373ffffffffffffffffffffffffffffffffffffffff160217905550505062000173565b600080fd5b6000819050919050565b620000a1816200008c565b8114620000ad57600080fd5b50565b600081519050620000c18162000096565b92915050565b600073ffffffffffffffffffffffffffffffffffffffff82169050919050565b6000620000f482620000c7565b9050919050565b6200010681620000e7565b81146200011257600080fd5b50565b6000815190506200012681620000fb565b92915050565b6000806040838503121562000146576200014562000087565b5b60006200015685828601620000b0565b9250506020620001698582860162000115565b9150509250929050565b610d5780620001836000396000f3fe60806040526004361061007b5760003560e01c8063937e09b11161004e578063937e09b11461013c578063d7bb99ba14610167578063d7d1bbdb14610171578063e7b668b41461019a5761007b565b80630a14439114610080578063481c6a75146100bd57806382fde093146100e85780638a9cfd5514610113575b600080fd5b34801561008c57600080fd5b506100a760048036038101906100a29190610692565b6101c3565b6040516100b491906106da565b60405180910390f35b3480156100c957600080fd5b506100d26101e3565b6040516100df9190610704565b60405180910390f35b3480156100f457600080fd5b506100fd610209565b60405161010a9190610738565b60405180910390f35b34801561011f57600080fd5b5061013a600480360381019061013591906108c5565b61020f565b005b34801561014857600080fd5b50610151610321565b60405161015e9190610738565b60405180910390f35b61016f610327565b005b34801561017d57600080fd5b5061019860048036038101906101939190610934565b6103a7565b005b3480156101a657600080fd5b506101c160048036038101906101bc9190610934565b6104e5565b005b60036020528060005260406000206000915054906101000a900460ff1681565b600260009054906101000a900473ffffffffffffffffffffffffffffffffffffffff1681565b60045481565b600260009054906101000a900473ffffffffffffffffffffffffffffffffffffffff1673ffffffffffffffffffffffffffffffffffffffff163373ffffffffffffffffffffffffffffffffffffffff161461026957600080fd5b6000600560006001600081548092919061028290610990565b9190505581526020019081526020016000209050838160000190816102a79190610bef565b50828160010181905550818160020160006101000a81548173ffffffffffffffffffffffffffffffffffffffff021916908373ffffffffffffffffffffffffffffffffffffffff16021790555060008160020160146101000a81548160ff0219169083151502179055506000816003018190555050505050565b60005481565b600054341161033557600080fd5b6001600360003373ffffffffffffffffffffffffffffffffffffffff1673ffffffffffffffffffffffffffffffffffffffff16815260200190815260200160002060006101000a81548160ff021916908315150217905550600460008154809291906103a090610990565b9190505550565b6000600560008381526020019081526020016000209050600360003373ffffffffffffffffffffffffffffffffffffffff1673ffffffffffffffffffffffffffffffffffffffff16815260200190815260200160002060009054906101000a900460ff1661041457600080fd5b8060040160003373ffffffffffffffffffffffffffffffffffffffff1673ffffffffffffffffffffffffffffffffffffffff16815260200190815260200160002060009054906101000a900460ff161561046d57600080fd5b60018160040160003373ffffffffffffffffffffffffffffffffffffffff1673ffffffffffffffffffffffffffffffffffffffff16815260200190815260200160002060006101000a81548160ff0219169083151502179055508060030160008154809291906104dc90610990565b91905055505050565b600260009054906101000a900473ffffffffffffffffffffffffffffffffffffffff1673ffffffffffffffffffffffffffffffffffffffff163373ffffffffffffffffffffffffffffffffffffffff161461053f57600080fd5b60006005600083815260200190815260200160002090508060020160149054906101000a900460ff161561057257600080fd5b60026004546105819190610cf0565b81600301541161059057600080fd5b8060020160009054906101000a900473ffffffffffffffffffffffffffffffffffffffff1673ffffffffffffffffffffffffffffffffffffffff166108fc82600101549081150290604051600060405180830381858888f193505050501580156105fe573d6000803e3d6000fd5b5060018160020160146101000a81548160ff0219169083151502179055505050565b6000604051905090565b600080fd5b600080fd5b600073ffffffffffffffffffffffffffffffffffffffff82169050919050565b600061065f82610634565b9050919050565b61066f81610654565b811461067a57600080fd5b50565b60008135905061068c81610666565b92915050565b6000602082840312156106a8576106a761062a565b5b60006106b68482850161067d565b91505092915050565b60008115159050919050565b6106d4816106bf565b82525050565b60006020820190506106ef60008301846106cb565b92915050565b6106fe81610654565b82525050565b600060208201905061071960008301846106f5565b92915050565b6000819050919050565b6107328161071f565b82525050565b600060208201905061074d6000830184610729565b92915050565b600080fd5b600080fd5b6000601f19601f8301169050919050565b7f4e487b7100000000000000000000000000000000000000000000000000000000600052604160045260246000fd5b6107a68261075d565b810181811067ffffffffffffffff821117156107c5576107c461076e565b5b80604052505050565b60006107d8610620565b90506107e4828261079d565b919050565b600067ffffffffffffffff8211156108045761080361076e565b5b61080d8261075d565b9050602081019050919050565b82818337600083830152505050565b600061083c610837846107e9565b6107ce565b90508281526020810184848401111561085857610857610758565b5b61086384828561081a565b509392505050565b600082601f8301126108805761087f610753565b5b8135610890848260208601610829565b91505092915050565b6108a28161071f565b81146108ad57600080fd5b50565b6000813590506108bf81610899565b92915050565b6000806000606084860312156108de576108dd61062a565b5b600084013567ffffffffffffffff8111156108fc576108fb61062f565b5b6109088682870161086b565b9350506020610919868287016108b0565b925050604061092a8682870161067d565b9150509250925092565b60006020828403121561094a5761094961062a565b5b6000610958848285016108b0565b91505092915050565b7f4e487b7100000000000000000000000000000000000000000000000000000000600052601160045260246000fd5b600061099b8261071f565b91507fffffffffffffffffffffffffffffffffffffffffffffffffffffffffffffffff82036109cd576109cc610961565b5b600182019050919050565b600081519050919050565b7f4e487b7100000000000000000000000000000000000000000000000000000000600052602260045260246000fd5b60006002820490506001821680610a2a57607f821691505b602082108103610a3d57610a3c6109e3565b5b50919050565b60008190508160005260206000209050919050565b60006020601f8301049050919050565b600082821b905092915050565b600060088302610aa57fffffffffffffffffffffffffffffffffffffffffffffffffffffffffffffffff82610a68565b610aaf8683610a68565b95508019841693508086168417925050509392505050565b6000819050919050565b6000610aec610ae7610ae28461071f565b610ac7565b61071f565b9050919050565b6000819050919050565b610b0683610ad1565b610b1a610b1282610af3565b848454610a75565b825550505050565b600090565b610b2f610b22565b610b3a818484610afd565b505050565b5b81811015610b5e57610b53600082610b27565b600181019050610b40565b5050565b601f821115610ba357610b7481610a43565b610b7d84610a58565b81016020851015610b8c578190505b610ba0610b9885610a58565b830182610b3f565b50505b505050565b600082821c905092915050565b6000610bc660001984600802610ba8565b1980831691505092915050565b6000610bdf8383610bb5565b9150826002028217905092915050565b610bf8826109d8565b67ffffffffffffffff811115610c1157610c1061076e565b5b610c1b8254610a12565b610c26828285610b62565b600060209050601f831160018114610c595760008415610c47578287015190505b610c518582610bd3565b865550610cb9565b601f198416610c6786610a43565b60005b82811015610c8f57848901518255600182019150602085019450602081019050610c6a565b86831015610cac5784890151610ca8601f891682610bb5565b8355505b6001600288020188555050505b505050505050565b7f4e487b7100000000000000000000000000000000000000000000000000000000600052601260045260246000fd5b6000610cfb8261071f565b9150610d068361071f565b925082610d1657610d15610cc1565b5b82820490509291505056fea26469706673582212207af641ae230743fa3a4524f3261fbf4ffddbeb2b682ad7f244fbc56e1946344364736f6c63430008130033a2646970667358221220765a70bdfe5763948b0d4b7fa1dad13272a1012e79dcb07451c4af58fc649d6b64736f6c63430008130033","opcodes":"PUSH1 0x80 PUSH1 0x40 MSTORE CALLVALUE DUP1 ISZERO PUSH2 0x10 JUMPI PUSH1 0x0 DUP1 REVERT JUMPDEST POP PUSH2 0x1317 DUP1 PUSH2 0x20 PUSH1 0x0 CODECOPY PUSH1 0x0 RETURN INVALID PUSH1 0x80 PUSH1 0x40 MSTORE CALLVALUE DUP1 ISZERO PUSH2 0x10 JUMPI PUSH1 0x0 DUP1 REVERT JUMPDEST POP PUSH1 0x4 CALLDATASIZE LT PUSH2 0x41 JUMPI PUSH1 0x0 CALLDATALOAD PUSH1 0xE0 SHR DUP1 PUSH4 0x5EAC0007 EQ PUSH2 0x46 JUMPI DUP1 PUSH4 0xA3303A75 EQ PUSH2 0x64 JUMPI DUP1 PUSH4 0xB7CCB9AB EQ PUSH2 0x80 JUMPI JUMPDEST PUSH1 0x0 DUP1 REVERT JUMPDEST PUSH2 0x4E PUSH2 0xB0 JUMP JUMPDEST PUSH1 0x40 MLOAD PUSH2 0x5B SWAP2 SWAP1 PUSH2 0x31B JUMP JUMPDEST PUSH1 0x40 MLOAD DUP1 SWAP2 SUB SWAP1 RETURN JUMPDEST PUSH2 0x7E PUSH1 0x4 DUP1 CALLDATASIZE SUB DUP2 ADD SWAP1 PUSH2 0x79 SWAP2 SWAP1 PUSH2 0x378 JUMP JUMPDEST PUSH2 0x13E JUMP JUMPDEST STOP JUMPDEST PUSH2 0x9A PUSH1 0x4 DUP1 CALLDATASIZE SUB DUP2 ADD SWAP1 PUSH2 0x95 SWAP2 SWAP1 PUSH2 0x378 JUMP JUMPDEST PUSH2 0x1DF JUMP JUMPDEST PUSH1 0x40 MLOAD PUSH2 0xA7 SWAP2 SWAP1 PUSH2 0x3B4 JUMP JUMPDEST PUSH1 0x40 MLOAD DUP1 SWAP2 SUB SWAP1 RETURN JUMPDEST PUSH1 0x60 PUSH1 0x0 DUP1 SLOAD DUP1 PUSH1 0x20 MUL PUSH1 0x20 ADD PUSH1 0x40 MLOAD SWAP1 DUP2 ADD PUSH1 0x40 MSTORE DUP1 SWAP3 SWAP2 SWAP1 DUP2 DUP2 MSTORE PUSH1 0x20 ADD DUP3 DUP1 SLOAD DUP1 ISZERO PUSH2 0x134 JUMPI PUSH1 0x20 MUL DUP3 ADD SWAP2 SWAP1 PUSH1 0x0 MSTORE PUSH1 0x20 PUSH1 0x0 KECCAK256 SWAP1 JUMPDEST DUP2 PUSH1 0x0 SWAP1 SLOAD SWAP1 PUSH2 0x100 EXP SWAP1 DIV PUSH20 0xFFFFFFFFFFFFFFFFFFFFFFFFFFFFFFFFFFFFFFFF AND PUSH20 0xFFFFFFFFFFFFFFFFFFFFFFFFFFFFFFFFFFFFFFFF AND DUP2 MSTORE PUSH1 0x20 ADD SWAP1 PUSH1 0x1 ADD SWAP1 DUP1 DUP4 GT PUSH2 0xEA JUMPI JUMPDEST POP POP POP POP POP SWAP1 POP SWAP1 JUMP JUMPDEST PUSH1 0x0 DUP2 CALLER PUSH1 0x40 MLOAD PUSH2 0x14E SWAP1 PUSH2 0x21E JUMP JUMPDEST PUSH2 0x159 SWAP3 SWAP2 SWAP1 PUSH2 0x3DE JUMP JUMPDEST PUSH1 0x40 MLOAD DUP1 SWAP2 SUB SWAP1 PUSH1 0x0 CREATE DUP1 ISZERO DUP1 ISZERO PUSH2 0x175 JUMPI RETURNDATASIZE PUSH1 0x0 DUP1 RETURNDATACOPY RETURNDATASIZE PUSH1 0x0 REVERT JUMPDEST POP SWAP1 POP PUSH1 0x0 DUP2 SWAP1 DUP1 PUSH1 0x1 DUP2 SLOAD ADD DUP1 DUP3 SSTORE DUP1 SWAP2 POP POP PUSH1 0x1 SWAP1 SUB SWAP1 PUSH1 0x0 MSTORE PUSH1 0x20 PUSH1 0x0 KECCAK256 ADD PUSH1 0x0 SWAP1 SWAP2 SWAP1 SWAP2 SWAP1 SWAP2 PUSH2 0x100 EXP DUP2 SLOAD DUP2 PUSH20 0xFFFFFFFFFFFFFFFFFFFFFFFFFFFFFFFFFFFFFFFF MUL NOT AND SWAP1 DUP4 PUSH20 0xFFFFFFFFFFFFFFFFFFFFFFFFFFFFFFFFFFFFFFFF AND MUL OR SWAP1 SSTORE POP POP POP JUMP JUMPDEST PUSH1 0x0 DUP2 DUP2 SLOAD DUP2 LT PUSH2 0x1EF JUMPI PUSH1 0x0 DUP1 REVERT JUMPDEST SWAP1 PUSH1 0x0 MSTORE PUSH1 0x20 PUSH1 0x0 KECCAK256 ADD PUSH1 0x0 SWAP2 POP SLOAD SWAP1 PUSH2 0x100 EXP SWAP1 DIV PUSH20 0xFFFFFFFFFFFFFFFFFFFFFFFFFFFFFFFFFFFFFFFF AND DUP2 JUMP JUMPDEST PUSH2 0xEDA DUP1 PUSH2 0x408 DUP4 CODECOPY ADD SWAP1 JUMP JUMPDEST PUSH1 0x0 DUP2 MLOAD SWAP1 POP SWAP2 SWAP1 POP JUMP JUMPDEST PUSH1 0x0 DUP3 DUP3 MSTORE PUSH1 0x20 DUP3 ADD SWAP1 POP SWAP3 SWAP2 POP POP JUMP JUMPDEST PUSH1 0x0 DUP2 SWAP1 POP PUSH1 0x20 DUP3 ADD SWAP1 POP SWAP2 SWAP1 POP JUMP JUMPDEST PUSH1 0x0 PUSH20 0xFFFFFFFFFFFFFFFFFFFFFFFFFFFFFFFFFFFFFFFF DUP3 AND SWAP1 POP SWAP2 SWAP1 POP JUMP JUMPDEST PUSH1 0x0 PUSH2 0x282 DUP3 PUSH2 0x257 JUMP JUMPDEST SWAP1 POP SWAP2 SWAP1 POP JUMP JUMPDEST PUSH2 0x292 DUP2 PUSH2 0x277 JUMP JUMPDEST DUP3 MSTORE POP POP JUMP JUMPDEST PUSH1 0x0 PUSH2 0x2A4 DUP4 DUP4 PUSH2 0x289 JUMP JUMPDEST PUSH1 0x20 DUP4 ADD SWAP1 POP SWAP3 SWAP2 POP POP JUMP JUMPDEST PUSH1 0x0 PUSH1 0x20 DUP3 ADD SWAP1 POP SWAP2 SWAP1 POP JUMP JUMPDEST PUSH1 0x0 PUSH2 0x2C8 DUP3 PUSH2 0x22B JUMP JUMPDEST PUSH2 0x2D2 DUP2 DUP6 PUSH2 0x236 JUMP JUMPDEST SWAP4 POP PUSH2 0x2DD DUP4 PUSH2 0x247 JUMP JUMPDEST DUP1 PUSH1 0x0 JUMPDEST DUP4 DUP2 LT ISZERO PUSH2 0x30E JUMPI DUP2 MLOAD PUSH2 0x2F5 DUP9 DUP3 PUSH2 0x298 JUMP JUMPDEST SWAP8 POP PUSH2 0x300 DUP4 PUSH2 0x2B0 JUMP JUMPDEST SWAP3 POP POP PUSH1 0x1 DUP2 ADD SWAP1 POP PUSH2 0x2E1 JUMP JUMPDEST POP DUP6 SWAP4 POP POP POP POP SWAP3 SWAP2 POP POP JUMP JUMPDEST PUSH1 0x0 PUSH1 0x20 DUP3 ADD SWAP1 POP DUP2 DUP2 SUB PUSH1 0x0 DUP4 ADD MSTORE PUSH2 0x335 DUP2 DUP5 PUSH2 0x2BD JUMP JUMPDEST SWAP1 POP SWAP3 SWAP2 POP POP JUMP JUMPDEST PUSH1 0x0 DUP1 REVERT JUMPDEST PUSH1 0x0 DUP2 SWAP1 POP SWAP2 SWAP1 POP JUMP JUMPDEST PUSH2 0x355 DUP2 PUSH2 0x342 JUMP JUMPDEST DUP2 EQ PUSH2 0x360 JUMPI PUSH1 0x0 DUP1 REVERT JUMPDEST POP JUMP JUMPDEST PUSH1 0x0 DUP2 CALLDATALOAD SWAP1 POP PUSH2 0x372 DUP2 PUSH2 0x34C JUMP JUMPDEST SWAP3 SWAP2 POP POP JUMP JUMPDEST PUSH1 0x0 PUSH1 0x20 DUP3 DUP5 SUB SLT ISZERO PUSH2 0x38E JUMPI PUSH2 0x38D PUSH2 0x33D JUMP JUMPDEST JUMPDEST PUSH1 0x0 PUSH2 0x39C DUP5 DUP3 DUP6 ADD PUSH2 0x363 JUMP JUMPDEST SWAP2 POP POP SWAP3 SWAP2 POP POP JUMP JUMPDEST PUSH2 0x3AE DUP2 PUSH2 0x277 JUMP JUMPDEST DUP3 MSTORE POP POP JUMP JUMPDEST PUSH1 0x0 PUSH1 0x20 DUP3 ADD SWAP1 POP PUSH2 0x3C9 PUSH1 0x0 DUP4 ADD DUP5 PUSH2 0x3A5 JUMP JUMPDEST SWAP3 SWAP2 POP POP JUMP JUMPDEST PUSH2 0x3D8 DUP2 PUSH2 0x342 JUMP JUMPDEST DUP3 MSTORE POP POP JUMP JUMPDEST PUSH1 0x0 PUSH1 0x40 DUP3 ADD SWAP1 POP PUSH2 0x3F3 PUSH1 0x0 DUP4 ADD DUP6 PUSH2 0x3CF JUMP JUMPDEST PUSH2 0x400 PUSH1 0x20 DUP4 ADD DUP5 PUSH2 0x3A5 JUMP JUMPDEST SWAP4 SWAP3 POP POP POP JUMP INVALID PUSH1 0x80 PUSH1 0x40 MSTORE CALLVALUE DUP1 ISZERO PUSH3 0x11 JUMPI PUSH1 0x0 DUP1 REVERT JUMPDEST POP PUSH1 0x40 MLOAD PUSH3 0xEDA CODESIZE SUB DUP1 PUSH3 0xEDA DUP4 CODECOPY DUP2 DUP2 ADD PUSH1 0x40 MSTORE DUP2 ADD SWAP1 PUSH3 0x37 SWAP2 SWAP1 PUSH3 0x12C JUMP JUMPDEST DUP2 PUSH1 0x0 DUP2 SWAP1 SSTORE POP DUP1 PUSH1 0x2 PUSH1 0x0 PUSH2 0x100 EXP DUP2 SLOAD DUP2 PUSH20 0xFFFFFFFFFFFFFFFFFFFFFFFFFFFFFFFFFFFFFFFF MUL NOT AND SWAP1 DUP4 PUSH20 0xFFFFFFFFFFFFFFFFFFFFFFFFFFFFFFFFFFFFFFFF AND MUL OR SWAP1 SSTORE POP POP POP PUSH3 0x173 JUMP JUMPDEST PUSH1 0x0 DUP1 REVERT JUMPDEST PUSH1 0x0 DUP2 SWAP1 POP SWAP2 SWAP1 POP JUMP JUMPDEST PUSH3 0xA1 DUP2 PUSH3 0x8C JUMP JUMPDEST DUP2 EQ PUSH3 0xAD JUMPI PUSH1 0x0 DUP1 REVERT JUMPDEST POP JUMP JUMPDEST PUSH1 0x0 DUP2 MLOAD SWAP1 POP PUSH3 0xC1 DUP2 PUSH3 0x96 JUMP JUMPDEST SWAP3 SWAP2 POP POP JUMP JUMPDEST PUSH1 0x0 PUSH20 0xFFFFFFFFFFFFFFFFFFFFFFFFFFFFFFFFFFFFFFFF DUP3 AND SWAP1 POP SWAP2 SWAP1 POP JUMP JUMPDEST PUSH1 0x0 PUSH3 0xF4 DUP3 PUSH3 0xC7 JUMP JUMPDEST SWAP1 POP SWAP2 SWAP1 POP JUMP JUMPDEST PUSH3 0x106 DUP2 PUSH3 0xE7 JUMP JUMPDEST DUP2 EQ PUSH3 0x112 JUMPI PUSH1 0x0 DUP1 REVERT JUMPDEST POP JUMP JUMPDEST PUSH1 0x0 DUP2 MLOAD SWAP1 POP PUSH3 0x126 DUP2 PUSH3 0xFB JUMP JUMPDEST SWAP3 SWAP2 POP POP JUMP JUMPDEST PUSH1 0x0 DUP1 PUSH1 0x40 DUP4 DUP6 SUB SLT ISZERO PUSH3 0x146 JUMPI PUSH3 0x145 PUSH3 0x87 JUMP JUMPDEST JUMPDEST PUSH1 0x0 PUSH3 0x156 DUP6 DUP3 DUP7 ADD PUSH3 0xB0 JUMP JUMPDEST SWAP3 POP POP PUSH1 0x20 PUSH3 0x169 DUP6 DUP3 DUP7 ADD PUSH3 0x115 JUMP JUMPDEST SWAP2 POP POP SWAP3 POP SWAP3 SWAP1 POP JUMP JUMPDEST PUSH2 0xD57 DUP1 PUSH3 0x183 PUSH1 0x0 CODECOPY PUSH1 0x0 RETURN INVALID PUSH1 0x80 PUSH1 0x40 MSTORE PUSH1 0x4 CALLDATASIZE LT PUSH2 0x7B JUMPI PUSH1 0x0 CALLDATALOAD PUSH1 0xE0 SHR DUP1 PUSH4 0x937E09B1 GT PUSH2 0x4E JUMPI DUP1 PUSH4 0x937E09B1 EQ PUSH2 0x13C JUMPI DUP1 PUSH4 0xD7BB99BA EQ PUSH2 0x167 JUMPI DUP1 PUSH4 0xD7D1BBDB EQ PUSH2 0x171 JUMPI DUP1 PUSH4 0xE7B668B4 EQ PUSH2 0x19A JUMPI PUSH2 0x7B JUMP JUMPDEST DUP1 PUSH4 0xA144391 EQ PUSH2 0x80 JUMPI DUP1 PUSH4 0x481C6A75 EQ PUSH2 0xBD JUMPI DUP1 PUSH4 0x82FDE093 EQ PUSH2 0xE8 JUMPI DUP1 PUSH4 0x8A9CFD55 EQ PUSH2 0x113 JUMPI JUMPDEST PUSH1 0x0 DUP1 REVERT JUMPDEST CALLVALUE DUP1 ISZERO PUSH2 0x8C JUMPI PUSH1 0x0 DUP1 REVERT JUMPDEST POP PUSH2 0xA7 PUSH1 0x4 DUP1 CALLDATASIZE SUB DUP2 ADD SWAP1 PUSH2 0xA2 SWAP2 SWAP1 PUSH2 0x692 JUMP JUMPDEST PUSH2 0x1C3 JUMP JUMPDEST PUSH1 0x40 MLOAD PUSH2 0xB4 SWAP2 SWAP1 PUSH2 0x6DA JUMP JUMPDEST PUSH1 0x40 MLOAD DUP1 SWAP2 SUB SWAP1 RETURN JUMPDEST CALLVALUE DUP1 ISZERO PUSH2 0xC9 JUMPI PUSH1 0x0 DUP1 REVERT JUMPDEST POP PUSH2 0xD2 PUSH2 0x1E3 JUMP JUMPDEST PUSH1 0x40 MLOAD PUSH2 0xDF SWAP2 SWAP1 PUSH2 0x704 JUMP JUMPDEST PUSH1 0x40 MLOAD DUP1 SWAP2 SUB SWAP1 RETURN JUMPDEST CALLVALUE DUP1 ISZERO PUSH2 0xF4 JUMPI PUSH1 0x0 DUP1 REVERT JUMPDEST POP PUSH2 0xFD PUSH2 0x209 JUMP JUMPDEST PUSH1 0x40 MLOAD PUSH2 0x10A SWAP2 SWAP1 PUSH2 0x738 JUMP JUMPDEST PUSH1 0x40 MLOAD DUP1 SWAP2 SUB SWAP1 RETURN JUMPDEST CALLVALUE DUP1 ISZERO PUSH2 0x11F JUMPI PUSH1 0x0 DUP1 REVERT JUMPDEST POP PUSH2 0x13A PUSH1 0x4 DUP1 CALLDATASIZE SUB DUP2 ADD SWAP1 PUSH2 0x135 SWAP2 SWAP1 PUSH2 0x8C5 JUMP JUMPDEST PUSH2 0x20F JUMP JUMPDEST STOP JUMPDEST CALLVALUE DUP1 ISZERO PUSH2 0x148 JUMPI PUSH1 0x0 DUP1 REVERT JUMPDEST POP PUSH2 0x151 PUSH2 0x321 JUMP JUMPDEST PUSH1 0x40 MLOAD PUSH2 0x15E SWAP2 SWAP1 PUSH2 0x738 JUMP JUMPDEST PUSH1 0x40 MLOAD DUP1 SWAP2 SUB SWAP1 RETURN JUMPDEST PUSH2 0x16F PUSH2 0x327 JUMP JUMPDEST STOP JUMPDEST CALLVALUE DUP1 ISZERO PUSH2 0x17D JUMPI PUSH1 0x0 DUP1 REVERT JUMPDEST POP PUSH2 0x198 PUSH1 0x4 DUP1 CALLDATASIZE SUB DUP2 ADD SWAP1 PUSH2 0x193 SWAP2 SWAP1 PUSH2 0x934 JUMP JUMPDEST PUSH2 0x3A7 JUMP JUMPDEST STOP JUMPDEST CALLVALUE DUP1 ISZERO PUSH2 0x1A6 JUMPI PUSH1 0x0 DUP1 REVERT JUMPDEST POP PUSH2 0x1C1 PUSH1 0x4 DUP1 CALLDATASIZE SUB DUP2 ADD SWAP1 PUSH2 0x1BC SWAP2 SWAP1 PUSH2 0x934 JUMP JUMPDEST PUSH2 0x4E5 JUMP JUMPDEST STOP JUMPDEST PUSH1 0x3 PUSH1 0x20 MSTORE DUP1 PUSH1 0x0 MSTORE PUSH1 0x40 PUSH1 0x0 KECCAK256 PUSH1 0x0 SWAP2 POP SLOAD SWAP1 PUSH2 0x100 EXP SWAP1 DIV PUSH1 0xFF AND DUP2 JUMP JUMPDEST PUSH1 0x2 PUSH1 0x0 SWAP1 SLOAD SWAP1 PUSH2 0x100 EXP SWAP1 DIV PUSH20 0xFFFFFFFFFFFFFFFFFFFFFFFFFFFFFFFFFFFFFFFF AND DUP2 JUMP JUMPDEST PUSH1 0x4 SLOAD DUP2 JUMP JUMPDEST PUSH1 0x2 PUSH1 0x0 SWAP1 SLOAD SWAP1 PUSH2 0x100 EXP SWAP1 DIV PUSH20 0xFFFFFFFFFFFFFFFFFFFFFFFFFFFFFFFFFFFFFFFF AND PUSH20 0xFFFFFFFFFFFFFFFFFFFFFFFFFFFFFFFFFFFFFFFF AND CALLER PUSH20 0xFFFFFFFFFFFFFFFFFFFFFFFFFFFFFFFFFFFFFFFF AND EQ PUSH2 0x269 JUMPI PUSH1 0x0 DUP1 REVERT JUMPDEST PUSH1 0x0 PUSH1 0x5 PUSH1 0x0 PUSH1 0x1 PUSH1 0x0 DUP2 SLOAD DUP1 SWAP3 SWAP2 SWAP1 PUSH2 0x282 SWAP1 PUSH2 0x990 JUMP JUMPDEST SWAP2 SWAP1 POP SSTORE DUP2 MSTORE PUSH1 0x20 ADD SWAP1 DUP2 MSTORE PUSH1 0x20 ADD PUSH1 0x0 KECCAK256 SWAP1 POP DUP4 DUP2 PUSH1 0x0 ADD SWAP1 DUP2 PUSH2 0x2A7 SWAP2 SWAP1 PUSH2 0xBEF JUMP JUMPDEST POP DUP3 DUP2 PUSH1 0x1 ADD DUP2 SWAP1 SSTORE POP DUP2 DUP2 PUSH1 0x2 ADD PUSH1 0x0 PUSH2 0x100 EXP DUP2 SLOAD DUP2 PUSH20 0xFFFFFFFFFFFFFFFFFFFFFFFFFFFFFFFFFFFFFFFF MUL NOT AND SWAP1 DUP4 PUSH20 0xFFFFFFFFFFFFFFFFFFFFFFFFFFFFFFFFFFFFFFFF AND MUL OR SWAP1 SSTORE POP PUSH1 0x0 DUP2 PUSH1 0x2 ADD PUSH1 0x14 PUSH2 0x100 EXP DUP2 SLOAD DUP2 PUSH1 0xFF MUL NOT AND SWAP1 DUP4 ISZERO ISZERO MUL OR SWAP1 SSTORE POP PUSH1 0x0 DUP2 PUSH1 0x3 ADD DUP2 SWAP1 SSTORE POP POP POP POP POP JUMP JUMPDEST PUSH1 0x0 SLOAD DUP2 JUMP JUMPDEST PUSH1 0x0 SLOAD CALLVALUE GT PUSH2 0x335 JUMPI PUSH1 0x0 DUP1 REVERT JUMPDEST PUSH1 0x1 PUSH1 0x3 PUSH1 0x0 CALLER PUSH20 0xFFFFFFFFFFFFFFFFFFFFFFFFFFFFFFFFFFFFFFFF AND PUSH20 0xFFFFFFFFFFFFFFFFFFFFFFFFFFFFFFFFFFFFFFFF AND DUP2 MSTORE PUSH1 0x20 ADD SWAP1 DUP2 MSTORE PUSH1 0x20 ADD PUSH1 0x0 KECCAK256 PUSH1 0x0 PUSH2 0x100 EXP DUP2 SLOAD DUP2 PUSH1 0xFF MUL NOT AND SWAP1 DUP4 ISZERO ISZERO MUL OR SWAP1 SSTORE POP PUSH1 0x4 PUSH1 0x0 DUP2 SLOAD DUP1 SWAP3 SWAP2 SWAP1 PUSH2 0x3A0 SWAP1 PUSH2 0x990 JUMP JUMPDEST SWAP2 SWAP1 POP SSTORE POP JUMP JUMPDEST PUSH1 0x0 PUSH1 0x5 PUSH1 0x0 DUP4 DUP2 MSTORE PUSH1 0x20 ADD SWAP1 DUP2 MSTORE PUSH1 0x20 ADD PUSH1 0x0 KECCAK256 SWAP1 POP PUSH1 0x3 PUSH1 0x0 CALLER PUSH20 0xFFFFFFFFFFFFFFFFFFFFFFFFFFFFFFFFFFFFFFFF AND PUSH20 0xFFFFFFFFFFFFFFFFFFFFFFFFFFFFFFFFFFFFFFFF AND DUP2 MSTORE PUSH1 0x20 ADD SWAP1 DUP2 MSTORE PUSH1 0x20 ADD PUSH1 0x0 KECCAK256 PUSH1 0x0 SWAP1 SLOAD SWAP1 PUSH2 0x100 EXP SWAP1 DIV PUSH1 0xFF AND PUSH2 0x414 JUMPI PUSH1 0x0 DUP1 REVERT JUMPDEST DUP1 PUSH1 0x4 ADD PUSH1 0x0 CALLER PUSH20 0xFFFFFFFFFFFFFFFFFFFFFFFFFFFFFFFFFFFFFFFF AND PUSH20 0xFFFFFFFFFFFFFFFFFFFFFFFFFFFFFFFFFFFFFFFF AND DUP2 MSTORE PUSH1 0x20 ADD SWAP1 DUP2 MSTORE PUSH1 0x20 ADD PUSH1 0x0 KECCAK256 PUSH1 0x0 SWAP1 SLOAD SWAP1 PUSH2 0x100 EXP SWAP1 DIV PUSH1 0xFF AND ISZERO PUSH2 0x46D JUMPI PUSH1 0x0 DUP1 REVERT JUMPDEST PUSH1 0x1 DUP2 PUSH1 0x4 ADD PUSH1 0x0 CALLER PUSH20 0xFFFFFFFFFFFFFFFFFFFFFFFFFFFFFFFFFFFFFFFF AND PUSH20 0xFFFFFFFFFFFFFFFFFFFFFFFFFFFFFFFFFFFFFFFF AND DUP2 MSTORE PUSH1 0x20 ADD SWAP1 DUP2 MSTORE PUSH1 0x20 ADD PUSH1 0x0 KECCAK256 PUSH1 0x0 PUSH2 0x100 EXP DUP2 SLOAD DUP2 PUSH1 0xFF MUL NOT AND SWAP1 DUP4 ISZERO ISZERO MUL OR SWAP1 SSTORE POP DUP1 PUSH1 0x3 ADD PUSH1 0x0 DUP2 SLOAD DUP1 SWAP3 SWAP2 SWAP1 PUSH2 0x4DC SWAP1 PUSH2 0x990 JUMP JUMPDEST SWAP2 SWAP1 POP SSTORE POP POP POP JUMP JUMPDEST PUSH1 0x2 PUSH1 0x0 SWAP1 SLOAD SWAP1 PUSH2 0x100 EXP SWAP1 DIV PUSH20 0xFFFFFFFFFFFFFFFFFFFFFFFFFFFFFFFFFFFFFFFF AND PUSH20 0xFFFFFFFFFFFFFFFFFFFFFFFFFFFFFFFFFFFFFFFF AND CALLER PUSH20 0xFFFFFFFFFFFFFFFFFFFFFFFFFFFFFFFFFFFFFFFF AND EQ PUSH2 0x53F JUMPI PUSH1 0x0 DUP1 REVERT JUMPDEST PUSH1 0x0 PUSH1 0x5 PUSH1 0x0 DUP4 DUP2 MSTORE PUSH1 0x20 ADD SWAP1 DUP2 MSTORE PUSH1 0x20 ADD PUSH1 0x0 KECCAK256 SWAP1 POP DUP1 PUSH1 0x2 ADD PUSH1 0x14 SWAP1 SLOAD SWAP1 PUSH2 0x100 EXP SWAP1 DIV PUSH1 0xFF AND ISZERO PUSH2 0x572 JUMPI PUSH1 0x0 DUP1 REVERT JUMPDEST PUSH1 0x2 PUSH1 0x4 SLOAD PUSH2 0x581 SWAP2 SWAP1 PUSH2 0xCF0 JUMP JUMPDEST DUP2 PUSH1 0x3 ADD SLOAD GT PUSH2 0x590 JUMPI PUSH1 0x0 DUP1 REVERT JUMPDEST DUP1 PUSH1 0x2 ADD PUSH1 0x0 SWAP1 SLOAD SWAP1 PUSH2 0x100 EXP SWAP1 DIV PUSH20 0xFFFFFFFFFFFFFFFFFFFFFFFFFFFFFFFFFFFFFFFF AND PUSH20 0xFFFFFFFFFFFFFFFFFFFFFFFFFFFFFFFFFFFFFFFF AND PUSH2 0x8FC DUP3 PUSH1 0x1 ADD SLOAD SWAP1 DUP2 ISZERO MUL SWAP1 PUSH1 0x40 MLOAD PUSH1 0x0 PUSH1 0x40 MLOAD DUP1 DUP4 SUB DUP2 DUP6 DUP9 DUP9 CALL SWAP4 POP POP POP POP ISZERO DUP1 ISZERO PUSH2 0x5FE JUMPI RETURNDATASIZE PUSH1 0x0 DUP1 RETURNDATACOPY RETURNDATASIZE PUSH1 0x0 REVERT JUMPDEST POP PUSH1 0x1 DUP2 PUSH1 0x2 ADD PUSH1 0x14 PUSH2 0x100 EXP DUP2 SLOAD DUP2 PUSH1 0xFF MUL NOT AND SWAP1 DUP4 ISZERO ISZERO MUL OR SWAP1 SSTORE POP POP POP JUMP JUMPDEST PUSH1 0x0 PUSH1 0x40 MLOAD SWAP1 POP SWAP1 JUMP JUMPDEST PUSH1 0x0 DUP1 REVERT JUMPDEST PUSH1 0x0 DUP1 REVERT JUMPDEST PUSH1 0x0 PUSH20 0xFFFFFFFFFFFFFFFFFFFFFFFFFFFFFFFFFFFFFFFF DUP3 AND SWAP1 POP SWAP2 SWAP1 POP JUMP JUMPDEST PUSH1 0x0 PUSH2 0x65F DUP3 PUSH2 0x634 JUMP JUMPDEST SWAP1 POP SWAP2 SWAP1 POP JUMP JUMPDEST PUSH2 0x66F DUP2 PUSH2 0x654 JUMP JUMPDEST DUP2 EQ PUSH2 0x67A JUMPI PUSH1 0x0 DUP1 REVERT JUMPDEST POP JUMP JUMPDEST PUSH1 0x0 DUP2 CALLDATALOAD SWAP1 POP PUSH2 0x68C DUP2 PUSH2 0x666 JUMP JUMPDEST SWAP3 SWAP2 POP POP JUMP JUMPDEST PUSH1 0x0 PUSH1 0x20 DUP3 DUP5 SUB SLT ISZERO PUSH2 0x6A8 JUMPI PUSH2 0x6A7 PUSH2 0x62A JUMP JUMPDEST JUMPDEST PUSH1 0x0 PUSH2 0x6B6 DUP5 DUP3 DUP6 ADD PUSH2 0x67D JUMP JUMPDEST SWAP2 POP POP SWAP3 SWAP2 POP POP JUMP JUMPDEST PUSH1 0x0 DUP2 ISZERO ISZERO SWAP1 POP SWAP2 SWAP1 POP JUMP JUMPDEST PUSH2 0x6D4 DUP2 PUSH2 0x6BF JUMP JUMPDEST DUP3 MSTORE POP POP JUMP JUMPDEST PUSH1 0x0 PUSH1 0x20 DUP3 ADD SWAP1 POP PUSH2 0x6EF PUSH1 0x0 DUP4 ADD DUP5 PUSH2 0x6CB JUMP JUMPDEST SWAP3 SWAP2 POP POP JUMP JUMPDEST PUSH2 0x6FE DUP2 PUSH2 0x654 JUMP JUMPDEST DUP3 MSTORE POP POP JUMP JUMPDEST PUSH1 0x0 PUSH1 0x20 DUP3 ADD SWAP1 POP PUSH2 0x719 PUSH1 0x0 DUP4 ADD DUP5 PUSH2 0x6F5 JUMP JUMPDEST SWAP3 SWAP2 POP POP JUMP JUMPDEST PUSH1 0x0 DUP2 SWAP1 POP SWAP2 SWAP1 POP JUMP JUMPDEST PUSH2 0x732 DUP2 PUSH2 0x71F JUMP JUMPDEST DUP3 MSTORE POP POP JUMP JUMPDEST PUSH1 0x0 PUSH1 0x20 DUP3 ADD SWAP1 POP PUSH2 0x74D PUSH1 0x0 DUP4 ADD DUP5 PUSH2 0x729 JUMP JUMPDEST SWAP3 SWAP2 POP POP JUMP JUMPDEST PUSH1 0x0 DUP1 REVERT JUMPDEST PUSH1 0x0 DUP1 REVERT JUMPDEST PUSH1 0x0 PUSH1 0x1F NOT PUSH1 0x1F DUP4 ADD AND SWAP1 POP SWAP2 SWAP1 POP JUMP JUMPDEST PUSH32 0x4E487B7100000000000000000000000000000000000000000000000000000000 PUSH1 0x0 MSTORE PUSH1 0x41 PUSH1 0x4 MSTORE PUSH1 0x24 PUSH1 0x0 REVERT JUMPDEST PUSH2 0x7A6 DUP3 PUSH2 0x75D JUMP JUMPDEST DUP2 ADD DUP2 DUP2 LT PUSH8 0xFFFFFFFFFFFFFFFF DUP3 GT OR ISZERO PUSH2 0x7C5 JUMPI PUSH2 0x7C4 PUSH2 0x76E JUMP JUMPDEST JUMPDEST DUP1 PUSH1 0x40 MSTORE POP POP POP JUMP JUMPDEST PUSH1 0x0 PUSH2 0x7D8 PUSH2 0x620 JUMP JUMPDEST SWAP1 POP PUSH2 0x7E4 DUP3 DUP3 PUSH2 0x79D JUMP JUMPDEST SWAP2 SWAP1 POP JUMP JUMPDEST PUSH1 0x0 PUSH8 0xFFFFFFFFFFFFFFFF DUP3 GT ISZERO PUSH2 0x804 JUMPI PUSH2 0x803 PUSH2 0x76E JUMP JUMPDEST JUMPDEST PUSH2 0x80D DUP3 PUSH2 0x75D JUMP JUMPDEST SWAP1 POP PUSH1 0x20 DUP2 ADD SWAP1 POP SWAP2 SWAP1 POP JUMP JUMPDEST DUP3 DUP2 DUP4 CALLDATACOPY PUSH1 0x0 DUP4 DUP4 ADD MSTORE POP POP POP JUMP JUMPDEST PUSH1 0x0 PUSH2 0x83C PUSH2 0x837 DUP5 PUSH2 0x7E9 JUMP JUMPDEST PUSH2 0x7CE JUMP JUMPDEST SWAP1 POP DUP3 DUP2 MSTORE PUSH1 0x20 DUP2 ADD DUP5 DUP5 DUP5 ADD GT ISZERO PUSH2 0x858 JUMPI PUSH2 0x857 PUSH2 0x758 JUMP JUMPDEST JUMPDEST PUSH2 0x863 DUP5 DUP3 DUP6 PUSH2 0x81A JUMP JUMPDEST POP SWAP4 SWAP3 POP POP POP JUMP JUMPDEST PUSH1 0x0 DUP3 PUSH1 0x1F DUP4 ADD SLT PUSH2 0x880 JUMPI PUSH2 0x87F PUSH2 0x753 JUMP JUMPDEST JUMPDEST DUP2 CALLDATALOAD PUSH2 0x890 DUP5 DUP3 PUSH1 0x20 DUP7 ADD PUSH2 0x829 JUMP JUMPDEST SWAP2 POP POP SWAP3 SWAP2 POP POP JUMP JUMPDEST PUSH2 0x8A2 DUP2 PUSH2 0x71F JUMP JUMPDEST DUP2 EQ PUSH2 0x8AD JUMPI PUSH1 0x0 DUP1 REVERT JUMPDEST POP JUMP JUMPDEST PUSH1 0x0 DUP2 CALLDATALOAD SWAP1 POP PUSH2 0x8BF DUP2 PUSH2 0x899 JUMP JUMPDEST SWAP3 SWAP2 POP POP JUMP JUMPDEST PUSH1 0x0 DUP1 PUSH1 0x0 PUSH1 0x60 DUP5 DUP7 SUB SLT ISZERO PUSH2 0x8DE JUMPI PUSH2 0x8DD PUSH2 0x62A JUMP JUMPDEST JUMPDEST PUSH1 0x0 DUP5 ADD CALLDATALOAD PUSH8 0xFFFFFFFFFFFFFFFF DUP2 GT ISZERO PUSH2 0x8FC JUMPI PUSH2 0x8FB PUSH2 0x62F JUMP JUMPDEST JUMPDEST PUSH2 0x908 DUP7 DUP3 DUP8 ADD PUSH2 0x86B JUMP JUMPDEST SWAP4 POP POP PUSH1 0x20 PUSH2 0x919 DUP7 DUP3 DUP8 ADD PUSH2 0x8B0 JUMP JUMPDEST SWAP3 POP POP PUSH1 0x40 PUSH2 0x92A DUP7 DUP3 DUP8 ADD PUSH2 0x67D JUMP JUMPDEST SWAP2 POP POP SWAP3 POP SWAP3 POP SWAP3 JUMP JUMPDEST PUSH1 0x0 PUSH1 0x20 DUP3 DUP5 SUB SLT ISZERO PUSH2 0x94A JUMPI PUSH2 0x949 PUSH2 0x62A JUMP JUMPDEST JUMPDEST PUSH1 0x0 PUSH2 0x958 DUP5 DUP3 DUP6 ADD PUSH2 0x8B0 JUMP JUMPDEST SWAP2 POP POP SWAP3 SWAP2 POP POP JUMP JUMPDEST PUSH32 0x4E487B7100000000000000000000000000000000000000000000000000000000 PUSH1 0x0 MSTORE PUSH1 0x11 PUSH1 0x4 MSTORE PUSH1 0x24 PUSH1 0x0 REVERT JUMPDEST PUSH1 0x0 PUSH2 0x99B DUP3 PUSH2 0x71F JUMP JUMPDEST SWAP2 POP PUSH32 0xFFFFFFFFFFFFFFFFFFFFFFFFFFFFFFFFFFFFFFFFFFFFFFFFFFFFFFFFFFFFFFFF DUP3 SUB PUSH2 0x9CD JUMPI PUSH2 0x9CC PUSH2 0x961 JUMP JUMPDEST JUMPDEST PUSH1 0x1 DUP3 ADD SWAP1 POP SWAP2 SWAP1 POP JUMP JUMPDEST PUSH1 0x0 DUP2 MLOAD SWAP1 POP SWAP2 SWAP1 POP JUMP JUMPDEST PUSH32 0x4E487B7100000000000000000000000000000000000000000000000000000000 PUSH1 0x0 MSTORE PUSH1 0x22 PUSH1 0x4 MSTORE PUSH1 0x24 PUSH1 0x0 REVERT JUMPDEST PUSH1 0x0 PUSH1 0x2 DUP3 DIV SWAP1 POP PUSH1 0x1 DUP3 AND DUP1 PUSH2 0xA2A JUMPI PUSH1 0x7F DUP3 AND SWAP2 POP JUMPDEST PUSH1 0x20 DUP3 LT DUP2 SUB PUSH2 0xA3D JUMPI PUSH2 0xA3C PUSH2 0x9E3 JUMP JUMPDEST JUMPDEST POP SWAP2 SWAP1 POP JUMP JUMPDEST PUSH1 0x0 DUP2 SWAP1 POP DUP2 PUSH1 0x0 MSTORE PUSH1 0x20 PUSH1 0x0 KECCAK256 SWAP1 POP SWAP2 SWAP1 POP JUMP JUMPDEST PUSH1 0x0 PUSH1 0x20 PUSH1 0x1F DUP4 ADD DIV SWAP1 POP SWAP2 SWAP1 POP JUMP JUMPDEST PUSH1 0x0 DUP3 DUP3 SHL SWAP1 POP SWAP3 SWAP2 POP POP JUMP JUMPDEST PUSH1 0x0 PUSH1 0x8 DUP4 MUL PUSH2 0xAA5 PUSH32 0xFFFFFFFFFFFFFFFFFFFFFFFFFFFFFFFFFFFFFFFFFFFFFFFFFFFFFFFFFFFFFFFF DUP3 PUSH2 0xA68 JUMP JUMPDEST PUSH2 0xAAF DUP7 DUP4 PUSH2 0xA68 JUMP JUMPDEST SWAP6 POP DUP1 NOT DUP5 AND SWAP4 POP DUP1 DUP7 AND DUP5 OR SWAP3 POP POP POP SWAP4 SWAP3 POP POP POP JUMP JUMPDEST PUSH1 0x0 DUP2 SWAP1 POP SWAP2 SWAP1 POP JUMP JUMPDEST PUSH1 0x0 PUSH2 0xAEC PUSH2 0xAE7 PUSH2 0xAE2 DUP5 PUSH2 0x71F JUMP JUMPDEST PUSH2 0xAC7 JUMP JUMPDEST PUSH2 0x71F JUMP JUMPDEST SWAP1 POP SWAP2 SWAP1 POP JUMP JUMPDEST PUSH1 0x0 DUP2 SWAP1 POP SWAP2 SWAP1 POP JUMP JUMPDEST PUSH2 0xB06 DUP4 PUSH2 0xAD1 JUMP JUMPDEST PUSH2 0xB1A PUSH2 0xB12 DUP3 PUSH2 0xAF3 JUMP JUMPDEST DUP5 DUP5 SLOAD PUSH2 0xA75 JUMP JUMPDEST DUP3 SSTORE POP POP POP POP JUMP JUMPDEST PUSH1 0x0 SWAP1 JUMP JUMPDEST PUSH2 0xB2F PUSH2 0xB22 JUMP JUMPDEST PUSH2 0xB3A DUP2 DUP5 DUP5 PUSH2 0xAFD JUMP JUMPDEST POP POP POP JUMP JUMPDEST JUMPDEST DUP2 DUP2 LT ISZERO PUSH2 0xB5E JUMPI PUSH2 0xB53 PUSH1 0x0 DUP3 PUSH2 0xB27 JUMP JUMPDEST PUSH1 0x1 DUP2 ADD SWAP1 POP PUSH2 0xB40 JUMP JUMPDEST POP POP JUMP JUMPDEST PUSH1 0x1F DUP3 GT ISZERO PUSH2 0xBA3 JUMPI PUSH2 0xB74 DUP2 PUSH2 0xA43 JUMP JUMPDEST PUSH2 0xB7D DUP5 PUSH2 0xA58 JUMP JUMPDEST DUP2 ADD PUSH1 0x20 DUP6 LT ISZERO PUSH2 0xB8C JUMPI DUP2 SWAP1 POP JUMPDEST PUSH2 0xBA0 PUSH2 0xB98 DUP6 PUSH2 0xA58 JUMP JUMPDEST DUP4 ADD DUP3 PUSH2 0xB3F JUMP JUMPDEST POP POP JUMPDEST POP POP POP JUMP JUMPDEST PUSH1 0x0 DUP3 DUP3 SHR SWAP1 POP SWAP3 SWAP2 POP POP JUMP JUMPDEST PUSH1 0x0 PUSH2 0xBC6 PUSH1 0x0 NOT DUP5 PUSH1 0x8 MUL PUSH2 0xBA8 JUMP JUMPDEST NOT DUP1 DUP4 AND SWAP2 POP POP SWAP3 SWAP2 POP POP JUMP JUMPDEST PUSH1 0x0 PUSH2 0xBDF DUP4 DUP4 PUSH2 0xBB5 JUMP JUMPDEST SWAP2 POP DUP3 PUSH1 0x2 MUL DUP3 OR SWAP1 POP SWAP3 SWAP2 POP POP JUMP JUMPDEST PUSH2 0xBF8 DUP3 PUSH2 0x9D8 JUMP JUMPDEST PUSH8 0xFFFFFFFFFFFFFFFF DUP2 GT ISZERO PUSH2 0xC11 JUMPI PUSH2 0xC10 PUSH2 0x76E JUMP JUMPDEST JUMPDEST PUSH2 0xC1B DUP3 SLOAD PUSH2 0xA12 JUMP JUMPDEST PUSH2 0xC26 DUP3 DUP3 DUP6 PUSH2 0xB62 JUMP JUMPDEST PUSH1 0x0 PUSH1 0x20 SWAP1 POP PUSH1 0x1F DUP4 GT PUSH1 0x1 DUP2 EQ PUSH2 0xC59 JUMPI PUSH1 0x0 DUP5 ISZERO PUSH2 0xC47 JUMPI DUP3 DUP8 ADD MLOAD SWAP1 POP JUMPDEST PUSH2 0xC51 DUP6 DUP3 PUSH2 0xBD3 JUMP JUMPDEST DUP7 SSTORE POP PUSH2 0xCB9 JUMP JUMPDEST PUSH1 0x1F NOT DUP5 AND PUSH2 0xC67 DUP7 PUSH2 0xA43 JUMP JUMPDEST PUSH1 0x0 JUMPDEST DUP3 DUP2 LT ISZERO PUSH2 0xC8F JUMPI DUP5 DUP10 ADD MLOAD DUP3 SSTORE PUSH1 0x1 DUP3 ADD SWAP2 POP PUSH1 0x20 DUP6 ADD SWAP5 POP PUSH1 0x20 DUP2 ADD SWAP1 POP PUSH2 0xC6A JUMP JUMPDEST DUP7 DUP4 LT ISZERO PUSH2 0xCAC JUMPI DUP5 DUP10 ADD MLOAD PUSH2 0xCA8 PUSH1 0x1F DUP10 AND DUP3 PUSH2 0xBB5 JUMP JUMPDEST DUP4 SSTORE POP JUMPDEST PUSH1 0x1 PUSH1 0x2 DUP9 MUL ADD DUP9 SSTORE POP POP POP JUMPDEST POP POP POP POP POP POP JUMP JUMPDEST PUSH32 0x4E487B7100000000000000000000000000000000000000000000000000000000 PUSH1 0x0 MSTORE PUSH1 0x12 PUSH1 0x4 MSTORE PUSH1 0x24 PUSH1 0x0 REVERT JUMPDEST PUSH1 0x0 PUSH2 0xCFB DUP3 PUSH2 0x71F JUMP JUMPDEST SWAP2 POP PUSH2 0xD06 DUP4 PUSH2 0x71F JUMP JUMPDEST SWAP3 POP DUP3 PUSH2 0xD16 JUMPI PUSH2 0xD15 PUSH2 0xCC1 JUMP JUMPDEST JUMPDEST DUP3 DUP3 DIV SWAP1 POP SWAP3 SWAP2 POP POP JUMP INVALID LOG2 PUSH5 0x6970667358 0x22 SLT KECCAK256 PUSH27 0xF641AE230743FA3A4524F3261FBF4FFDDBEB2B682AD7F244FBC56E NOT CHAINID CALLVALUE NUMBER PUSH5 0x736F6C6343 STOP ADDMOD SGT STOP CALLER LOG2 PUSH5 0x6970667358 0x22 SLT KECCAK256 PUSH23 0x5A70BDFE5763948B0D4B7FA1DAD13272A1012E79DCB074 MLOAD 0xC4 0xAF PC 0xFC PUSH5 0x9D6B64736F PUSH13 0x63430008130033000000000000 "},"gasEstimates":{"creation":{"codeDepositCost":"977400","executionCost":"1014","totalCost":"978414"},"external":{"createCampaign(uint256)":"infinite","deployedCampaign(uint256)":"4978","getDeployedCampaign()":"infinite"}},"methodIdentifiers":{"createCampaign(uint256)":"a3303a75","deployedCampaign(uint256)":"b7ccb9ab","getDeployedCampaign()":"5eac0007"}},"storageLayout":{"storage":[{"astId":4,"contract":"Campaign.sol:CampaignFactory","label":"deployedCampaign","offset":0,"slot":"0","type":"t_array(t_address)dyn_storage"}],"types":{"t_address":{"encoding":"inplace","label":"address","numberOfBytes":"20"},"t_array(t_address)dyn_storage":{"base":"t_address","encoding":"dynamic_array","label":"address[]","numberOfBytes":"32"}}},"userdoc":{"kind":"user","methods":{},"version":1}}